{
  "address": "0x4f42048C40671b98be16176C9D020D03F30A2Dc4",
  "abi": [
    {
      "inputs": [
        {
          "internalType": "address",
          "name": "_router",
          "type": "address"
        },
        {
          "internalType": "address",
          "name": "_link",
          "type": "address"
        }
      ],
      "stateMutability": "nonpayable",
      "type": "constructor"
    },
    {
      "inputs": [
        {
          "internalType": "uint64",
          "name": "destinationChainSelector",
          "type": "uint64"
        }
      ],
      "name": "DestinationChainNotAllowed",
      "type": "error"
    },
    {
      "inputs": [
        {
          "internalType": "address",
          "name": "owner",
          "type": "address"
        },
        {
          "internalType": "address",
          "name": "target",
          "type": "address"
        },
        {
          "internalType": "uint256",
          "name": "value",
          "type": "uint256"
        }
      ],
      "name": "FailedToWithdrawEth",
      "type": "error"
    },
    {
      "inputs": [
        {
          "internalType": "address",
          "name": "router",
          "type": "address"
        }
      ],
      "name": "InvalidRouter",
      "type": "error"
    },
    {
      "inputs": [
        {
          "internalType": "uint256",
          "name": "currentBalance",
          "type": "uint256"
        },
        {
          "internalType": "uint256",
          "name": "calculatedFees",
          "type": "uint256"
        }
      ],
      "name": "NotEnoughBalance",
      "type": "error"
    },
    {
      "inputs": [],
      "name": "NothingToWithdraw",
      "type": "error"
    },
    {
      "inputs": [
        {
          "internalType": "address",
          "name": "sender",
          "type": "address"
        }
      ],
      "name": "SenderNotAllowed",
      "type": "error"
    },
    {
      "inputs": [
        {
          "internalType": "uint64",
          "name": "sourceChainSelector",
          "type": "uint64"
        }
      ],
      "name": "SourceChainNotAllowed",
      "type": "error"
    },
    {
      "anonymous": false,
      "inputs": [
        {
          "indexed": true,
          "internalType": "bytes32",
          "name": "messageId",
          "type": "bytes32"
        },
        {
          "indexed": true,
          "internalType": "uint64",
          "name": "sourceChainSelector",
          "type": "uint64"
        },
        {
          "indexed": false,
          "internalType": "address",
          "name": "sender",
          "type": "address"
        },
        {
          "indexed": false,
          "internalType": "string",
          "name": "text",
          "type": "string"
        },
        {
          "indexed": false,
          "internalType": "address",
          "name": "token",
          "type": "address"
        },
        {
          "indexed": false,
          "internalType": "uint256",
          "name": "tokenAmount",
          "type": "uint256"
        }
      ],
      "name": "MessageReceived",
      "type": "event"
    },
    {
      "anonymous": false,
      "inputs": [
        {
          "indexed": true,
          "internalType": "bytes32",
          "name": "messageId",
          "type": "bytes32"
        },
        {
          "indexed": true,
          "internalType": "uint64",
          "name": "destinationChainSelector",
          "type": "uint64"
        },
        {
          "indexed": false,
          "internalType": "address",
          "name": "receiver",
          "type": "address"
        },
        {
          "indexed": false,
          "internalType": "string",
          "name": "text",
          "type": "string"
        },
        {
          "indexed": false,
          "internalType": "address",
          "name": "token",
          "type": "address"
        },
        {
          "indexed": false,
          "internalType": "uint256",
          "name": "tokenAmount",
          "type": "uint256"
        },
        {
          "indexed": false,
          "internalType": "address",
          "name": "feeToken",
          "type": "address"
        },
        {
          "indexed": false,
          "internalType": "uint256",
          "name": "fees",
          "type": "uint256"
        }
      ],
      "name": "MessageSent",
      "type": "event"
    },
    {
      "anonymous": false,
      "inputs": [
        {
          "indexed": true,
          "internalType": "address",
          "name": "from",
          "type": "address"
        },
        {
          "indexed": true,
          "internalType": "address",
          "name": "to",
          "type": "address"
        }
      ],
      "name": "OwnershipTransferRequested",
      "type": "event"
    },
    {
      "anonymous": false,
      "inputs": [
        {
          "indexed": true,
          "internalType": "address",
          "name": "from",
          "type": "address"
        },
        {
          "indexed": true,
          "internalType": "address",
          "name": "to",
          "type": "address"
        }
      ],
      "name": "OwnershipTransferred",
      "type": "event"
    },
    {
      "inputs": [],
      "name": "acceptOwnership",
      "outputs": [],
      "stateMutability": "nonpayable",
      "type": "function"
    },
    {
      "inputs": [
        {
          "internalType": "uint64",
          "name": "_destinationChainSelector",
          "type": "uint64"
        },
        {
          "internalType": "bool",
          "name": "allowed",
          "type": "bool"
        }
      ],
      "name": "allowlistDestinationChain",
      "outputs": [],
      "stateMutability": "nonpayable",
      "type": "function"
    },
    {
      "inputs": [
        {
          "internalType": "address",
          "name": "_sender",
          "type": "address"
        },
        {
          "internalType": "bool",
          "name": "allowed",
          "type": "bool"
        }
      ],
      "name": "allowlistSender",
      "outputs": [],
      "stateMutability": "nonpayable",
      "type": "function"
    },
    {
      "inputs": [
        {
          "internalType": "uint64",
          "name": "_sourceChainSelector",
          "type": "uint64"
        },
        {
          "internalType": "bool",
          "name": "allowed",
          "type": "bool"
        }
      ],
      "name": "allowlistSourceChain",
      "outputs": [],
      "stateMutability": "nonpayable",
      "type": "function"
    },
    {
      "inputs": [
        {
          "internalType": "uint64",
          "name": "",
          "type": "uint64"
        }
      ],
      "name": "allowlistedDestinationChains",
      "outputs": [
        {
          "internalType": "bool",
          "name": "",
          "type": "bool"
        }
      ],
      "stateMutability": "view",
      "type": "function"
    },
    {
      "inputs": [
        {
          "internalType": "address",
          "name": "",
          "type": "address"
        }
      ],
      "name": "allowlistedSenders",
      "outputs": [
        {
          "internalType": "bool",
          "name": "",
          "type": "bool"
        }
      ],
      "stateMutability": "view",
      "type": "function"
    },
    {
      "inputs": [
        {
          "internalType": "uint64",
          "name": "",
          "type": "uint64"
        }
      ],
      "name": "allowlistedSourceChains",
      "outputs": [
        {
          "internalType": "bool",
          "name": "",
          "type": "bool"
        }
      ],
      "stateMutability": "view",
      "type": "function"
    },
    {
      "inputs": [
        {
          "components": [
            {
              "internalType": "bytes32",
              "name": "messageId",
              "type": "bytes32"
            },
            {
              "internalType": "uint64",
              "name": "sourceChainSelector",
              "type": "uint64"
            },
            {
              "internalType": "bytes",
              "name": "sender",
              "type": "bytes"
            },
            {
              "internalType": "bytes",
              "name": "data",
              "type": "bytes"
            },
            {
              "components": [
                {
                  "internalType": "address",
                  "name": "token",
                  "type": "address"
                },
                {
                  "internalType": "uint256",
                  "name": "amount",
                  "type": "uint256"
                }
              ],
              "internalType": "struct Client.EVMTokenAmount[]",
              "name": "destTokenAmounts",
              "type": "tuple[]"
            }
          ],
          "internalType": "struct Client.Any2EVMMessage",
          "name": "message",
          "type": "tuple"
        }
      ],
      "name": "ccipReceive",
      "outputs": [],
      "stateMutability": "nonpayable",
      "type": "function"
    },
    {
      "inputs": [],
      "name": "getLastReceivedMessageDetails",
      "outputs": [
        {
          "internalType": "bytes32",
          "name": "messageId",
          "type": "bytes32"
        },
        {
          "internalType": "string",
          "name": "text",
          "type": "string"
        },
        {
          "internalType": "address",
          "name": "tokenAddress",
          "type": "address"
        },
        {
          "internalType": "uint256",
          "name": "tokenAmount",
          "type": "uint256"
        }
      ],
      "stateMutability": "view",
      "type": "function"
    },
    {
      "inputs": [],
      "name": "getRouter",
      "outputs": [
        {
          "internalType": "address",
          "name": "",
          "type": "address"
        }
      ],
      "stateMutability": "view",
      "type": "function"
    },
    {
      "inputs": [],
      "name": "owner",
      "outputs": [
        {
          "internalType": "address",
          "name": "",
          "type": "address"
        }
      ],
      "stateMutability": "view",
      "type": "function"
    },
    {
      "inputs": [
        {
          "internalType": "uint64",
          "name": "_destinationChainSelector",
          "type": "uint64"
        },
        {
          "internalType": "address",
          "name": "_receiver",
          "type": "address"
        },
        {
          "internalType": "string",
          "name": "_text",
          "type": "string"
        },
        {
          "internalType": "address",
          "name": "_token",
          "type": "address"
        },
        {
          "internalType": "uint256",
          "name": "_amount",
          "type": "uint256"
        }
      ],
      "name": "sendMessagePayLINK",
      "outputs": [
        {
          "internalType": "bytes32",
          "name": "messageId",
          "type": "bytes32"
        }
      ],
      "stateMutability": "nonpayable",
      "type": "function"
    },
    {
      "inputs": [
        {
          "internalType": "uint64",
          "name": "_destinationChainSelector",
          "type": "uint64"
        },
        {
          "internalType": "address",
          "name": "_receiver",
          "type": "address"
        },
        {
          "internalType": "string",
          "name": "_text",
          "type": "string"
        },
        {
          "internalType": "address",
          "name": "_token",
          "type": "address"
        },
        {
          "internalType": "uint256",
          "name": "_amount",
          "type": "uint256"
        }
      ],
      "name": "sendMessagePayNative",
      "outputs": [
        {
          "internalType": "bytes32",
          "name": "messageId",
          "type": "bytes32"
        }
      ],
      "stateMutability": "nonpayable",
      "type": "function"
    },
    {
      "inputs": [
        {
          "internalType": "bytes4",
          "name": "interfaceId",
          "type": "bytes4"
        }
      ],
      "name": "supportsInterface",
      "outputs": [
        {
          "internalType": "bool",
          "name": "",
          "type": "bool"
        }
      ],
      "stateMutability": "pure",
      "type": "function"
    },
    {
      "inputs": [
        {
          "internalType": "address",
          "name": "to",
          "type": "address"
        }
      ],
      "name": "transferOwnership",
      "outputs": [],
      "stateMutability": "nonpayable",
      "type": "function"
    },
    {
      "inputs": [
        {
          "internalType": "address",
          "name": "_beneficiary",
          "type": "address"
        }
      ],
      "name": "withdraw",
      "outputs": [],
      "stateMutability": "nonpayable",
      "type": "function"
    },
    {
      "inputs": [
        {
          "internalType": "address",
          "name": "_beneficiary",
          "type": "address"
        },
        {
          "internalType": "address",
          "name": "_token",
          "type": "address"
        }
      ],
      "name": "withdrawToken",
      "outputs": [],
      "stateMutability": "nonpayable",
      "type": "function"
    },
    {
      "stateMutability": "payable",
      "type": "receive"
    }
  ],
  "transactionHash": "0x6cc887d443d994d7993d90cdfb01ddb96b1dd56cf03d804d9089e26314055c3f",
  "args": [
    "0x70499c328e1E2a3c41108bd3730F6670a44595D1",
    "0x326C977E6efc84E512bB9C30f76E30c160eD06FB"
  ],
  "numDeployments": 2,
  "solcInputHash": "777523d546d30d8adc78b0eafd0eebc1",
  "bytecode": "0x60a06040523480156200001157600080fd5b5060405162001eb338038062001eb38339810160408190526200003491620001ee565b33806000846001600160a01b03811662000069576040516335fdcccd60e21b8152600060048201526024015b60405180910390fd5b6001600160a01b039081166080528216620000c75760405162461bcd60e51b815260206004820152601860248201527f43616e6e6f7420736574206f776e657220746f207a65726f0000000000000000604482015260640162000060565b600080546001600160a01b0319166001600160a01b0384811691909117909155811615620000fa57620000fa8162000126565b5050600980546001600160a01b0319166001600160a01b03939093169290921790915550620002269050565b336001600160a01b03821603620001805760405162461bcd60e51b815260206004820152601760248201527f43616e6e6f74207472616e7366657220746f2073656c66000000000000000000604482015260640162000060565b600180546001600160a01b0319166001600160a01b0383811691821790925560008054604051929316917fed8889f560326eb138920d842192f0eb3dd22b4f139c87a2c57538e05bae12789190a350565b80516001600160a01b0381168114620001e957600080fd5b919050565b600080604083850312156200020257600080fd5b6200020d83620001d1565b91506200021d60208401620001d1565b90509250929050565b608051611c6a620002496000396000818161031e01526109c90152611c6a6000f3fe6080604052600436106101025760003560e01c806379ba50971161009557806396d3b83d1161006457806396d3b83d146102ef578063b0f479a11461030f578063db04fa4914610342578063eab5b02c14610362578063f2fde38b1461038257600080fd5b806379ba50971461026857806385572ffb1461027d5780638da5cb5b1461029d5780638f3f4e1a146102cf57600080fd5b80634030d521116100d15780634030d521146101b857806351cff8d9146101e85780636159ada11461020857806375c67c661461023857600080fd5b806301ffc9a71461010e5780631dd11dac14610143578063263596a5146101715780633aeac4e11461019657600080fd5b3661010957005b600080fd5b34801561011a57600080fd5b5061012e610129366004611373565b6103a2565b60405190151581526020015b60405180910390f35b34801561014f57600080fd5b5061016361015e3660046113d5565b6103d9565b60405190815260200161013a565b34801561017d57600080fd5b5061018661068a565b60405161013a94939291906114d7565b3480156101a257600080fd5b506101b66101b136600461150c565b610749565b005b3480156101c457600080fd5b5061012e6101d3366004611545565b60076020526000908152604090205460ff1681565b3480156101f457600080fd5b506101b6610203366004611560565b610858565b34801561021457600080fd5b5061012e610223366004611560565b60086020526000908152604090205460ff1681565b34801561024457600080fd5b5061012e610253366004611545565b60066020526000908152604090205460ff1681565b34801561027457600080fd5b506101b6610914565b34801561028957600080fd5b506101b661029836600461157d565b6109be565b3480156102a957600080fd5b506000546001600160a01b03165b6040516001600160a01b03909116815260200161013a565b3480156102db57600080fd5b506101636102ea3660046113d5565b610a1d565b3480156102fb57600080fd5b506101b661030a3660046115c5565b610e25565b34801561031b57600080fd5b507f00000000000000000000000000000000000000000000000000000000000000006102b7565b34801561034e57600080fd5b506101b661035d3660046115c5565b610e58565b34801561036e57600080fd5b506101b661037d3660046115f1565b610e8b565b34801561038e57600080fd5b506101b661039d366004611560565b610ebe565b60006001600160e01b031982166385572ffb60e01b14806103d357506001600160e01b031982166301ffc9a760e01b145b92915050565b60006103e3610ecf565b6001600160401b038716600090815260066020526040902054879060ff1661042e5760405163206abad760e01b81526001600160401b03821660048201526024015b60405180910390fd5b600061043f88888888886000610f24565b90506000306001600160a01b031663b0f479a16040518163ffffffff1660e01b8152600401602060405180830381865afa158015610481573d6000803e3d6000fd5b505050506040513d601f19601f820116820180604052508101906104a5919061160f565b90506000816001600160a01b03166320487ded8c856040518363ffffffff1660e01b81526004016104d792919061162c565b602060405180830381865afa1580156104f4573d6000803e3d6000fd5b505050506040513d601f19601f820116820180604052508101906105189190611705565b90504781111561054457604051634787a10360e11b815247600482015260248101829052604401610425565b60405163095ea7b360e01b81526001600160a01b0383811660048301526024820188905288169063095ea7b3906044016020604051808303816000875af1158015610593573d6000803e3d6000fd5b505050506040513d601f19601f820116820180604052508101906105b7919061171e565b506040516396f4e9f960e01b81526001600160a01b038316906396f4e9f99083906105e8908f90889060040161162c565b60206040518083038185885af1158015610606573d6000803e3d6000fd5b50505050506040513d601f19601f8201168201806040525081019061062b9190611705565b94508a6001600160401b0316857f437cb3c5ba4364504dda6ba3c906ffb0897c7beeb1675f3aaf22a1b9a99b39948c8c8c8c8c6000896040516106749796959493929190611764565b60405180910390a3505050509695505050505050565b600060606000806002546005600360009054906101000a90046001600160a01b03166004548280546106bb906117ac565b80601f01602080910402602001604051908101604052809291908181526020018280546106e7906117ac565b80156107345780601f1061070957610100808354040283529160200191610734565b820191906000526020600020905b81548152906001019060200180831161071757829003601f168201915b50505050509250935093509350935090919293565b610751610ecf565b6040516370a0823160e01b81523060048201526000906001600160a01b038316906370a0823190602401602060405180830381865afa158015610798573d6000803e3d6000fd5b505050506040513d601f19601f820116820180604052508101906107bc9190611705565b9050806000036107df57604051630686827b60e51b815260040160405180910390fd5b60405163a9059cbb60e01b81526001600160a01b0384811660048301526024820183905283169063a9059cbb906044016020604051808303816000875af115801561082e573d6000803e3d6000fd5b505050506040513d601f19601f82011682018060405250810190610852919061171e565b50505050565b610860610ecf565b47600081900361088357604051630686827b60e51b815260040160405180910390fd5b6000826001600160a01b03168260405160006040518083038185875af1925050503d80600081146108d0576040519150601f19603f3d011682016040523d82523d6000602084013e6108d5565b606091505b505090508061090f57604051639d11f56360e01b81523360048201526001600160a01b038416602482015260448101839052606401610425565b505050565b6001546001600160a01b031633146109675760405162461bcd60e51b815260206004820152601660248201527526bab9ba10313290383937b837b9b2b21037bbb732b960511b6044820152606401610425565b60008054336001600160a01b0319808316821784556001805490911690556040516001600160a01b0390921692909183917f8be0079c531659141344cd1fd0a4f28419497f9722a3daafe3b4186f6b6457e091a350565b336001600160a01b037f00000000000000000000000000000000000000000000000000000000000000001614610a09576040516335fdcccd60e21b8152336004820152602401610425565b610a1a610a158261199f565b6110c0565b50565b6000610a27610ecf565b6001600160401b038716600090815260066020526040902054879060ff16610a6d5760405163206abad760e01b81526001600160401b0382166004820152602401610425565b6000610a928888888888600960009054906101000a90046001600160a01b0316610f24565b90506000306001600160a01b031663b0f479a16040518163ffffffff1660e01b8152600401602060405180830381865afa158015610ad4573d6000803e3d6000fd5b505050506040513d601f19601f82011682018060405250810190610af8919061160f565b90506000816001600160a01b03166320487ded8c856040518363ffffffff1660e01b8152600401610b2a92919061162c565b602060405180830381865afa158015610b47573d6000803e3d6000fd5b505050506040513d601f19601f82011682018060405250810190610b6b9190611705565b6009546040516370a0823160e01b81523060048201529192506001600160a01b0316906370a0823190602401602060405180830381865afa158015610bb4573d6000803e3d6000fd5b505050506040513d601f19601f82011682018060405250810190610bd89190611705565b811115610c6f576009546040516370a0823160e01b81523060048201526001600160a01b03909116906370a0823190602401602060405180830381865afa158015610c27573d6000803e3d6000fd5b505050506040513d601f19601f82011682018060405250810190610c4b9190611705565b604051634787a10360e11b8152600481019190915260248101829052604401610425565b60095460405163095ea7b360e01b81526001600160a01b038481166004830152602482018490529091169063095ea7b3906044016020604051808303816000875af1158015610cc2573d6000803e3d6000fd5b505050506040513d601f19601f82011682018060405250810190610ce6919061171e565b5060405163095ea7b360e01b81526001600160a01b0383811660048301526024820188905288169063095ea7b3906044016020604051808303816000875af1158015610d36573d6000803e3d6000fd5b505050506040513d601f19601f82011682018060405250810190610d5a919061171e565b506040516396f4e9f960e01b81526001600160a01b038316906396f4e9f990610d89908e90879060040161162c565b6020604051808303816000875af1158015610da8573d6000803e3d6000fd5b505050506040513d601f19601f82011682018060405250810190610dcc9190611705565b6009546040519196506001600160401b038d169187917f437cb3c5ba4364504dda6ba3c906ffb0897c7beeb1675f3aaf22a1b9a99b399491610674918f918f918f918f918f916001600160a01b03909116908b90611764565b610e2d610ecf565b6001600160401b03919091166000908152600660205260409020805460ff1916911515919091179055565b610e60610ecf565b6001600160401b03919091166000908152600760205260409020805460ff1916911515919091179055565b610e93610ecf565b6001600160a01b03919091166000908152600860205260409020805460ff1916911515919091179055565b610ec6610ecf565b610a1a816112ca565b6000546001600160a01b03163314610f225760405162461bcd60e51b815260206004820152601660248201527527b7363c9031b0b63630b1363290313c9037bbb732b960511b6044820152606401610425565b565b610f5f6040518060a0016040528060608152602001606081526020016060815260200160006001600160a01b03168152602001606081525090565b604080516001808252818301909252600091816020015b6040805180820190915260008082526020820152815260200190600190039081610f765790505090506040518060400160405280866001600160a01b031681526020018581525081600081518110610fd057610fd0611a4b565b60209081029190910101526040805160a081019091526001600160a01b03891660c08201528060e0810160405160208183030381529060405281526020018888604051602001611021929190611a61565b6040516020818303038152906040528152602001828152602001846001600160a01b031681526020016110b2604051806040016040528062030d408152602001600015158152506040805182516024820152602092830151151560448083019190915282518083039091018152606490910190915290810180516001600160e01b03166397a657c960e01b17905290565b905298975050505050505050565b806020015181604001518060200190518101906110dd919061160f565b6001600160401b03821660009081526007602052604090205460ff166111215760405163042784cf60e31b81526001600160401b0383166004820152602401610425565b6001600160a01b03811660009081526008602052604090205460ff16611165576040516368692cbb60e11b81526001600160a01b0382166004820152602401610425565b82516002556060830151805161118391602091810182019101611a7d565b6005906111909082611b41565b5082608001516000815181106111a8576111a8611a4b565b602002602001015160000151600360006101000a8154816001600160a01b0302191690836001600160a01b0316021790555082608001516000815181106111f1576111f1611a4b565b60200260200101516020015160048190555082602001516001600160401b031683600001517f90ec910a8f80bb04e184a806e2ae6f8786ef2ae898859a3180f953397edc1201856040015180602001905181019061124f919061160f565b86606001518060200190518101906112679190611a7d565b876080015160008151811061127e5761127e611a4b565b60200260200101516000015188608001516000815181106112a1576112a1611a4b565b6020026020010151602001516040516112bd9493929190611c00565b60405180910390a3505050565b336001600160a01b038216036113225760405162461bcd60e51b815260206004820152601760248201527f43616e6e6f74207472616e7366657220746f2073656c660000000000000000006044820152606401610425565b600180546001600160a01b0319166001600160a01b0383811691821790925560008054604051929316917fed8889f560326eb138920d842192f0eb3dd22b4f139c87a2c57538e05bae12789190a350565b60006020828403121561138557600080fd5b81356001600160e01b03198116811461139d57600080fd5b9392505050565b80356001600160401b03811681146113bb57600080fd5b919050565b6001600160a01b0381168114610a1a57600080fd5b60008060008060008060a087890312156113ee57600080fd5b6113f7876113a4565b95506020870135611407816113c0565b945060408701356001600160401b038082111561142357600080fd5b818901915089601f83011261143757600080fd5b81358181111561144657600080fd5b8a602082850101111561145857600080fd5b6020830196508095505050506060870135611472816113c0565b80925050608087013590509295509295509295565b60005b838110156114a257818101518382015260200161148a565b50506000910152565b600081518084526114c3816020860160208601611487565b601f01601f19169290920160200192915050565b8481526080602082015260006114f060808301866114ab565b6001600160a01b03949094166040830152506060015292915050565b6000806040838503121561151f57600080fd5b823561152a816113c0565b9150602083013561153a816113c0565b809150509250929050565b60006020828403121561155757600080fd5b61139d826113a4565b60006020828403121561157257600080fd5b813561139d816113c0565b60006020828403121561158f57600080fd5b81356001600160401b038111156115a557600080fd5b820160a0818503121561139d57600080fd5b8015158114610a1a57600080fd5b600080604083850312156115d857600080fd5b6115e1836113a4565b9150602083013561153a816115b7565b6000806040838503121561160457600080fd5b82356115e1816113c0565b60006020828403121561162157600080fd5b815161139d816113c0565b600060406001600160401b038516835260208181850152845160a08386015261165860e08601826114ab565b905081860151603f198087840301606088015261167583836114ab565b88860151888203830160808a01528051808352908601945060009350908501905b808410156116c857845180516001600160a01b0316835286015186830152938501936001939093019290860190611696565b5060608901516001600160a01b031660a08901526080890151888203830160c08a015295506116f781876114ab565b9a9950505050505050505050565b60006020828403121561171757600080fd5b5051919050565b60006020828403121561173057600080fd5b815161139d816115b7565b81835281816020850137506000828201602090810191909152601f909101601f19169091010190565b600060018060a01b03808a16835260c0602084015261178760c08401898b61173b565b968116604084015260608301959095525091909216608082015260a001529392505050565b600181811c908216806117c057607f821691505b6020821081036117e057634e487b7160e01b600052602260045260246000fd5b50919050565b634e487b7160e01b600052604160045260246000fd5b604080519081016001600160401b038111828210171561181e5761181e6117e6565b60405290565b60405160a081016001600160401b038111828210171561181e5761181e6117e6565b604051601f8201601f191681016001600160401b038111828210171561186e5761186e6117e6565b604052919050565b60006001600160401b0382111561188f5761188f6117e6565b50601f01601f191660200190565b600082601f8301126118ae57600080fd5b81356118c16118bc82611876565b611846565b8181528460208386010111156118d657600080fd5b816020850160208301376000918101602001919091529392505050565b600082601f83011261190457600080fd5b813560206001600160401b0382111561191f5761191f6117e6565b61192d818360051b01611846565b82815260069290921b8401810191818101908684111561194c57600080fd5b8286015b8481101561199457604081890312156119695760008081fd5b6119716117fc565b813561197c816113c0565b81528185013585820152835291830191604001611950565b509695505050505050565b600060a082360312156119b157600080fd5b6119b9611824565b823581526119c9602084016113a4565b602082015260408301356001600160401b03808211156119e857600080fd5b6119f43683870161189d565b60408401526060850135915080821115611a0d57600080fd5b611a193683870161189d565b60608401526080850135915080821115611a3257600080fd5b50611a3f368286016118f3565b60808301525092915050565b634e487b7160e01b600052603260045260246000fd5b602081526000611a7560208301848661173b565b949350505050565b600060208284031215611a8f57600080fd5b81516001600160401b03811115611aa557600080fd5b8201601f81018413611ab657600080fd5b8051611ac46118bc82611876565b818152856020838501011115611ad957600080fd5b611aea826020830160208601611487565b95945050505050565b601f82111561090f57600081815260208120601f850160051c81016020861015611b1a5750805b601f850160051c820191505b81811015611b3957828155600101611b26565b505050505050565b81516001600160401b03811115611b5a57611b5a6117e6565b611b6e81611b6884546117ac565b84611af3565b602080601f831160018114611ba35760008415611b8b5750858301515b600019600386901b1c1916600185901b178555611b39565b600085815260208120601f198616915b82811015611bd257888601518255948401946001909101908401611bb3565b5085821015611bf05787850151600019600388901b60f8161c191681555b5050505050600190811b01905550565b600060018060a01b03808716835260806020840152611c2260808401876114ab565b9416604083015250606001529291505056fea2646970667358221220f10b77c5ab4067fda35513fbfcd5cd4010266b33be95882b17f3c60bd53c0b1864736f6c63430008130033",
  "devdoc": {
    "kind": "dev",
    "methods": {
      "allowlistDestinationChain(uint64,bool)": {
        "details": "Updates the allowlist status of a destination chain for transactions.",
        "params": {
          "_destinationChainSelector": "The selector of the destination chain to be updated.",
          "allowed": "The allowlist status to be set for the destination chain."
        }
      },
      "allowlistSender(address,bool)": {
        "details": "Updates the allowlist status of a sender for transactions.",
        "params": {
          "_sender": "The address of the sender to be updated.",
          "allowed": "The allowlist status to be set for the sender."
        }
      },
      "allowlistSourceChain(uint64,bool)": {
        "details": "Updates the allowlist status of a source chain",
        "params": {
          "_sourceChainSelector": "The selector of the source chain to be updated.",
          "allowed": "The allowlist status to be set for the source chain."
        }
      },
      "ccipReceive((bytes32,uint64,bytes,bytes,(address,uint256)[]))": {
        "details": "Note ensure you check the msg.sender is the OffRampRouter",
        "params": {
          "message": "CCIP Message"
        }
      },
      "constructor": {
        "params": {
          "_link": "The address of the link contract.",
          "_router": "The address of the router contract."
        }
      },
      "getLastReceivedMessageDetails()": {
        "details": "This function retrieves the ID, text, token address, and token amount of the last received CCIP message.",
        "returns": {
          "messageId": "The ID of the last received CCIP message.",
          "text": "The text of the last received CCIP message.",
          "tokenAddress": "The address of the token in the last CCIP received message.",
          "tokenAmount": "The amount of the token in the last CCIP received message."
        }
      },
      "getRouter()": {
        "returns": {
          "_0": "i_router address"
        }
      },
      "sendMessagePayLINK(uint64,address,string,address,uint256)": {
        "details": "Assumes your contract has sufficient LINK to pay for CCIP fees.",
        "params": {
          "_amount": "token amount.",
          "_destinationChainSelector": "The identifier (aka selector) for the destination blockchain.",
          "_receiver": "The address of the recipient on the destination blockchain.",
          "_text": "The string data to be sent.",
          "_token": "token address."
        },
        "returns": {
          "messageId": "The ID of the CCIP message that was sent."
        }
      },
      "sendMessagePayNative(uint64,address,string,address,uint256)": {
        "details": "Assumes your contract has sufficient native gas like ETH on Ethereum or MATIC on Polygon.",
        "params": {
          "_amount": "token amount.",
          "_destinationChainSelector": "The identifier (aka selector) for the destination blockchain.",
          "_receiver": "The address of the recipient on the destination blockchain.",
          "_text": "The string data to be sent.",
          "_token": "token address."
        },
        "returns": {
          "messageId": "The ID of the CCIP message that was sent."
        }
      },
      "supportsInterface(bytes4)": {
        "params": {
          "interfaceId": "The interfaceId to check"
        },
        "returns": {
          "_0": "true if the interfaceId is supported"
        }
      },
      "withdraw(address)": {
        "details": "This function reverts if there are no funds to withdraw or if the transfer fails. It should only be callable by the owner of the contract.",
        "params": {
          "_beneficiary": "The address to which the Ether should be sent."
        }
      },
      "withdrawToken(address,address)": {
        "details": "This function reverts with a 'NothingToWithdraw' error if there are no tokens to withdraw.",
        "params": {
          "_beneficiary": "The address to which the tokens will be sent.",
          "_token": "The contract address of the ERC20 token to be withdrawn."
        }
      }
    },
    "title": "- A simple messenger contract for transferring/receiving tokens and data across chains.",
    "version": 1
  },
  "userdoc": {
    "kind": "user",
    "methods": {
      "acceptOwnership()": {
        "notice": "Allows an ownership transfer to be completed by the recipient."
      },
      "allowlistDestinationChain(uint64,bool)": {
        "notice": "This function can only be called by the owner."
      },
      "allowlistSender(address,bool)": {
        "notice": "This function can only be called by the owner."
      },
      "allowlistSourceChain(uint64,bool)": {
        "notice": "This function can only be called by the owner."
      },
      "ccipReceive((bytes32,uint64,bytes,bytes,(address,uint256)[]))": {
        "notice": "Called by the Router to deliver a message. If this reverts, any token transfers also revert. The message will move to a FAILED state and become available for manual execution."
      },
      "constructor": {
        "notice": "Constructor initializes the contract with the router address."
      },
      "getLastReceivedMessageDetails()": {
        "notice": "Returns the details of the last CCIP received message."
      },
      "getRouter()": {
        "notice": "Return the current router"
      },
      "owner()": {
        "notice": "Get the current owner"
      },
      "sendMessagePayLINK(uint64,address,string,address,uint256)": {
        "notice": "Sends data and transfer tokens to receiver on the destination chain.Pay for fees in LINK."
      },
      "sendMessagePayNative(uint64,address,string,address,uint256)": {
        "notice": "Sends data and transfer tokens to receiver on the destination chain.Pay for fees in native gas."
      },
      "supportsInterface(bytes4)": {
        "notice": "IERC165 supports an interfaceId"
      },
      "transferOwnership(address)": {
        "notice": "Allows an owner to begin transferring ownership to a new address, pending."
      },
      "withdraw(address)": {
        "notice": "Allows the contract owner to withdraw the entire balance of Ether from the contract."
      },
      "withdrawToken(address,address)": {
        "notice": "Allows the owner of the contract to withdraw all tokens of a specific ERC20 token."
      }
    },
    "version": 1
  },
  "storageLayout": {
    "storage": [
      {
        "astId": 27,
        "contract": "contracts/CCIP/ProgrammableTokenTransfers.sol:ProgrammableTokenTransfers",
        "label": "s_owner",
        "offset": 0,
        "slot": "0",
        "type": "t_address"
      },
      {
        "astId": 29,
        "contract": "contracts/CCIP/ProgrammableTokenTransfers.sol:ProgrammableTokenTransfers",
        "label": "s_pendingOwner",
        "offset": 0,
        "slot": "1",
        "type": "t_address"
      },
      {
        "astId": 2437,
        "contract": "contracts/CCIP/ProgrammableTokenTransfers.sol:ProgrammableTokenTransfers",
        "label": "s_lastReceivedMessageId",
        "offset": 0,
        "slot": "2",
        "type": "t_bytes32"
      },
      {
        "astId": 2439,
        "contract": "contracts/CCIP/ProgrammableTokenTransfers.sol:ProgrammableTokenTransfers",
        "label": "s_lastReceivedTokenAddress",
        "offset": 0,
        "slot": "3",
        "type": "t_address"
      },
      {
        "astId": 2441,
        "contract": "contracts/CCIP/ProgrammableTokenTransfers.sol:ProgrammableTokenTransfers",
        "label": "s_lastReceivedTokenAmount",
        "offset": 0,
        "slot": "4",
        "type": "t_uint256"
      },
      {
        "astId": 2443,
        "contract": "contracts/CCIP/ProgrammableTokenTransfers.sol:ProgrammableTokenTransfers",
        "label": "s_lastReceivedText",
        "offset": 0,
        "slot": "5",
        "type": "t_string_storage"
      },
      {
        "astId": 2447,
        "contract": "contracts/CCIP/ProgrammableTokenTransfers.sol:ProgrammableTokenTransfers",
        "label": "allowlistedDestinationChains",
        "offset": 0,
        "slot": "6",
        "type": "t_mapping(t_uint64,t_bool)"
      },
      {
        "astId": 2451,
        "contract": "contracts/CCIP/ProgrammableTokenTransfers.sol:ProgrammableTokenTransfers",
        "label": "allowlistedSourceChains",
        "offset": 0,
        "slot": "7",
        "type": "t_mapping(t_uint64,t_bool)"
      },
      {
        "astId": 2455,
        "contract": "contracts/CCIP/ProgrammableTokenTransfers.sol:ProgrammableTokenTransfers",
        "label": "allowlistedSenders",
        "offset": 0,
        "slot": "8",
        "type": "t_mapping(t_address,t_bool)"
      },
      {
        "astId": 2458,
        "contract": "contracts/CCIP/ProgrammableTokenTransfers.sol:ProgrammableTokenTransfers",
        "label": "s_linkToken",
        "offset": 0,
        "slot": "9",
        "type": "t_contract(IERC20)533"
      }
    ],
    "types": {
      "t_address": {
        "encoding": "inplace",
        "label": "address",
        "numberOfBytes": "20"
      },
      "t_bool": {
        "encoding": "inplace",
        "label": "bool",
        "numberOfBytes": "1"
      },
      "t_bytes32": {
        "encoding": "inplace",
        "label": "bytes32",
        "numberOfBytes": "32"
      },
      "t_contract(IERC20)533": {
        "encoding": "inplace",
        "label": "contract IERC20",
        "numberOfBytes": "20"
      },
      "t_mapping(t_address,t_bool)": {
        "encoding": "mapping",
        "key": "t_address",
        "label": "mapping(address => bool)",
        "numberOfBytes": "32",
        "value": "t_bool"
      },
      "t_mapping(t_uint64,t_bool)": {
        "encoding": "mapping",
        "key": "t_uint64",
        "label": "mapping(uint64 => bool)",
        "numberOfBytes": "32",
        "value": "t_bool"
      },
      "t_string_storage": {
        "encoding": "bytes",
        "label": "string",
        "numberOfBytes": "32"
      },
      "t_uint256": {
        "encoding": "inplace",
        "label": "uint256",
        "numberOfBytes": "32"
      },
      "t_uint64": {
        "encoding": "inplace",
        "label": "uint64",
        "numberOfBytes": "8"
      }
    }
  }
}