{
  "address": "0x23AF94f601B20bD4026C94cFAFc24494A2D7Fe79",
  "abi": [
    {
      "inputs": [
        {
          "internalType": "address",
          "name": "_router",
          "type": "address"
        },
        {
          "internalType": "address",
          "name": "_link",
          "type": "address"
        },
        {
          "internalType": "contract IERC6551Registry",
          "name": "_registry",
          "type": "address"
        },
        {
          "internalType": "address",
          "name": "_accountImplementation",
          "type": "address"
        },
        {
          "internalType": "contract ITokenAccess",
          "name": "_tokenContract",
          "type": "address"
        }
      ],
      "stateMutability": "nonpayable",
      "type": "constructor"
    },
    {
      "inputs": [
        {
          "internalType": "uint64",
          "name": "destinationChainSelector",
          "type": "uint64"
        }
      ],
      "name": "DestinationChainNotAllowed",
      "type": "error"
    },
    {
      "inputs": [
        {
          "internalType": "bytes",
          "name": "result",
          "type": "bytes"
        }
      ],
      "name": "ErrorInCall",
      "type": "error"
    },
    {
      "inputs": [
        {
          "internalType": "address",
          "name": "owner",
          "type": "address"
        },
        {
          "internalType": "address",
          "name": "target",
          "type": "address"
        },
        {
          "internalType": "uint256",
          "name": "value",
          "type": "uint256"
        }
      ],
      "name": "FailedToWithdrawEth",
      "type": "error"
    },
    {
      "inputs": [
        {
          "internalType": "address",
          "name": "router",
          "type": "address"
        }
      ],
      "name": "InvalidRouter",
      "type": "error"
    },
    {
      "inputs": [
        {
          "internalType": "uint256",
          "name": "currentBalance",
          "type": "uint256"
        },
        {
          "internalType": "uint256",
          "name": "calculatedFees",
          "type": "uint256"
        }
      ],
      "name": "NotEnoughBalance",
      "type": "error"
    },
    {
      "inputs": [],
      "name": "NothingToWithdraw",
      "type": "error"
    },
    {
      "inputs": [
        {
          "internalType": "address",
          "name": "sender",
          "type": "address"
        }
      ],
      "name": "SenderNotAllowed",
      "type": "error"
    },
    {
      "inputs": [
        {
          "internalType": "uint64",
          "name": "sourceChainSelector",
          "type": "uint64"
        }
      ],
      "name": "SourceChainNotAllowed",
      "type": "error"
    },
    {
      "anonymous": false,
      "inputs": [
        {
          "indexed": true,
          "internalType": "bytes32",
          "name": "messageId",
          "type": "bytes32"
        },
        {
          "indexed": true,
          "internalType": "uint64",
          "name": "sourceChainSelector",
          "type": "uint64"
        },
        {
          "indexed": false,
          "internalType": "address",
          "name": "sender",
          "type": "address"
        },
        {
          "indexed": false,
          "internalType": "bytes",
          "name": "text",
          "type": "bytes"
        },
        {
          "indexed": false,
          "internalType": "address",
          "name": "token",
          "type": "address"
        },
        {
          "indexed": false,
          "internalType": "uint256",
          "name": "tokenAmount",
          "type": "uint256"
        }
      ],
      "name": "MessageReceived",
      "type": "event"
    },
    {
      "anonymous": false,
      "inputs": [
        {
          "indexed": true,
          "internalType": "bytes32",
          "name": "messageId",
          "type": "bytes32"
        },
        {
          "components": [
            {
              "internalType": "uint64",
              "name": "destinationChainSelector",
              "type": "uint64"
            },
            {
              "internalType": "address",
              "name": "receiver",
              "type": "address"
            },
            {
              "internalType": "bytes",
              "name": "dataToSend",
              "type": "bytes"
            },
            {
              "internalType": "address",
              "name": "addressToExecute",
              "type": "address"
            },
            {
              "internalType": "uint256",
              "name": "valueToExecute",
              "type": "uint256"
            },
            {
              "internalType": "bytes",
              "name": "dataToExecute",
              "type": "bytes"
            },
            {
              "internalType": "address",
              "name": "token",
              "type": "address"
            },
            {
              "internalType": "uint256",
              "name": "amount",
              "type": "uint256"
            },
            {
              "internalType": "address",
              "name": "feeToken",
              "type": "address"
            },
            {
              "internalType": "uint256",
              "name": "gasLimit",
              "type": "uint256"
            }
          ],
          "indexed": false,
          "internalType": "struct TransshipmentWorker.MassageParam",
          "name": "massageParam",
          "type": "tuple"
        },
        {
          "indexed": false,
          "internalType": "uint256",
          "name": "fees",
          "type": "uint256"
        }
      ],
      "name": "MessageSent",
      "type": "event"
    },
    {
      "anonymous": false,
      "inputs": [
        {
          "indexed": true,
          "internalType": "address",
          "name": "from",
          "type": "address"
        },
        {
          "indexed": true,
          "internalType": "address",
          "name": "to",
          "type": "address"
        }
      ],
      "name": "OwnershipTransferRequested",
      "type": "event"
    },
    {
      "anonymous": false,
      "inputs": [
        {
          "indexed": true,
          "internalType": "address",
          "name": "from",
          "type": "address"
        },
        {
          "indexed": true,
          "internalType": "address",
          "name": "to",
          "type": "address"
        }
      ],
      "name": "OwnershipTransferred",
      "type": "event"
    },
    {
      "inputs": [],
      "name": "acceptOwnership",
      "outputs": [],
      "stateMutability": "nonpayable",
      "type": "function"
    },
    {
      "inputs": [],
      "name": "accountImplementation",
      "outputs": [
        {
          "internalType": "address",
          "name": "",
          "type": "address"
        }
      ],
      "stateMutability": "view",
      "type": "function"
    },
    {
      "inputs": [
        {
          "internalType": "uint64",
          "name": "_destinationChainSelector",
          "type": "uint64"
        },
        {
          "internalType": "bool",
          "name": "allowed",
          "type": "bool"
        }
      ],
      "name": "allowlistDestinationChain",
      "outputs": [],
      "stateMutability": "nonpayable",
      "type": "function"
    },
    {
      "inputs": [
        {
          "internalType": "address",
          "name": "_sender",
          "type": "address"
        },
        {
          "internalType": "bool",
          "name": "allowed",
          "type": "bool"
        }
      ],
      "name": "allowlistSender",
      "outputs": [],
      "stateMutability": "nonpayable",
      "type": "function"
    },
    {
      "inputs": [
        {
          "internalType": "uint64",
          "name": "_sourceChainSelector",
          "type": "uint64"
        },
        {
          "internalType": "bool",
          "name": "allowed",
          "type": "bool"
        }
      ],
      "name": "allowlistSourceChain",
      "outputs": [],
      "stateMutability": "nonpayable",
      "type": "function"
    },
    {
      "inputs": [
        {
          "internalType": "uint64",
          "name": "",
          "type": "uint64"
        }
      ],
      "name": "allowlistedDestinationChains",
      "outputs": [
        {
          "internalType": "bool",
          "name": "",
          "type": "bool"
        }
      ],
      "stateMutability": "view",
      "type": "function"
    },
    {
      "inputs": [
        {
          "internalType": "address",
          "name": "",
          "type": "address"
        }
      ],
      "name": "allowlistedSenders",
      "outputs": [
        {
          "internalType": "bool",
          "name": "",
          "type": "bool"
        }
      ],
      "stateMutability": "view",
      "type": "function"
    },
    {
      "inputs": [
        {
          "internalType": "uint64",
          "name": "",
          "type": "uint64"
        }
      ],
      "name": "allowlistedSourceChains",
      "outputs": [
        {
          "internalType": "bool",
          "name": "",
          "type": "bool"
        }
      ],
      "stateMutability": "view",
      "type": "function"
    },
    {
      "inputs": [
        {
          "components": [
            {
              "internalType": "bytes32",
              "name": "messageId",
              "type": "bytes32"
            },
            {
              "internalType": "uint64",
              "name": "sourceChainSelector",
              "type": "uint64"
            },
            {
              "internalType": "bytes",
              "name": "sender",
              "type": "bytes"
            },
            {
              "internalType": "bytes",
              "name": "data",
              "type": "bytes"
            },
            {
              "components": [
                {
                  "internalType": "address",
                  "name": "token",
                  "type": "address"
                },
                {
                  "internalType": "uint256",
                  "name": "amount",
                  "type": "uint256"
                }
              ],
              "internalType": "struct Client.EVMTokenAmount[]",
              "name": "destTokenAmounts",
              "type": "tuple[]"
            }
          ],
          "internalType": "struct Client.Any2EVMMessage",
          "name": "message",
          "type": "tuple"
        }
      ],
      "name": "ccipReceive",
      "outputs": [],
      "stateMutability": "nonpayable",
      "type": "function"
    },
    {
      "inputs": [],
      "name": "createAccount",
      "outputs": [
        {
          "internalType": "address",
          "name": "accountAddress",
          "type": "address"
        }
      ],
      "stateMutability": "nonpayable",
      "type": "function"
    },
    {
      "inputs": [
        {
          "internalType": "address",
          "name": "target",
          "type": "address"
        },
        {
          "internalType": "uint256",
          "name": "value",
          "type": "uint256"
        },
        {
          "internalType": "bytes",
          "name": "data",
          "type": "bytes"
        }
      ],
      "name": "execute",
      "outputs": [
        {
          "internalType": "bytes",
          "name": "result",
          "type": "bytes"
        }
      ],
      "stateMutability": "nonpayable",
      "type": "function"
    },
    {
      "inputs": [
        {
          "internalType": "address",
          "name": "userAddress",
          "type": "address"
        }
      ],
      "name": "getAccountAddress",
      "outputs": [
        {
          "internalType": "address",
          "name": "",
          "type": "address"
        }
      ],
      "stateMutability": "view",
      "type": "function"
    },
    {
      "inputs": [],
      "name": "getLastReceivedMessageDetails",
      "outputs": [
        {
          "internalType": "bytes32",
          "name": "messageId",
          "type": "bytes32"
        },
        {
          "internalType": "bytes",
          "name": "data",
          "type": "bytes"
        },
        {
          "internalType": "address",
          "name": "tokenAddress",
          "type": "address"
        },
        {
          "internalType": "uint256",
          "name": "tokenAmount",
          "type": "uint256"
        }
      ],
      "stateMutability": "view",
      "type": "function"
    },
    {
      "inputs": [],
      "name": "getRouter",
      "outputs": [
        {
          "internalType": "address",
          "name": "",
          "type": "address"
        }
      ],
      "stateMutability": "view",
      "type": "function"
    },
    {
      "inputs": [],
      "name": "multicall",
      "outputs": [
        {
          "internalType": "bool",
          "name": "",
          "type": "bool"
        }
      ],
      "stateMutability": "nonpayable",
      "type": "function"
    },
    {
      "inputs": [],
      "name": "owner",
      "outputs": [
        {
          "internalType": "address",
          "name": "",
          "type": "address"
        }
      ],
      "stateMutability": "view",
      "type": "function"
    },
    {
      "inputs": [],
      "name": "registry",
      "outputs": [
        {
          "internalType": "contract IERC6551Registry",
          "name": "",
          "type": "address"
        }
      ],
      "stateMutability": "view",
      "type": "function"
    },
    {
      "inputs": [],
      "name": "s_lastReceivedData",
      "outputs": [
        {
          "internalType": "bytes",
          "name": "",
          "type": "bytes"
        }
      ],
      "stateMutability": "view",
      "type": "function"
    },
    {
      "inputs": [],
      "name": "s_lastReceivedMessageId",
      "outputs": [
        {
          "internalType": "bytes32",
          "name": "",
          "type": "bytes32"
        }
      ],
      "stateMutability": "view",
      "type": "function"
    },
    {
      "inputs": [],
      "name": "s_lastReceivedTokenAddress",
      "outputs": [
        {
          "internalType": "address",
          "name": "",
          "type": "address"
        }
      ],
      "stateMutability": "view",
      "type": "function"
    },
    {
      "inputs": [],
      "name": "s_lastReceivedTokenAmount",
      "outputs": [
        {
          "internalType": "uint256",
          "name": "",
          "type": "uint256"
        }
      ],
      "stateMutability": "view",
      "type": "function"
    },
    {
      "inputs": [
        {
          "components": [
            {
              "internalType": "uint64",
              "name": "destinationChainSelector",
              "type": "uint64"
            },
            {
              "internalType": "address",
              "name": "receiver",
              "type": "address"
            },
            {
              "internalType": "bytes",
              "name": "dataToSend",
              "type": "bytes"
            },
            {
              "internalType": "address",
              "name": "addressToExecute",
              "type": "address"
            },
            {
              "internalType": "uint256",
              "name": "valueToExecute",
              "type": "uint256"
            },
            {
              "internalType": "bytes",
              "name": "dataToExecute",
              "type": "bytes"
            },
            {
              "internalType": "address",
              "name": "token",
              "type": "address"
            },
            {
              "internalType": "uint256",
              "name": "amount",
              "type": "uint256"
            },
            {
              "internalType": "address",
              "name": "feeToken",
              "type": "address"
            },
            {
              "internalType": "uint256",
              "name": "gasLimit",
              "type": "uint256"
            }
          ],
          "internalType": "struct TransshipmentWorker.MassageParam",
          "name": "massageParam",
          "type": "tuple"
        }
      ],
      "name": "sendMassage",
      "outputs": [],
      "stateMutability": "nonpayable",
      "type": "function"
    },
    {
      "inputs": [
        {
          "components": [
            {
              "internalType": "uint64",
              "name": "destinationChainSelector",
              "type": "uint64"
            },
            {
              "internalType": "address",
              "name": "receiver",
              "type": "address"
            },
            {
              "internalType": "bytes",
              "name": "dataToSend",
              "type": "bytes"
            },
            {
              "internalType": "address",
              "name": "addressToExecute",
              "type": "address"
            },
            {
              "internalType": "uint256",
              "name": "valueToExecute",
              "type": "uint256"
            },
            {
              "internalType": "bytes",
              "name": "dataToExecute",
              "type": "bytes"
            },
            {
              "internalType": "address",
              "name": "token",
              "type": "address"
            },
            {
              "internalType": "uint256",
              "name": "amount",
              "type": "uint256"
            },
            {
              "internalType": "address",
              "name": "feeToken",
              "type": "address"
            },
            {
              "internalType": "uint256",
              "name": "gasLimit",
              "type": "uint256"
            }
          ],
          "internalType": "struct TransshipmentWorker.MassageParam[]",
          "name": "massageParams",
          "type": "tuple[]"
        }
      ],
      "name": "sendUniversalMassage",
      "outputs": [],
      "stateMutability": "nonpayable",
      "type": "function"
    },
    {
      "inputs": [
        {
          "internalType": "bytes4",
          "name": "interfaceId",
          "type": "bytes4"
        }
      ],
      "name": "supportsInterface",
      "outputs": [
        {
          "internalType": "bool",
          "name": "",
          "type": "bool"
        }
      ],
      "stateMutability": "pure",
      "type": "function"
    },
    {
      "inputs": [],
      "name": "tokenContract",
      "outputs": [
        {
          "internalType": "contract ITokenAccess",
          "name": "",
          "type": "address"
        }
      ],
      "stateMutability": "view",
      "type": "function"
    },
    {
      "inputs": [
        {
          "internalType": "address",
          "name": "to",
          "type": "address"
        }
      ],
      "name": "transferOwnership",
      "outputs": [],
      "stateMutability": "nonpayable",
      "type": "function"
    },
    {
      "inputs": [
        {
          "internalType": "address",
          "name": "_beneficiary",
          "type": "address"
        }
      ],
      "name": "withdraw",
      "outputs": [],
      "stateMutability": "nonpayable",
      "type": "function"
    },
    {
      "inputs": [
        {
          "internalType": "address",
          "name": "_beneficiary",
          "type": "address"
        },
        {
          "internalType": "address",
          "name": "_token",
          "type": "address"
        }
      ],
      "name": "withdrawToken",
      "outputs": [],
      "stateMutability": "nonpayable",
      "type": "function"
    },
    {
      "stateMutability": "payable",
      "type": "receive"
    }
  ],
  "transactionHash": "0x5561dc3dac82414bc4ff9f3e053807ad30a7b1b2c57d5040e8febccde38d17d3",
  "args": [
    "0x70499c328e1E2a3c41108bd3730F6670a44595D1",
    "0x326C977E6efc84E512bB9C30f76E30c160eD06FB",
    "0x000000006551c19487814612e58FE06813775758",
    "0xeB532Bf8cA6a3a15B4961739A4BF890d04389276",
    "0x7151e0e14C0933C134714c96c8B1e680A61776D0"
  ],
  "numDeployments": 9,
  "solcInputHash": "314ac815bebd9826d9613c7a33d80b31",
  "bytecode": "0x60a06040523480156200001157600080fd5b506040516200256538038062002565833981016040819052620000349162000218565b848433806000846001600160a01b0381166200006b576040516335fdcccd60e21b8152600060048201526024015b60405180910390fd5b6001600160a01b039081166080528216620000c95760405162461bcd60e51b815260206004820152601860248201527f43616e6e6f7420736574206f776e657220746f207a65726f0000000000000000604482015260640162000062565b600080546001600160a01b0319166001600160a01b0384811691909117909155811615620000fc57620000fc8162000154565b5050600980546001600160a01b03199081166001600160a01b0394851617909155600a805482169784169790971790965550600b805486169482169490941790935550600c8054909316911617905550620002989050565b336001600160a01b03821603620001ae5760405162461bcd60e51b815260206004820152601760248201527f43616e6e6f74207472616e7366657220746f2073656c66000000000000000000604482015260640162000062565b600180546001600160a01b0319166001600160a01b0383811691821790925560008054604051929316917fed8889f560326eb138920d842192f0eb3dd22b4f139c87a2c57538e05bae12789190a350565b6001600160a01b03811681146200021557600080fd5b50565b600080600080600060a086880312156200023157600080fd5b85516200023e81620001ff565b60208701519095506200025181620001ff565b60408701519094506200026481620001ff565b60608701519093506200027781620001ff565b60808701519092506200028a81620001ff565b809150509295509295909350565b6080516122aa620002bb6000396000818161047601526109b101526122aa6000f3fe6080604052600436106101bb5760003560e01c80637b103999116100ec578063b61d27f61161008a578063eab5b02c11610064578063eab5b02c14610521578063eb9cf32214610541578063eea8236114610561578063f2fde38b1461057657600080fd5b8063b61d27f6146104be578063bec0c86b146104eb578063db04fa491461050157600080fd5b806396d3b83d116100c657806396d3b83d146104325780639dca362f14610452578063b0f479a114610467578063b5605b2e1461049a57600080fd5b80637b103999146103d457806385572ffb146103f45780638da5cb5b1461041457600080fd5b80634030d521116101595780635872fe45116101335780635872fe451461033f5780636159ada11461035f57806375c67c661461038f57806379ba5097146103bf57600080fd5b80634030d521146102cf57806351cff8d9146102ff57806355a373d61461031f57600080fd5b80631cdcf85a116101955780631cdcf85a14610254578063263596a5146102685780633aeac4e11461028d5780633e1c97ae146102af57600080fd5b806301ffc9a7146101c75780630b33e1cf146101fc57806311464fbe1461023457600080fd5b366101c257005b600080fd5b3480156101d357600080fd5b506101e76101e23660046116a6565b610596565b60405190151581526020015b60405180910390f35b34801561020857600080fd5b5060035461021c906001600160a01b031681565b6040516001600160a01b0390911681526020016101f3565b34801561024057600080fd5b50600b5461021c906001600160a01b031681565b34801561026057600080fd5b5060006101e7565b34801561027457600080fd5b5061027d6105cd565b6040516101f39493929190611720565b34801561029957600080fd5b506102ad6102a836600461177a565b61068c565b005b3480156102bb57600080fd5b506102ad6102ca3660046117b3565b61079b565b3480156102db57600080fd5b506101e76102ea36600461180e565b60076020526000908152604090205460ff1681565b34801561030b57600080fd5b506102ad61031a36600461182b565b6107a8565b34801561032b57600080fd5b50600c5461021c906001600160a01b031681565b34801561034b57600080fd5b5061021c61035a36600461182b565b610869565b34801561036b57600080fd5b506101e761037a36600461182b565b60086020526000908152604090205460ff1681565b34801561039b57600080fd5b506101e76103aa36600461180e565b60066020526000908152604090205460ff1681565b3480156103cb57600080fd5b506102ad6108fc565b3480156103e057600080fd5b50600a5461021c906001600160a01b031681565b34801561040057600080fd5b506102ad61040f366004611848565b6109a6565b34801561042057600080fd5b506000546001600160a01b031661021c565b34801561043e57600080fd5b506102ad61044d366004611890565b610a05565b34801561045e57600080fd5b5061021c610a38565b34801561047357600080fd5b507f000000000000000000000000000000000000000000000000000000000000000061021c565b3480156104a657600080fd5b506104b060025481565b6040519081526020016101f3565b3480156104ca57600080fd5b506104de6104d93660046119ee565b610a9c565b6040516101f39190611a46565b3480156104f757600080fd5b506104b060045481565b34801561050d57600080fd5b506102ad61051c366004611890565b610b28565b34801561052d57600080fd5b506102ad61053c366004611a59565b610b5b565b34801561054d57600080fd5b506102ad61055c366004611a77565b610b8e565b34801561056d57600080fd5b506104de610bd8565b34801561058257600080fd5b506102ad61059136600461182b565b610c66565b60006001600160e01b031982166385572ffb60e01b14806105c757506001600160e01b031982166301ffc9a760e01b145b92915050565b600060606000806002546005600360009054906101000a90046001600160a01b03166004548280546105fe90611aeb565b80601f016020809104026020016040519081016040528092919081815260200182805461062a90611aeb565b80156106775780601f1061064c57610100808354040283529160200191610677565b820191906000526020600020905b81548152906001019060200180831161065a57829003601f168201915b50505050509250935093509350935090919293565b610694610c77565b6040516370a0823160e01b81523060048201526000906001600160a01b038316906370a0823190602401602060405180830381865afa1580156106db573d6000803e3d6000fd5b505050506040513d601f19601f820116820180604052508101906106ff9190611b1f565b90508060000361072257604051630686827b60e51b815260040160405180910390fd5b60405163a9059cbb60e01b81526001600160a01b0384811660048301526024820183905283169063a9059cbb906044016020604051808303816000875af1158015610771573d6000803e3d6000fd5b505050506040513d601f19601f820116820180604052508101906107959190611b38565b50505050565b6107a481610ccc565b5050565b6107b0610c77565b4760008190036107d357604051630686827b60e51b815260040160405180910390fd5b6000826001600160a01b03168260405160006040518083038185875af1925050503d8060008114610820576040519150601f19603f3d011682016040523d82523d6000602084013e610825565b606091505b505090508061086457604051639d11f56360e01b81523360048201526001600160a01b0384166024820152604481018390526064015b60405180910390fd5b505050565b604080516001600160a01b03838116602080840191909152835180840382018152838501948590528051910120600b543060788501526f5af43d82803e903d91602b57fd5bf3ff60648501529091166054830152733d602d80600a3d3981f3363d3d373d3d3d363d73909252609881018290526037604c82012060b88201526055608390910120600091905b9392505050565b6001546001600160a01b0316331461094f5760405162461bcd60e51b815260206004820152601660248201527526bab9ba10313290383937b837b9b2b21037bbb732b960511b604482015260640161085b565b60008054336001600160a01b0319808316821784556001805490911690556040516001600160a01b0390921692909183917f8be0079c531659141344cd1fd0a4f28419497f9722a3daafe3b4186f6b6457e091a350565b336001600160a01b037f000000000000000000000000000000000000000000000000000000000000000016146109f1576040516335fdcccd60e21b815233600482015260240161085b565b610a026109fd82611c01565b6111ce565b50565b610a0d610c77565b6001600160401b03919091166000908152600660205260409020805460ff1916911515919091179055565b600b5460408051336020820152600092610a74926001600160a01b0390911691016040516020818303038152906040528051906020012061136b565b6001600160a01b0381166000908152600d60205260409020805460ff19166001179055919050565b60606000846001600160a01b03168484604051610ab99190611cad565b60006040518083038185875af1925050503d8060008114610af6576040519150601f19603f3d011682016040523d82523d6000602084013e610afb565b606091505b509250905080610b205781604051630c3691ed60e41b815260040161085b9190611a46565b509392505050565b610b30610c77565b6001600160401b03919091166000908152600760205260409020805460ff1916911515919091179055565b610b63610c77565b6001600160a01b03919091166000908152600860205260409020805460ff1916911515919091179055565b60005b8181101561086457610bc5838383818110610bae57610bae611cc9565b9050602002810190610bc09190611cdf565b610ccc565b5080610bd081611cf6565b915050610b91565b60058054610be590611aeb565b80601f0160208091040260200160405190810160405280929190818152602001828054610c1190611aeb565b8015610c5e5780601f10610c3357610100808354040283529160200191610c5e565b820191906000526020600020905b815481529060010190602001808311610c4157829003601f168201915b505050505081565b610c6e610c77565b610a0281611408565b6000546001600160a01b03163314610cca5760405162461bcd60e51b815260206004820152601660248201527527b7363c9031b0b63630b1363290313c9037bbb732b960511b604482015260640161085b565b565b6000610cdb602083018361180e565b6000610cef6101208501610100860161182b565b6001600160a01b03161480610d2857506009546001600160a01b0316610d1d6101208501610100860161182b565b6001600160a01b0316145b610d745760405162461bcd60e51b815260206004820152601760248201527f57726f6e672066656520746f6b656e2061646472657373000000000000000000604482015260640161085b565b6000610dc8610d89604086016020870161182b565b610d966040870187611d1d565b610da660e0890160c08a0161182b565b60e0890135610dbd6101208b016101008c0161182b565b8a61012001356114b1565b90506000306001600160a01b031663b0f479a16040518163ffffffff1660e01b8152600401602060405180830381865afa158015610e0a573d6000803e3d6000fd5b505050506040513d601f19601f82011682018060405250810190610e2e9190611d75565b905060006001600160a01b0382166320487ded610e4e602089018961180e565b856040518363ffffffff1660e01b8152600401610e6c929190611d92565b602060405180830381865afa158015610e89573d6000803e3d6000fd5b505050506040513d601f19601f82011682018060405250810190610ead9190611b1f565b90506000610ec36101208801610100890161182b565b6001600160a01b0316600003610f045747821115610efd57604051634787a10360e11b81524760048201526024810183905260440161085b565b5080611080565b6009546040516370a0823160e01b81523060048201526001600160a01b03909116906370a0823190602401602060405180830381865afa158015610f4c573d6000803e3d6000fd5b505050506040513d601f19601f82011682018060405250810190610f709190611b1f565b821115611007576009546040516370a0823160e01b81523060048201526001600160a01b03909116906370a0823190602401602060405180830381865afa158015610fbf573d6000803e3d6000fd5b505050506040513d601f19601f82011682018060405250810190610fe39190611b1f565b604051634787a10360e11b815260048101919091526024810183905260440161085b565b60095460405163095ea7b360e01b81526001600160a01b038581166004830152602482018590529091169063095ea7b3906044016020604051808303816000875af115801561105a573d6000803e3d6000fd5b505050506040513d601f19601f8201168201806040525081019061107e9190611b38565b505b61109060e0880160c0890161182b565b60405163095ea7b360e01b81526001600160a01b03858116600483015260e08a01356024830152919091169063095ea7b3906044016020604051808303816000875af11580156110e4573d6000803e3d6000fd5b505050506040513d601f19601f820116820180604052508101906111089190611b38565b506001600160a01b0383166396f4e9f98261112660208b018b61180e565b876040518463ffffffff1660e01b8152600401611144929190611d92565b60206040518083038185885af1158015611162573d6000803e3d6000fd5b50505050506040513d601f19601f820116820180604052508101906111879190611b1f565b9550857fed4e05800ee76a1cf5c649a0ec4133b0a0623d66d032e46129fb268501a6317488846040516111bb929190611ed9565b60405180910390a2505050505b50919050565b806020015181604001518060200190518101906111eb9190611d75565b600083606001518060200190518101906112059190612047565b90506112148160a0015161164f565b611234576000611231826060015183608001518460a00151610a9c565b50505b611241816040015161164f565b6112b657806040015180602001905181019061125d9190612047565b604051631f0e4bd760e11b81529091503090633e1c97ae90611283908490600401612153565b600060405180830381600087803b15801561129d57600080fd5b505af11580156112b1573d6000803e3d6000fd5b505050505b83602001516001600160401b031684600001517fefd22b16d02120210ec8687e3528d040d94b6509ca1a54ecc33b9e6790abfe2486604001518060200190518101906113029190611d75565b8760600151886080015160008151811061131e5761131e611cc9565b602002602001015160000151896080015160008151811061134157611341611cc9565b60200260200101516020015160405161135d9493929190612240565b60405180910390a350505050565b6000763d602d80600a3d3981f3363d3d373d3d3d363d730000008360601b60e81c176000526e5af43d82803e903d91602b57fd5bf38360781b1760205281603760096000f590506001600160a01b0381166105c75760405162461bcd60e51b815260206004820152601760248201527f455243313136373a2063726561746532206661696c6564000000000000000000604482015260640161085b565b336001600160a01b038216036114605760405162461bcd60e51b815260206004820152601760248201527f43616e6e6f74207472616e7366657220746f2073656c66000000000000000000604482015260640161085b565b600180546001600160a01b0319166001600160a01b0383811691821790925560008054604051929316917fed8889f560326eb138920d842192f0eb3dd22b4f139c87a2c57538e05bae12789190a350565b6114ec6040518060a0016040528060608152602001606081526020016060815260200160006001600160a01b03168152602001606081525090565b604080516001808252818301909252600091816020015b60408051808201909152600080825260208201528152602001906001900390816115035790505090506040518060400160405280876001600160a01b03168152602001868152508160008151811061155d5761155d611cc9565b60209081029190910101526040805160a081019091526001600160a01b038a1660c08201528060e08101604051602081830303815290604052815260200189898080601f016020809104026020016040519081016040528093929190818152602001838380828437600092018290525093855250505060208083018590526001600160a01b038816604080850191909152805180820182528881528201928352805160248101899052925115156044808501919091528151808503909101815260649093019052810180516001600160e01b03166397a657c960e01b1790526060909101529998505050505050505050565b6000805b825181101561169d5782818151811061166e5761166e611cc9565b01602001516001600160f81b0319161561168b5750600092915050565b8061169581611cf6565b915050611653565b50600192915050565b6000602082840312156116b857600080fd5b81356001600160e01b0319811681146108f557600080fd5b60005b838110156116eb5781810151838201526020016116d3565b50506000910152565b6000815180845261170c8160208601602086016116d0565b601f01601f19169290920160200192915050565b84815260806020820152600061173960808301866116f4565b6001600160a01b03949094166040830152506060015292915050565b6001600160a01b0381168114610a0257600080fd5b803561177581611755565b919050565b6000806040838503121561178d57600080fd5b823561179881611755565b915060208301356117a881611755565b809150509250929050565b6000602082840312156117c557600080fd5b81356001600160401b038111156117db57600080fd5b820161014081850312156108f557600080fd5b6001600160401b0381168114610a0257600080fd5b8035611775816117ee565b60006020828403121561182057600080fd5b81356108f5816117ee565b60006020828403121561183d57600080fd5b81356108f581611755565b60006020828403121561185a57600080fd5b81356001600160401b0381111561187057600080fd5b820160a081850312156108f557600080fd5b8015158114610a0257600080fd5b600080604083850312156118a357600080fd5b82356118ae816117ee565b915060208301356117a881611882565b634e487b7160e01b600052604160045260246000fd5b604080519081016001600160401b03811182821017156118f6576118f66118be565b60405290565b60405160a081016001600160401b03811182821017156118f6576118f66118be565b60405161014081016001600160401b03811182821017156118f6576118f66118be565b604051601f8201601f191681016001600160401b0381118282101715611969576119696118be565b604052919050565b60006001600160401b0382111561198a5761198a6118be565b50601f01601f191660200190565b600082601f8301126119a957600080fd5b81356119bc6119b782611971565b611941565b8181528460208386010111156119d157600080fd5b816020850160208301376000918101602001919091529392505050565b600080600060608486031215611a0357600080fd5b8335611a0e81611755565b92506020840135915060408401356001600160401b03811115611a3057600080fd5b611a3c86828701611998565b9150509250925092565b6020815260006108f560208301846116f4565b60008060408385031215611a6c57600080fd5b82356118ae81611755565b60008060208385031215611a8a57600080fd5b82356001600160401b0380821115611aa157600080fd5b818501915085601f830112611ab557600080fd5b813581811115611ac457600080fd5b8660208260051b8501011115611ad957600080fd5b60209290920196919550909350505050565b600181811c90821680611aff57607f821691505b6020821081036111c857634e487b7160e01b600052602260045260246000fd5b600060208284031215611b3157600080fd5b5051919050565b600060208284031215611b4a57600080fd5b81516108f581611882565b600082601f830112611b6657600080fd5b813560206001600160401b03821115611b8157611b816118be565b611b8f818360051b01611941565b82815260069290921b84018101918181019086841115611bae57600080fd5b8286015b84811015611bf65760408189031215611bcb5760008081fd5b611bd36118d4565b8135611bde81611755565b81528185013585820152835291830191604001611bb2565b509695505050505050565b600060a08236031215611c1357600080fd5b611c1b6118fc565b82358152611c2b60208401611803565b602082015260408301356001600160401b0380821115611c4a57600080fd5b611c5636838701611998565b60408401526060850135915080821115611c6f57600080fd5b611c7b36838701611998565b60608401526080850135915080821115611c9457600080fd5b50611ca136828601611b55565b60808301525092915050565b60008251611cbf8184602087016116d0565b9190910192915050565b634e487b7160e01b600052603260045260246000fd5b6000823561013e19833603018112611cbf57600080fd5b600060018201611d1657634e487b7160e01b600052601160045260246000fd5b5060010190565b6000808335601e19843603018112611d3457600080fd5b8301803591506001600160401b03821115611d4e57600080fd5b602001915036819003821315611d6357600080fd5b9250929050565b805161177581611755565b600060208284031215611d8757600080fd5b81516108f581611755565b600060406001600160401b038516835260208181850152845160a083860152611dbe60e08601826116f4565b905081860151603f1980878403016060880152611ddb83836116f4565b88860151888203830160808a01528051808352908601945060009350908501905b80841015611e2e57845180516001600160a01b0316835286015186830152938501936001939093019290860190611dfc565b5060608901516001600160a01b031660a08901526080890151888203830160c08a01529550611e5d81876116f4565b9a9950505050505050505050565b6000808335601e19843603018112611e8257600080fd5b83016020810192503590506001600160401b03811115611ea157600080fd5b803603821315611d6357600080fd5b81835281816020850137506000828201602090810191909152601f909101601f19169091010190565b60408152611efa60408201611eed85611803565b6001600160401b03169052565b6000611f086020850161176a565b6001600160a01b03166060830152611f236040850185611e6b565b610140806080860152611f3b61018086018385611eb0565b9250611f496060880161176a565b6001600160a01b03811660a08701529150608087013560c0860152611f7160a0880188611e6b565b868503603f190160e08801529250611f8a848483611eb0565b935050611f9960c0880161176a565b9150610100611fb2818701846001600160a01b03169052565b610120925060e088013583870152611fcb81890161176a565b6001600160a01b031691860191909152509490940135610160830152506020015290565b8051611775816117ee565b600082601f83011261200b57600080fd5b81516120196119b782611971565b81815284602083860101111561202e57600080fd5b61203f8260208301602087016116d0565b949350505050565b60006020828403121561205957600080fd5b81516001600160401b038082111561207057600080fd5b90830190610140828603121561208557600080fd5b61208d61191e565b61209683611fef565b81526120a460208401611d6a565b60208201526040830151828111156120bb57600080fd5b6120c787828601611ffa565b6040830152506120d960608401611d6a565b60608201526080830151608082015260a0830151828111156120fa57600080fd5b61210687828601611ffa565b60a08301525061211860c08401611d6a565b60c082015260e083015160e08201526101009150612137828401611d6a565b9181019190915261012091820151918101919091529392505050565b6020815261216d6020820183516001600160401b03169052565b6000602083015161218960408401826001600160a01b03169052565b5060408301516101408060608501526121a66101608501836116f4565b915060608501516121c260808601826001600160a01b03169052565b50608085015160a085015260a0850151601f198584030160c08601526121e883826116f4565b92505060c085015161220560e08601826001600160a01b03169052565b5060e08501516101008581019190915285015161012061222f818701836001600160a01b03169052565b959095015193019290925250919050565b600060018060a01b0380871683526080602084015261226260808401876116f4565b9416604083015250606001529291505056fea264697066735822122058ee514236530c6e6b1980396dec549b9ae0d5256160c588e511ee06bc29c14b64736f6c63430008130033",
  "devdoc": {
    "kind": "dev",
    "methods": {
      "allowlistDestinationChain(uint64,bool)": {
        "details": "Updates the allowlist status of a destination chain for transactions.",
        "params": {
          "_destinationChainSelector": "The selector of the destination chain to be updated.",
          "allowed": "The allowlist status to be set for the destination chain."
        }
      },
      "allowlistSender(address,bool)": {
        "details": "Updates the allowlist status of a sender for transactions.",
        "params": {
          "_sender": "The address of the sender to be updated.",
          "allowed": "The allowlist status to be set for the sender."
        }
      },
      "allowlistSourceChain(uint64,bool)": {
        "details": "Updates the allowlist status of a source chain",
        "params": {
          "_sourceChainSelector": "The selector of the source chain to be updated.",
          "allowed": "The allowlist status to be set for the source chain."
        }
      },
      "ccipReceive((bytes32,uint64,bytes,bytes,(address,uint256)[]))": {
        "details": "Note ensure you check the msg.sender is the OffRampRouter",
        "params": {
          "message": "CCIP Message"
        }
      },
      "getLastReceivedMessageDetails()": {
        "details": "This function retrieves the ID, text, token address, and token amount of the last received CCIP message.",
        "returns": {
          "data": "The data of the last received CCIP message.",
          "messageId": "The ID of the last received CCIP message.",
          "tokenAddress": "The address of the token in the last CCIP received message.",
          "tokenAmount": "The amount of the token in the last CCIP received message."
        }
      },
      "getRouter()": {
        "returns": {
          "_0": "i_router address"
        }
      },
      "supportsInterface(bytes4)": {
        "params": {
          "interfaceId": "The interfaceId to check"
        },
        "returns": {
          "_0": "true if the interfaceId is supported"
        }
      },
      "withdraw(address)": {
        "details": "This function reverts if there are no funds to withdraw or if the transfer fails. It should only be callable by the owner of the contract.",
        "params": {
          "_beneficiary": "The address to which the Ether should be sent."
        }
      },
      "withdrawToken(address,address)": {
        "details": "This function reverts with a 'NothingToWithdraw' error if there are no tokens to withdraw.",
        "params": {
          "_beneficiary": "The address to which the tokens will be sent.",
          "_token": "The contract address of the ERC20 token to be withdrawn."
        }
      }
    },
    "version": 1
  },
  "userdoc": {
    "errors": {
      "ErrorInCall(bytes)": [
        {
          "notice": "fails when call is wrong."
        }
      ]
    },
    "kind": "user",
    "methods": {
      "acceptOwnership()": {
        "notice": "Allows an ownership transfer to be completed by the recipient."
      },
      "allowlistDestinationChain(uint64,bool)": {
        "notice": "This function can only be called by the owner."
      },
      "allowlistSender(address,bool)": {
        "notice": "This function can only be called by the owner."
      },
      "allowlistSourceChain(uint64,bool)": {
        "notice": "This function can only be called by the owner."
      },
      "ccipReceive((bytes32,uint64,bytes,bytes,(address,uint256)[]))": {
        "notice": "Called by the Router to deliver a message. If this reverts, any token transfers also revert. The message will move to a FAILED state and become available for manual execution."
      },
      "getLastReceivedMessageDetails()": {
        "notice": "Returns the details of the last CCIP received message."
      },
      "getRouter()": {
        "notice": "Return the current router"
      },
      "owner()": {
        "notice": "Get the current owner"
      },
      "supportsInterface(bytes4)": {
        "notice": "IERC165 supports an interfaceId"
      },
      "transferOwnership(address)": {
        "notice": "Allows an owner to begin transferring ownership to a new address, pending."
      },
      "withdraw(address)": {
        "notice": "Allows the contract owner to withdraw the entire balance of Ether from the contract."
      },
      "withdrawToken(address,address)": {
        "notice": "Allows the owner of the contract to withdraw all tokens of a specific ERC20 token."
      }
    },
    "version": 1
  },
  "storageLayout": {
    "storage": [
      {
        "astId": 27,
        "contract": "contracts/Transshipment.sol:Transshipment",
        "label": "s_owner",
        "offset": 0,
        "slot": "0",
        "type": "t_address"
      },
      {
        "astId": 29,
        "contract": "contracts/Transshipment.sol:Transshipment",
        "label": "s_pendingOwner",
        "offset": 0,
        "slot": "1",
        "type": "t_address"
      },
      {
        "astId": 1357,
        "contract": "contracts/Transshipment.sol:Transshipment",
        "label": "s_lastReceivedMessageId",
        "offset": 0,
        "slot": "2",
        "type": "t_bytes32"
      },
      {
        "astId": 1359,
        "contract": "contracts/Transshipment.sol:Transshipment",
        "label": "s_lastReceivedTokenAddress",
        "offset": 0,
        "slot": "3",
        "type": "t_address"
      },
      {
        "astId": 1361,
        "contract": "contracts/Transshipment.sol:Transshipment",
        "label": "s_lastReceivedTokenAmount",
        "offset": 0,
        "slot": "4",
        "type": "t_uint256"
      },
      {
        "astId": 1363,
        "contract": "contracts/Transshipment.sol:Transshipment",
        "label": "s_lastReceivedData",
        "offset": 0,
        "slot": "5",
        "type": "t_bytes_storage"
      },
      {
        "astId": 1367,
        "contract": "contracts/Transshipment.sol:Transshipment",
        "label": "allowlistedDestinationChains",
        "offset": 0,
        "slot": "6",
        "type": "t_mapping(t_uint64,t_bool)"
      },
      {
        "astId": 1371,
        "contract": "contracts/Transshipment.sol:Transshipment",
        "label": "allowlistedSourceChains",
        "offset": 0,
        "slot": "7",
        "type": "t_mapping(t_uint64,t_bool)"
      },
      {
        "astId": 1375,
        "contract": "contracts/Transshipment.sol:Transshipment",
        "label": "allowlistedSenders",
        "offset": 0,
        "slot": "8",
        "type": "t_mapping(t_address,t_bool)"
      },
      {
        "astId": 1378,
        "contract": "contracts/Transshipment.sol:Transshipment",
        "label": "s_linkToken",
        "offset": 0,
        "slot": "9",
        "type": "t_contract(IERC20)533"
      },
      {
        "astId": 814,
        "contract": "contracts/Transshipment.sol:Transshipment",
        "label": "registry",
        "offset": 0,
        "slot": "10",
        "type": "t_contract(IERC6551Registry)1722"
      },
      {
        "astId": 816,
        "contract": "contracts/Transshipment.sol:Transshipment",
        "label": "accountImplementation",
        "offset": 0,
        "slot": "11",
        "type": "t_address"
      },
      {
        "astId": 819,
        "contract": "contracts/Transshipment.sol:Transshipment",
        "label": "tokenContract",
        "offset": 0,
        "slot": "12",
        "type": "t_contract(ITokenAccess)1736"
      },
      {
        "astId": 823,
        "contract": "contracts/Transshipment.sol:Transshipment",
        "label": "accounts",
        "offset": 0,
        "slot": "13",
        "type": "t_mapping(t_address,t_bool)"
      }
    ],
    "types": {
      "t_address": {
        "encoding": "inplace",
        "label": "address",
        "numberOfBytes": "20"
      },
      "t_bool": {
        "encoding": "inplace",
        "label": "bool",
        "numberOfBytes": "1"
      },
      "t_bytes32": {
        "encoding": "inplace",
        "label": "bytes32",
        "numberOfBytes": "32"
      },
      "t_bytes_storage": {
        "encoding": "bytes",
        "label": "bytes",
        "numberOfBytes": "32"
      },
      "t_contract(IERC20)533": {
        "encoding": "inplace",
        "label": "contract IERC20",
        "numberOfBytes": "20"
      },
      "t_contract(IERC6551Registry)1722": {
        "encoding": "inplace",
        "label": "contract IERC6551Registry",
        "numberOfBytes": "20"
      },
      "t_contract(ITokenAccess)1736": {
        "encoding": "inplace",
        "label": "contract ITokenAccess",
        "numberOfBytes": "20"
      },
      "t_mapping(t_address,t_bool)": {
        "encoding": "mapping",
        "key": "t_address",
        "label": "mapping(address => bool)",
        "numberOfBytes": "32",
        "value": "t_bool"
      },
      "t_mapping(t_uint64,t_bool)": {
        "encoding": "mapping",
        "key": "t_uint64",
        "label": "mapping(uint64 => bool)",
        "numberOfBytes": "32",
        "value": "t_bool"
      },
      "t_uint256": {
        "encoding": "inplace",
        "label": "uint256",
        "numberOfBytes": "32"
      },
      "t_uint64": {
        "encoding": "inplace",
        "label": "uint64",
        "numberOfBytes": "8"
      }
    }
  }
}