{
  "address": "0x973eb82B75Be09B901Dd8295f4105b3141032fDd",
  "abi": [
    {
      "inputs": [
        {
          "internalType": "address",
          "name": "_router",
          "type": "address"
        },
        {
          "internalType": "address",
          "name": "_link",
          "type": "address"
        },
        {
          "internalType": "contract IERC6551Registry",
          "name": "_registry",
          "type": "address"
        },
        {
          "internalType": "address",
          "name": "_accountImplementation",
          "type": "address"
        },
        {
          "internalType": "bytes32",
          "name": "_salt",
          "type": "bytes32"
        },
        {
          "internalType": "contract ITokenAccess",
          "name": "_tokenContract",
          "type": "address"
        }
      ],
      "stateMutability": "nonpayable",
      "type": "constructor"
    },
    {
      "inputs": [
        {
          "internalType": "uint64",
          "name": "destinationChainSelector",
          "type": "uint64"
        }
      ],
      "name": "DestinationChainNotAllowed",
      "type": "error"
    },
    {
      "inputs": [
        {
          "internalType": "bytes",
          "name": "result",
          "type": "bytes"
        }
      ],
      "name": "ErrorInCall",
      "type": "error"
    },
    {
      "inputs": [
        {
          "internalType": "address",
          "name": "owner",
          "type": "address"
        },
        {
          "internalType": "address",
          "name": "target",
          "type": "address"
        },
        {
          "internalType": "uint256",
          "name": "value",
          "type": "uint256"
        }
      ],
      "name": "FailedToWithdrawEth",
      "type": "error"
    },
    {
      "inputs": [
        {
          "internalType": "address",
          "name": "router",
          "type": "address"
        }
      ],
      "name": "InvalidRouter",
      "type": "error"
    },
    {
      "inputs": [
        {
          "internalType": "uint256",
          "name": "currentBalance",
          "type": "uint256"
        },
        {
          "internalType": "uint256",
          "name": "calculatedFees",
          "type": "uint256"
        }
      ],
      "name": "NotEnoughBalance",
      "type": "error"
    },
    {
      "inputs": [],
      "name": "NothingToWithdraw",
      "type": "error"
    },
    {
      "inputs": [
        {
          "internalType": "address",
          "name": "sender",
          "type": "address"
        }
      ],
      "name": "SenderNotAllowed",
      "type": "error"
    },
    {
      "inputs": [
        {
          "internalType": "uint64",
          "name": "sourceChainSelector",
          "type": "uint64"
        }
      ],
      "name": "SourceChainNotAllowed",
      "type": "error"
    },
    {
      "anonymous": false,
      "inputs": [
        {
          "indexed": true,
          "internalType": "bytes32",
          "name": "messageId",
          "type": "bytes32"
        },
        {
          "indexed": true,
          "internalType": "uint64",
          "name": "sourceChainSelector",
          "type": "uint64"
        },
        {
          "indexed": false,
          "internalType": "address",
          "name": "sender",
          "type": "address"
        },
        {
          "indexed": false,
          "internalType": "bytes",
          "name": "text",
          "type": "bytes"
        },
        {
          "indexed": false,
          "internalType": "address",
          "name": "token",
          "type": "address"
        },
        {
          "indexed": false,
          "internalType": "uint256",
          "name": "tokenAmount",
          "type": "uint256"
        }
      ],
      "name": "MessageReceived",
      "type": "event"
    },
    {
      "anonymous": false,
      "inputs": [
        {
          "indexed": true,
          "internalType": "bytes32",
          "name": "messageId",
          "type": "bytes32"
        },
        {
          "components": [
            {
              "internalType": "uint64",
              "name": "destinationChainSelector",
              "type": "uint64"
            },
            {
              "internalType": "address",
              "name": "receiver",
              "type": "address"
            },
            {
              "internalType": "bytes",
              "name": "dataToSend",
              "type": "bytes"
            },
            {
              "internalType": "address",
              "name": "addressToExecute",
              "type": "address"
            },
            {
              "internalType": "uint256",
              "name": "valueToExecute",
              "type": "uint256"
            },
            {
              "internalType": "bytes",
              "name": "dataToExecute",
              "type": "bytes"
            },
            {
              "internalType": "address",
              "name": "token",
              "type": "address"
            },
            {
              "internalType": "uint256",
              "name": "amount",
              "type": "uint256"
            },
            {
              "internalType": "address",
              "name": "feeToken",
              "type": "address"
            },
            {
              "internalType": "uint256",
              "name": "gasLimit",
              "type": "uint256"
            }
          ],
          "indexed": false,
          "internalType": "struct TransshipmentWorker.MassageParam",
          "name": "massageParam",
          "type": "tuple"
        },
        {
          "indexed": false,
          "internalType": "uint256",
          "name": "fees",
          "type": "uint256"
        }
      ],
      "name": "MessageSent",
      "type": "event"
    },
    {
      "anonymous": false,
      "inputs": [
        {
          "indexed": true,
          "internalType": "address",
          "name": "from",
          "type": "address"
        },
        {
          "indexed": true,
          "internalType": "address",
          "name": "to",
          "type": "address"
        }
      ],
      "name": "OwnershipTransferRequested",
      "type": "event"
    },
    {
      "anonymous": false,
      "inputs": [
        {
          "indexed": true,
          "internalType": "address",
          "name": "from",
          "type": "address"
        },
        {
          "indexed": true,
          "internalType": "address",
          "name": "to",
          "type": "address"
        }
      ],
      "name": "OwnershipTransferred",
      "type": "event"
    },
    {
      "inputs": [],
      "name": "acceptOwnership",
      "outputs": [],
      "stateMutability": "nonpayable",
      "type": "function"
    },
    {
      "inputs": [],
      "name": "accountImplementation",
      "outputs": [
        {
          "internalType": "address",
          "name": "",
          "type": "address"
        }
      ],
      "stateMutability": "view",
      "type": "function"
    },
    {
      "inputs": [
        {
          "internalType": "uint64",
          "name": "_destinationChainSelector",
          "type": "uint64"
        },
        {
          "internalType": "bool",
          "name": "allowed",
          "type": "bool"
        }
      ],
      "name": "allowlistDestinationChain",
      "outputs": [],
      "stateMutability": "nonpayable",
      "type": "function"
    },
    {
      "inputs": [
        {
          "internalType": "address",
          "name": "_sender",
          "type": "address"
        },
        {
          "internalType": "bool",
          "name": "allowed",
          "type": "bool"
        }
      ],
      "name": "allowlistSender",
      "outputs": [],
      "stateMutability": "nonpayable",
      "type": "function"
    },
    {
      "inputs": [
        {
          "internalType": "uint64",
          "name": "_sourceChainSelector",
          "type": "uint64"
        },
        {
          "internalType": "bool",
          "name": "allowed",
          "type": "bool"
        }
      ],
      "name": "allowlistSourceChain",
      "outputs": [],
      "stateMutability": "nonpayable",
      "type": "function"
    },
    {
      "inputs": [
        {
          "internalType": "uint64",
          "name": "",
          "type": "uint64"
        }
      ],
      "name": "allowlistedDestinationChains",
      "outputs": [
        {
          "internalType": "bool",
          "name": "",
          "type": "bool"
        }
      ],
      "stateMutability": "view",
      "type": "function"
    },
    {
      "inputs": [
        {
          "internalType": "address",
          "name": "",
          "type": "address"
        }
      ],
      "name": "allowlistedSenders",
      "outputs": [
        {
          "internalType": "bool",
          "name": "",
          "type": "bool"
        }
      ],
      "stateMutability": "view",
      "type": "function"
    },
    {
      "inputs": [
        {
          "internalType": "uint64",
          "name": "",
          "type": "uint64"
        }
      ],
      "name": "allowlistedSourceChains",
      "outputs": [
        {
          "internalType": "bool",
          "name": "",
          "type": "bool"
        }
      ],
      "stateMutability": "view",
      "type": "function"
    },
    {
      "inputs": [
        {
          "components": [
            {
              "internalType": "bytes32",
              "name": "messageId",
              "type": "bytes32"
            },
            {
              "internalType": "uint64",
              "name": "sourceChainSelector",
              "type": "uint64"
            },
            {
              "internalType": "bytes",
              "name": "sender",
              "type": "bytes"
            },
            {
              "internalType": "bytes",
              "name": "data",
              "type": "bytes"
            },
            {
              "components": [
                {
                  "internalType": "address",
                  "name": "token",
                  "type": "address"
                },
                {
                  "internalType": "uint256",
                  "name": "amount",
                  "type": "uint256"
                }
              ],
              "internalType": "struct Client.EVMTokenAmount[]",
              "name": "destTokenAmounts",
              "type": "tuple[]"
            }
          ],
          "internalType": "struct Client.Any2EVMMessage",
          "name": "message",
          "type": "tuple"
        }
      ],
      "name": "ccipReceive",
      "outputs": [],
      "stateMutability": "nonpayable",
      "type": "function"
    },
    {
      "inputs": [],
      "name": "createAccount",
      "outputs": [
        {
          "internalType": "address",
          "name": "accountAddress",
          "type": "address"
        }
      ],
      "stateMutability": "nonpayable",
      "type": "function"
    },
    {
      "inputs": [
        {
          "internalType": "address",
          "name": "target",
          "type": "address"
        },
        {
          "internalType": "uint256",
          "name": "value",
          "type": "uint256"
        },
        {
          "internalType": "bytes",
          "name": "data",
          "type": "bytes"
        }
      ],
      "name": "execute",
      "outputs": [
        {
          "internalType": "bytes",
          "name": "result",
          "type": "bytes"
        }
      ],
      "stateMutability": "nonpayable",
      "type": "function"
    },
    {
      "inputs": [],
      "name": "getLastReceivedMessageDetails",
      "outputs": [
        {
          "internalType": "bytes32",
          "name": "messageId",
          "type": "bytes32"
        },
        {
          "internalType": "bytes",
          "name": "data",
          "type": "bytes"
        },
        {
          "internalType": "address",
          "name": "tokenAddress",
          "type": "address"
        },
        {
          "internalType": "uint256",
          "name": "tokenAmount",
          "type": "uint256"
        }
      ],
      "stateMutability": "view",
      "type": "function"
    },
    {
      "inputs": [],
      "name": "getRouter",
      "outputs": [
        {
          "internalType": "address",
          "name": "",
          "type": "address"
        }
      ],
      "stateMutability": "view",
      "type": "function"
    },
    {
      "inputs": [
        {
          "internalType": "bytes",
          "name": "data",
          "type": "bytes"
        }
      ],
      "name": "isBytesEmpty",
      "outputs": [
        {
          "internalType": "bool",
          "name": "",
          "type": "bool"
        }
      ],
      "stateMutability": "pure",
      "type": "function"
    },
    {
      "inputs": [],
      "name": "multicall",
      "outputs": [
        {
          "internalType": "bool",
          "name": "",
          "type": "bool"
        }
      ],
      "stateMutability": "nonpayable",
      "type": "function"
    },
    {
      "inputs": [],
      "name": "owner",
      "outputs": [
        {
          "internalType": "address",
          "name": "",
          "type": "address"
        }
      ],
      "stateMutability": "view",
      "type": "function"
    },
    {
      "inputs": [],
      "name": "registry",
      "outputs": [
        {
          "internalType": "contract IERC6551Registry",
          "name": "",
          "type": "address"
        }
      ],
      "stateMutability": "view",
      "type": "function"
    },
    {
      "inputs": [],
      "name": "s_lastReceivedData",
      "outputs": [
        {
          "internalType": "bytes",
          "name": "",
          "type": "bytes"
        }
      ],
      "stateMutability": "view",
      "type": "function"
    },
    {
      "inputs": [],
      "name": "s_lastReceivedMessageId",
      "outputs": [
        {
          "internalType": "bytes32",
          "name": "",
          "type": "bytes32"
        }
      ],
      "stateMutability": "view",
      "type": "function"
    },
    {
      "inputs": [],
      "name": "s_lastReceivedTokenAddress",
      "outputs": [
        {
          "internalType": "address",
          "name": "",
          "type": "address"
        }
      ],
      "stateMutability": "view",
      "type": "function"
    },
    {
      "inputs": [],
      "name": "s_lastReceivedTokenAmount",
      "outputs": [
        {
          "internalType": "uint256",
          "name": "",
          "type": "uint256"
        }
      ],
      "stateMutability": "view",
      "type": "function"
    },
    {
      "inputs": [],
      "name": "salt",
      "outputs": [
        {
          "internalType": "bytes32",
          "name": "",
          "type": "bytes32"
        }
      ],
      "stateMutability": "view",
      "type": "function"
    },
    {
      "inputs": [
        {
          "components": [
            {
              "internalType": "uint64",
              "name": "destinationChainSelector",
              "type": "uint64"
            },
            {
              "internalType": "address",
              "name": "receiver",
              "type": "address"
            },
            {
              "internalType": "bytes",
              "name": "dataToSend",
              "type": "bytes"
            },
            {
              "internalType": "address",
              "name": "addressToExecute",
              "type": "address"
            },
            {
              "internalType": "uint256",
              "name": "valueToExecute",
              "type": "uint256"
            },
            {
              "internalType": "bytes",
              "name": "dataToExecute",
              "type": "bytes"
            },
            {
              "internalType": "address",
              "name": "token",
              "type": "address"
            },
            {
              "internalType": "uint256",
              "name": "amount",
              "type": "uint256"
            },
            {
              "internalType": "address",
              "name": "feeToken",
              "type": "address"
            },
            {
              "internalType": "uint256",
              "name": "gasLimit",
              "type": "uint256"
            }
          ],
          "internalType": "struct TransshipmentWorker.MassageParam",
          "name": "massageParam",
          "type": "tuple"
        }
      ],
      "name": "sendMassage",
      "outputs": [],
      "stateMutability": "nonpayable",
      "type": "function"
    },
    {
      "inputs": [
        {
          "components": [
            {
              "internalType": "uint64",
              "name": "destinationChainSelector",
              "type": "uint64"
            },
            {
              "internalType": "address",
              "name": "receiver",
              "type": "address"
            },
            {
              "internalType": "bytes",
              "name": "dataToSend",
              "type": "bytes"
            },
            {
              "internalType": "address",
              "name": "addressToExecute",
              "type": "address"
            },
            {
              "internalType": "uint256",
              "name": "valueToExecute",
              "type": "uint256"
            },
            {
              "internalType": "bytes",
              "name": "dataToExecute",
              "type": "bytes"
            },
            {
              "internalType": "address",
              "name": "token",
              "type": "address"
            },
            {
              "internalType": "uint256",
              "name": "amount",
              "type": "uint256"
            },
            {
              "internalType": "address",
              "name": "feeToken",
              "type": "address"
            },
            {
              "internalType": "uint256",
              "name": "gasLimit",
              "type": "uint256"
            }
          ],
          "internalType": "struct TransshipmentWorker.MassageParam[]",
          "name": "massageParams",
          "type": "tuple[]"
        }
      ],
      "name": "sendUniversalMassage",
      "outputs": [],
      "stateMutability": "nonpayable",
      "type": "function"
    },
    {
      "inputs": [
        {
          "internalType": "bytes4",
          "name": "interfaceId",
          "type": "bytes4"
        }
      ],
      "name": "supportsInterface",
      "outputs": [
        {
          "internalType": "bool",
          "name": "",
          "type": "bool"
        }
      ],
      "stateMutability": "pure",
      "type": "function"
    },
    {
      "inputs": [],
      "name": "tokenContract",
      "outputs": [
        {
          "internalType": "contract ITokenAccess",
          "name": "",
          "type": "address"
        }
      ],
      "stateMutability": "view",
      "type": "function"
    },
    {
      "inputs": [
        {
          "internalType": "address",
          "name": "to",
          "type": "address"
        }
      ],
      "name": "transferOwnership",
      "outputs": [],
      "stateMutability": "nonpayable",
      "type": "function"
    },
    {
      "inputs": [
        {
          "internalType": "address",
          "name": "_beneficiary",
          "type": "address"
        }
      ],
      "name": "withdraw",
      "outputs": [],
      "stateMutability": "nonpayable",
      "type": "function"
    },
    {
      "inputs": [
        {
          "internalType": "address",
          "name": "_beneficiary",
          "type": "address"
        },
        {
          "internalType": "address",
          "name": "_token",
          "type": "address"
        }
      ],
      "name": "withdrawToken",
      "outputs": [],
      "stateMutability": "nonpayable",
      "type": "function"
    },
    {
      "stateMutability": "payable",
      "type": "receive"
    }
  ],
  "transactionHash": "0x60a00b563f6d3372c64ba517c28f56dc91b4727c5fbcf597f3e51d7cde71c3a2",
  "args": [
    "0x9527E2d01A3064ef6b50c1Da1C0cC523803BCFF2",
    "0x84b9B910527Ad5C03A9Ca831909E21e236EA7b06",
    "0x0000000000000000000000000000000000000000",
    "0x0000000000000000000000000000000000000000",
    "0x0000000000000000000000000000000000000000000000000000000000000000",
    "0x0000000000000000000000000000000000000000"
  ],
  "numDeployments": 4,
  "solcInputHash": "ce1c44e787c893d5ca04449cc9db3750",
  "bytecode": "0x60a06040523480156200001157600080fd5b50604051620026023803806200260283398101604081905262000034916200021e565b858533806000846001600160a01b0381166200006b576040516335fdcccd60e21b8152600060048201526024015b60405180910390fd5b6001600160a01b039081166080528216620000c95760405162461bcd60e51b815260206004820152601860248201527f43616e6e6f7420736574206f776e657220746f207a65726f0000000000000000604482015260640162000062565b600080546001600160a01b0319166001600160a01b0384811691909117909155811615620000fc57620000fc816200015a565b5050600980546001600160a01b03199081166001600160a01b0394851617909155600a805482169884169890981790975550600b805487169582169590951790945550600c91909155600d8054909316911617905550620002a69050565b336001600160a01b03821603620001b45760405162461bcd60e51b815260206004820152601760248201527f43616e6e6f74207472616e7366657220746f2073656c66000000000000000000604482015260640162000062565b600180546001600160a01b0319166001600160a01b0383811691821790925560008054604051929316917fed8889f560326eb138920d842192f0eb3dd22b4f139c87a2c57538e05bae12789190a350565b6001600160a01b03811681146200021b57600080fd5b50565b60008060008060008060c087890312156200023857600080fd5b8651620002458162000205565b6020880151909650620002588162000205565b60408801519095506200026b8162000205565b60608801519094506200027e8162000205565b608088015160a08901519194509250620002988162000205565b809150509295509295509295565b608051612339620002c960003960008181610481015261099601526123396000f3fe6080604052600436106101c65760003560e01c80637b103999116100f7578063b61d27f611610095578063eab5b02c11610064578063eab5b02c14610542578063eb9cf32214610562578063eea8236114610582578063f2fde38b1461059757600080fd5b8063b61d27f6146104c9578063bec0c86b146104f6578063bfa0b1331461050c578063db04fa491461052257600080fd5b806396d3b83d116100d157806396d3b83d1461043d5780639dca362f1461045d578063b0f479a114610472578063b5605b2e146104a557600080fd5b80637b103999146103df57806385572ffb146103ff5780638da5cb5b1461041f57600080fd5b80634030d521116101645780636159ada11161013e5780636159ada11461034a578063737643221461037a57806375c67c661461039a57806379ba5097146103ca57600080fd5b80634030d521146102da57806351cff8d91461030a57806355a373d61461032a57600080fd5b80631cdcf85a116101a05780631cdcf85a1461025f578063263596a5146102735780633aeac4e1146102985780633e1c97ae146102ba57600080fd5b806301ffc9a7146101d25780630b33e1cf1461020757806311464fbe1461023f57600080fd5b366101cd57005b600080fd5b3480156101de57600080fd5b506101f26101ed3660046116fa565b6105b7565b60405190151581526020015b60405180910390f35b34801561021357600080fd5b50600354610227906001600160a01b031681565b6040516001600160a01b0390911681526020016101fe565b34801561024b57600080fd5b50600b54610227906001600160a01b031681565b34801561026b57600080fd5b5060006101f2565b34801561027f57600080fd5b506102886105ee565b6040516101fe949392919061177b565b3480156102a457600080fd5b506102b86102b33660046117d5565b6106ad565b005b3480156102c657600080fd5b506102b86102d536600461180e565b6107bc565b3480156102e657600080fd5b506101f26102f5366004611869565b60076020526000908152604090205460ff1681565b34801561031657600080fd5b506102b8610325366004611886565b6107c9565b34801561033657600080fd5b50600d54610227906001600160a01b031681565b34801561035657600080fd5b506101f2610365366004611886565b60086020526000908152604090205460ff1681565b34801561038657600080fd5b506101f26103953660046119d3565b61088a565b3480156103a657600080fd5b506101f26103b5366004611869565b60066020526000908152604090205460ff1681565b3480156103d657600080fd5b506102b86108e1565b3480156103eb57600080fd5b50600a54610227906001600160a01b031681565b34801561040b57600080fd5b506102b861041a366004611a0f565b61098b565b34801561042b57600080fd5b506000546001600160a01b0316610227565b34801561044957600080fd5b506102b8610458366004611a57565b6109ea565b34801561046957600080fd5b50610227610a1d565b34801561047e57600080fd5b507f0000000000000000000000000000000000000000000000000000000000000000610227565b3480156104b157600080fd5b506104bb60025481565b6040519081526020016101fe565b3480156104d557600080fd5b506104e96104e4366004611a85565b610be4565b6040516101fe9190611add565b34801561050257600080fd5b506104bb60045481565b34801561051857600080fd5b506104bb600c5481565b34801561052e57600080fd5b506102b861053d366004611a57565b610c70565b34801561054e57600080fd5b506102b861055d366004611af0565b610ca3565b34801561056e57600080fd5b506102b861057d366004611b0e565b610cd6565b34801561058e57600080fd5b506104e9610d20565b3480156105a357600080fd5b506102b86105b2366004611886565b610dae565b60006001600160e01b031982166385572ffb60e01b14806105e857506001600160e01b031982166301ffc9a760e01b145b92915050565b600060606000806002546005600360009054906101000a90046001600160a01b031660045482805461061f90611b82565b80601f016020809104026020016040519081016040528092919081815260200182805461064b90611b82565b80156106985780601f1061066d57610100808354040283529160200191610698565b820191906000526020600020905b81548152906001019060200180831161067b57829003601f168201915b50505050509250935093509350935090919293565b6106b5610dbf565b6040516370a0823160e01b81523060048201526000906001600160a01b038316906370a0823190602401602060405180830381865afa1580156106fc573d6000803e3d6000fd5b505050506040513d601f19601f820116820180604052508101906107209190611bb6565b90508060000361074357604051630686827b60e51b815260040160405180910390fd5b60405163a9059cbb60e01b81526001600160a01b0384811660048301526024820183905283169063a9059cbb906044016020604051808303816000875af1158015610792573d6000803e3d6000fd5b505050506040513d601f19601f820116820180604052508101906107b69190611bcf565b50505050565b6107c581610e14565b5050565b6107d1610dbf565b4760008190036107f457604051630686827b60e51b815260040160405180910390fd5b6000826001600160a01b03168260405160006040518083038185875af1925050503d8060008114610841576040519150601f19603f3d011682016040523d82523d6000602084013e610846565b606091505b505090508061088557604051639d11f56360e01b81523360048201526001600160a01b0384166024820152604481018390526064015b60405180910390fd5b505050565b6000805b82518110156108d8578281815181106108a9576108a9611bec565b01602001516001600160f81b031916156108c65750600092915050565b806108d081611c02565b91505061088e565b50600192915050565b6001546001600160a01b031633146109345760405162461bcd60e51b815260206004820152601660248201527526bab9ba10313290383937b837b9b2b21037bbb732b960511b604482015260640161087c565b60008054336001600160a01b0319808316821784556001805490911690556040516001600160a01b0390921692909183917f8be0079c531659141344cd1fd0a4f28419497f9722a3daafe3b4186f6b6457e091a350565b336001600160a01b037f000000000000000000000000000000000000000000000000000000000000000016146109d6576040516335fdcccd60e21b815233600482015260240161087c565b6109e76109e282611cd5565b611316565b50565b6109f2610dbf565b6001600160401b03919091166000908152600660205260409020805460ff1916911515919091179055565b6040516bffffffffffffffffffffffff193360601b166020820152466034820152600090819060540160408051808303601f19018152908290528051602090910120600d546340c10f1960e01b8352336004840152602483018290529092506000916001600160a01b03909116906340c10f19906044016020604051808303816000875af1158015610ab3573d6000803e3d6000fd5b505050506040513d601f19601f82011682018060405250810190610ad79190611bcf565b905080610b265760405162461bcd60e51b815260206004820152601760248201527f4163636f756e74206372656174696f6e206661696c6564000000000000000000604482015260640161087c565b600a54600b54600c54600d54604051638a54c52f60e01b81526001600160a01b03938416600482015260248101929092524660448301528216606482015260848101859052911690638a54c52f9060a4016020604051808303816000875af1158015610b96573d6000803e3d6000fd5b505050506040513d601f19601f82011682018060405250810190610bba9190611d8c565b6001600160a01b0381166000908152600e60205260409020805460ff191660011790559392505050565b60606000846001600160a01b03168484604051610c019190611da9565b60006040518083038185875af1925050503d8060008114610c3e576040519150601f19603f3d011682016040523d82523d6000602084013e610c43565b606091505b509250905080610c685781604051630c3691ed60e41b815260040161087c9190611add565b509392505050565b610c78610dbf565b6001600160401b03919091166000908152600760205260409020805460ff1916911515919091179055565b610cab610dbf565b6001600160a01b03919091166000908152600860205260409020805460ff1916911515919091179055565b60005b8181101561088557610d0d838383818110610cf657610cf6611bec565b9050602002810190610d089190611dc5565b610e14565b5080610d1881611c02565b915050610cd9565b60058054610d2d90611b82565b80601f0160208091040260200160405190810160405280929190818152602001828054610d5990611b82565b8015610da65780601f10610d7b57610100808354040283529160200191610da6565b820191906000526020600020905b815481529060010190602001808311610d8957829003601f168201915b505050505081565b610db6610dbf565b6109e7816114b3565b6000546001600160a01b03163314610e125760405162461bcd60e51b815260206004820152601660248201527527b7363c9031b0b63630b1363290313c9037bbb732b960511b604482015260640161087c565b565b6000610e236020830183611869565b6000610e3761012085016101008601611886565b6001600160a01b03161480610e7057506009546001600160a01b0316610e6561012085016101008601611886565b6001600160a01b0316145b610ebc5760405162461bcd60e51b815260206004820152601760248201527f57726f6e672066656520746f6b656e2061646472657373000000000000000000604482015260640161087c565b6000610f10610ed16040860160208701611886565b610ede6040870187611ddc565b610eee60e0890160c08a01611886565b60e0890135610f056101208b016101008c01611886565b8a610120013561155c565b90506000306001600160a01b031663b0f479a16040518163ffffffff1660e01b8152600401602060405180830381865afa158015610f52573d6000803e3d6000fd5b505050506040513d601f19601f82011682018060405250810190610f769190611d8c565b905060006001600160a01b0382166320487ded610f966020890189611869565b856040518363ffffffff1660e01b8152600401610fb4929190611e29565b602060405180830381865afa158015610fd1573d6000803e3d6000fd5b505050506040513d601f19601f82011682018060405250810190610ff59190611bb6565b9050600061100b61012088016101008901611886565b6001600160a01b031660000361104c574782111561104557604051634787a10360e11b81524760048201526024810183905260440161087c565b50806111c8565b6009546040516370a0823160e01b81523060048201526001600160a01b03909116906370a0823190602401602060405180830381865afa158015611094573d6000803e3d6000fd5b505050506040513d601f19601f820116820180604052508101906110b89190611bb6565b82111561114f576009546040516370a0823160e01b81523060048201526001600160a01b03909116906370a0823190602401602060405180830381865afa158015611107573d6000803e3d6000fd5b505050506040513d601f19601f8201168201806040525081019061112b9190611bb6565b604051634787a10360e11b815260048101919091526024810183905260440161087c565b60095460405163095ea7b360e01b81526001600160a01b038581166004830152602482018590529091169063095ea7b3906044016020604051808303816000875af11580156111a2573d6000803e3d6000fd5b505050506040513d601f19601f820116820180604052508101906111c69190611bcf565b505b6111d860e0880160c08901611886565b60405163095ea7b360e01b81526001600160a01b03858116600483015260e08a01356024830152919091169063095ea7b3906044016020604051808303816000875af115801561122c573d6000803e3d6000fd5b505050506040513d601f19601f820116820180604052508101906112509190611bcf565b506001600160a01b0383166396f4e9f98261126e60208b018b611869565b876040518463ffffffff1660e01b815260040161128c929190611e29565b60206040518083038185885af11580156112aa573d6000803e3d6000fd5b50505050506040513d601f19601f820116820180604052508101906112cf9190611bb6565b9550857fed4e05800ee76a1cf5c649a0ec4133b0a0623d66d032e46129fb268501a631748884604051611303929190611f70565b60405180910390a2505050505b50919050565b806020015181604001518060200190518101906113339190611d8c565b6000836060015180602001905181019061134d91906120d6565b905061135c8160a0015161088a565b61137c576000611379826060015183608001518460a00151610be4565b50505b611389816040015161088a565b6113fe5780604001518060200190518101906113a591906120d6565b604051631f0e4bd760e11b81529091503090633e1c97ae906113cb9084906004016121e2565b600060405180830381600087803b1580156113e557600080fd5b505af11580156113f9573d6000803e3d6000fd5b505050505b83602001516001600160401b031684600001517fefd22b16d02120210ec8687e3528d040d94b6509ca1a54ecc33b9e6790abfe24866040015180602001905181019061144a9190611d8c565b8760600151886080015160008151811061146657611466611bec565b602002602001015160000151896080015160008151811061148957611489611bec565b6020026020010151602001516040516114a594939291906122cf565b60405180910390a350505050565b336001600160a01b0382160361150b5760405162461bcd60e51b815260206004820152601760248201527f43616e6e6f74207472616e7366657220746f2073656c66000000000000000000604482015260640161087c565b600180546001600160a01b0319166001600160a01b0383811691821790925560008054604051929316917fed8889f560326eb138920d842192f0eb3dd22b4f139c87a2c57538e05bae12789190a350565b6115976040518060a0016040528060608152602001606081526020016060815260200160006001600160a01b03168152602001606081525090565b604080516001808252818301909252600091816020015b60408051808201909152600080825260208201528152602001906001900390816115ae5790505090506040518060400160405280876001600160a01b03168152602001868152508160008151811061160857611608611bec565b60209081029190910101526040805160a081019091526001600160a01b038a1660c08201528060e08101604051602081830303815290604052815260200189898080601f016020809104026020016040519081016040528093929190818152602001838380828437600092018290525093855250505060208083018590526001600160a01b038816604080850191909152805180820182528881528201928352805160248101899052925115156044808501919091528151808503909101815260649093019052810180516001600160e01b03166397a657c960e01b1790526060909101529998505050505050505050565b60006020828403121561170c57600080fd5b81356001600160e01b03198116811461172457600080fd5b9392505050565b60005b8381101561174657818101518382015260200161172e565b50506000910152565b6000815180845261176781602086016020860161172b565b601f01601f19169290920160200192915050565b848152608060208201526000611794608083018661174f565b6001600160a01b03949094166040830152506060015292915050565b6001600160a01b03811681146109e757600080fd5b80356117d0816117b0565b919050565b600080604083850312156117e857600080fd5b82356117f3816117b0565b91506020830135611803816117b0565b809150509250929050565b60006020828403121561182057600080fd5b81356001600160401b0381111561183657600080fd5b8201610140818503121561172457600080fd5b6001600160401b03811681146109e757600080fd5b80356117d081611849565b60006020828403121561187b57600080fd5b813561172481611849565b60006020828403121561189857600080fd5b8135611724816117b0565b634e487b7160e01b600052604160045260246000fd5b604080519081016001600160401b03811182821017156118db576118db6118a3565b60405290565b60405160a081016001600160401b03811182821017156118db576118db6118a3565b60405161014081016001600160401b03811182821017156118db576118db6118a3565b604051601f8201601f191681016001600160401b038111828210171561194e5761194e6118a3565b604052919050565b60006001600160401b0382111561196f5761196f6118a3565b50601f01601f191660200190565b600082601f83011261198e57600080fd5b81356119a161199c82611956565b611926565b8181528460208386010111156119b657600080fd5b816020850160208301376000918101602001919091529392505050565b6000602082840312156119e557600080fd5b81356001600160401b038111156119fb57600080fd5b611a078482850161197d565b949350505050565b600060208284031215611a2157600080fd5b81356001600160401b03811115611a3757600080fd5b820160a0818503121561172457600080fd5b80151581146109e757600080fd5b60008060408385031215611a6a57600080fd5b8235611a7581611849565b9150602083013561180381611a49565b600080600060608486031215611a9a57600080fd5b8335611aa5816117b0565b92506020840135915060408401356001600160401b03811115611ac757600080fd5b611ad38682870161197d565b9150509250925092565b602081526000611724602083018461174f565b60008060408385031215611b0357600080fd5b8235611a75816117b0565b60008060208385031215611b2157600080fd5b82356001600160401b0380821115611b3857600080fd5b818501915085601f830112611b4c57600080fd5b813581811115611b5b57600080fd5b8660208260051b8501011115611b7057600080fd5b60209290920196919550909350505050565b600181811c90821680611b9657607f821691505b60208210810361131057634e487b7160e01b600052602260045260246000fd5b600060208284031215611bc857600080fd5b5051919050565b600060208284031215611be157600080fd5b815161172481611a49565b634e487b7160e01b600052603260045260246000fd5b600060018201611c2257634e487b7160e01b600052601160045260246000fd5b5060010190565b600082601f830112611c3a57600080fd5b813560206001600160401b03821115611c5557611c556118a3565b611c63818360051b01611926565b82815260069290921b84018101918181019086841115611c8257600080fd5b8286015b84811015611cca5760408189031215611c9f5760008081fd5b611ca76118b9565b8135611cb2816117b0565b81528185013585820152835291830191604001611c86565b509695505050505050565b600060a08236031215611ce757600080fd5b611cef6118e1565b82358152611cff6020840161185e565b602082015260408301356001600160401b0380821115611d1e57600080fd5b611d2a3683870161197d565b60408401526060850135915080821115611d4357600080fd5b611d4f3683870161197d565b60608401526080850135915080821115611d6857600080fd5b50611d7536828601611c29565b60808301525092915050565b80516117d0816117b0565b600060208284031215611d9e57600080fd5b8151611724816117b0565b60008251611dbb81846020870161172b565b9190910192915050565b6000823561013e19833603018112611dbb57600080fd5b6000808335601e19843603018112611df357600080fd5b8301803591506001600160401b03821115611e0d57600080fd5b602001915036819003821315611e2257600080fd5b9250929050565b600060406001600160401b038516835260208181850152845160a083860152611e5560e086018261174f565b905081860151603f1980878403016060880152611e72838361174f565b88860151888203830160808a01528051808352908601945060009350908501905b80841015611ec557845180516001600160a01b0316835286015186830152938501936001939093019290860190611e93565b5060608901516001600160a01b031660a08901526080890151888203830160c08a01529550611ef4818761174f565b9a9950505050505050505050565b6000808335601e19843603018112611f1957600080fd5b83016020810192503590506001600160401b03811115611f3857600080fd5b803603821315611e2257600080fd5b81835281816020850137506000828201602090810191909152601f909101601f19169091010190565b60408152611f9160408201611f848561185e565b6001600160401b03169052565b6000611f9f602085016117c5565b6001600160a01b03166060830152611fba6040850185611f02565b610140806080860152611fd261018086018385611f47565b9250611fe0606088016117c5565b6001600160a01b03811660a08701529150608087013560c086015261200860a0880188611f02565b868503603f190160e08801529250612021848483611f47565b93505061203060c088016117c5565b9150610100612049818701846001600160a01b03169052565b610120925060e0880135838701526120628189016117c5565b6001600160a01b031691860191909152509490940135610160830152506020015290565b80516117d081611849565b600082601f8301126120a257600080fd5b81516120b061199c82611956565b8181528460208386010111156120c557600080fd5b611a0782602083016020870161172b565b6000602082840312156120e857600080fd5b81516001600160401b03808211156120ff57600080fd5b90830190610140828603121561211457600080fd5b61211c611903565b61212583612086565b815261213360208401611d81565b602082015260408301518281111561214a57600080fd5b61215687828601612091565b60408301525061216860608401611d81565b60608201526080830151608082015260a08301518281111561218957600080fd5b61219587828601612091565b60a0830152506121a760c08401611d81565b60c082015260e083015160e082015261010091506121c6828401611d81565b9181019190915261012091820151918101919091529392505050565b602081526121fc6020820183516001600160401b03169052565b6000602083015161221860408401826001600160a01b03169052565b50604083015161014080606085015261223561016085018361174f565b9150606085015161225160808601826001600160a01b03169052565b50608085015160a085015260a0850151601f198584030160c0860152612277838261174f565b92505060c085015161229460e08601826001600160a01b03169052565b5060e0850151610100858101919091528501516101206122be818701836001600160a01b03169052565b959095015193019290925250919050565b600060018060a01b038087168352608060208401526122f1608084018761174f565b9416604083015250606001529291505056fea2646970667358221220a77c5f89ac2c9404a371f5dfed7373078b69e84778f77e03eaf7115dcf832bed64736f6c63430008130033",
  "devdoc": {
    "kind": "dev",
    "methods": {
      "allowlistDestinationChain(uint64,bool)": {
        "details": "Updates the allowlist status of a destination chain for transactions.",
        "params": {
          "_destinationChainSelector": "The selector of the destination chain to be updated.",
          "allowed": "The allowlist status to be set for the destination chain."
        }
      },
      "allowlistSender(address,bool)": {
        "details": "Updates the allowlist status of a sender for transactions.",
        "params": {
          "_sender": "The address of the sender to be updated.",
          "allowed": "The allowlist status to be set for the sender."
        }
      },
      "allowlistSourceChain(uint64,bool)": {
        "details": "Updates the allowlist status of a source chain",
        "params": {
          "_sourceChainSelector": "The selector of the source chain to be updated.",
          "allowed": "The allowlist status to be set for the source chain."
        }
      },
      "ccipReceive((bytes32,uint64,bytes,bytes,(address,uint256)[]))": {
        "details": "Note ensure you check the msg.sender is the OffRampRouter",
        "params": {
          "message": "CCIP Message"
        }
      },
      "getLastReceivedMessageDetails()": {
        "details": "This function retrieves the ID, text, token address, and token amount of the last received CCIP message.",
        "returns": {
          "data": "The data of the last received CCIP message.",
          "messageId": "The ID of the last received CCIP message.",
          "tokenAddress": "The address of the token in the last CCIP received message.",
          "tokenAmount": "The amount of the token in the last CCIP received message."
        }
      },
      "getRouter()": {
        "returns": {
          "_0": "i_router address"
        }
      },
      "supportsInterface(bytes4)": {
        "params": {
          "interfaceId": "The interfaceId to check"
        },
        "returns": {
          "_0": "true if the interfaceId is supported"
        }
      },
      "withdraw(address)": {
        "details": "This function reverts if there are no funds to withdraw or if the transfer fails. It should only be callable by the owner of the contract.",
        "params": {
          "_beneficiary": "The address to which the Ether should be sent."
        }
      },
      "withdrawToken(address,address)": {
        "details": "This function reverts with a 'NothingToWithdraw' error if there are no tokens to withdraw.",
        "params": {
          "_beneficiary": "The address to which the tokens will be sent.",
          "_token": "The contract address of the ERC20 token to be withdrawn."
        }
      }
    },
    "version": 1
  },
  "userdoc": {
    "errors": {
      "ErrorInCall(bytes)": [
        {
          "notice": "fails when call is wrong."
        }
      ]
    },
    "kind": "user",
    "methods": {
      "acceptOwnership()": {
        "notice": "Allows an ownership transfer to be completed by the recipient."
      },
      "allowlistDestinationChain(uint64,bool)": {
        "notice": "This function can only be called by the owner."
      },
      "allowlistSender(address,bool)": {
        "notice": "This function can only be called by the owner."
      },
      "allowlistSourceChain(uint64,bool)": {
        "notice": "This function can only be called by the owner."
      },
      "ccipReceive((bytes32,uint64,bytes,bytes,(address,uint256)[]))": {
        "notice": "Called by the Router to deliver a message. If this reverts, any token transfers also revert. The message will move to a FAILED state and become available for manual execution."
      },
      "getLastReceivedMessageDetails()": {
        "notice": "Returns the details of the last CCIP received message."
      },
      "getRouter()": {
        "notice": "Return the current router"
      },
      "owner()": {
        "notice": "Get the current owner"
      },
      "supportsInterface(bytes4)": {
        "notice": "IERC165 supports an interfaceId"
      },
      "transferOwnership(address)": {
        "notice": "Allows an owner to begin transferring ownership to a new address, pending."
      },
      "withdraw(address)": {
        "notice": "Allows the contract owner to withdraw the entire balance of Ether from the contract."
      },
      "withdrawToken(address,address)": {
        "notice": "Allows the owner of the contract to withdraw all tokens of a specific ERC20 token."
      }
    },
    "version": 1
  },
  "storageLayout": {
    "storage": [
      {
        "astId": 27,
        "contract": "contracts/Transshipment.sol:Transshipment",
        "label": "s_owner",
        "offset": 0,
        "slot": "0",
        "type": "t_address"
      },
      {
        "astId": 29,
        "contract": "contracts/Transshipment.sol:Transshipment",
        "label": "s_pendingOwner",
        "offset": 0,
        "slot": "1",
        "type": "t_address"
      },
      {
        "astId": 1247,
        "contract": "contracts/Transshipment.sol:Transshipment",
        "label": "s_lastReceivedMessageId",
        "offset": 0,
        "slot": "2",
        "type": "t_bytes32"
      },
      {
        "astId": 1249,
        "contract": "contracts/Transshipment.sol:Transshipment",
        "label": "s_lastReceivedTokenAddress",
        "offset": 0,
        "slot": "3",
        "type": "t_address"
      },
      {
        "astId": 1251,
        "contract": "contracts/Transshipment.sol:Transshipment",
        "label": "s_lastReceivedTokenAmount",
        "offset": 0,
        "slot": "4",
        "type": "t_uint256"
      },
      {
        "astId": 1253,
        "contract": "contracts/Transshipment.sol:Transshipment",
        "label": "s_lastReceivedData",
        "offset": 0,
        "slot": "5",
        "type": "t_bytes_storage"
      },
      {
        "astId": 1257,
        "contract": "contracts/Transshipment.sol:Transshipment",
        "label": "allowlistedDestinationChains",
        "offset": 0,
        "slot": "6",
        "type": "t_mapping(t_uint64,t_bool)"
      },
      {
        "astId": 1261,
        "contract": "contracts/Transshipment.sol:Transshipment",
        "label": "allowlistedSourceChains",
        "offset": 0,
        "slot": "7",
        "type": "t_mapping(t_uint64,t_bool)"
      },
      {
        "astId": 1265,
        "contract": "contracts/Transshipment.sol:Transshipment",
        "label": "allowlistedSenders",
        "offset": 0,
        "slot": "8",
        "type": "t_mapping(t_address,t_bool)"
      },
      {
        "astId": 1268,
        "contract": "contracts/Transshipment.sol:Transshipment",
        "label": "s_linkToken",
        "offset": 0,
        "slot": "9",
        "type": "t_contract(IERC20)533"
      },
      {
        "astId": 689,
        "contract": "contracts/Transshipment.sol:Transshipment",
        "label": "registry",
        "offset": 0,
        "slot": "10",
        "type": "t_contract(IERC6551Registry)1612"
      },
      {
        "astId": 691,
        "contract": "contracts/Transshipment.sol:Transshipment",
        "label": "accountImplementation",
        "offset": 0,
        "slot": "11",
        "type": "t_address"
      },
      {
        "astId": 693,
        "contract": "contracts/Transshipment.sol:Transshipment",
        "label": "salt",
        "offset": 0,
        "slot": "12",
        "type": "t_bytes32"
      },
      {
        "astId": 696,
        "contract": "contracts/Transshipment.sol:Transshipment",
        "label": "tokenContract",
        "offset": 0,
        "slot": "13",
        "type": "t_contract(ITokenAccess)1628"
      },
      {
        "astId": 700,
        "contract": "contracts/Transshipment.sol:Transshipment",
        "label": "accounts",
        "offset": 0,
        "slot": "14",
        "type": "t_mapping(t_address,t_bool)"
      }
    ],
    "types": {
      "t_address": {
        "encoding": "inplace",
        "label": "address",
        "numberOfBytes": "20"
      },
      "t_bool": {
        "encoding": "inplace",
        "label": "bool",
        "numberOfBytes": "1"
      },
      "t_bytes32": {
        "encoding": "inplace",
        "label": "bytes32",
        "numberOfBytes": "32"
      },
      "t_bytes_storage": {
        "encoding": "bytes",
        "label": "bytes",
        "numberOfBytes": "32"
      },
      "t_contract(IERC20)533": {
        "encoding": "inplace",
        "label": "contract IERC20",
        "numberOfBytes": "20"
      },
      "t_contract(IERC6551Registry)1612": {
        "encoding": "inplace",
        "label": "contract IERC6551Registry",
        "numberOfBytes": "20"
      },
      "t_contract(ITokenAccess)1628": {
        "encoding": "inplace",
        "label": "contract ITokenAccess",
        "numberOfBytes": "20"
      },
      "t_mapping(t_address,t_bool)": {
        "encoding": "mapping",
        "key": "t_address",
        "label": "mapping(address => bool)",
        "numberOfBytes": "32",
        "value": "t_bool"
      },
      "t_mapping(t_uint64,t_bool)": {
        "encoding": "mapping",
        "key": "t_uint64",
        "label": "mapping(uint64 => bool)",
        "numberOfBytes": "32",
        "value": "t_bool"
      },
      "t_uint256": {
        "encoding": "inplace",
        "label": "uint256",
        "numberOfBytes": "32"
      },
      "t_uint64": {
        "encoding": "inplace",
        "label": "uint64",
        "numberOfBytes": "8"
      }
    }
  }
}