{
  "address": "0xe19e7379699E0150fF6F1A2f462b30ec332D2940",
  "abi": [
    {
      "inputs": [
        {
          "internalType": "address",
          "name": "_router",
          "type": "address"
        },
        {
          "internalType": "address",
          "name": "_link",
          "type": "address"
        },
        {
          "internalType": "address",
          "name": "_accountImplementation",
          "type": "address"
        },
        {
          "internalType": "address",
          "name": "_manager",
          "type": "address"
        }
      ],
      "stateMutability": "nonpayable",
      "type": "constructor"
    },
    {
      "inputs": [
        {
          "internalType": "uint64",
          "name": "destinationChainSelector",
          "type": "uint64"
        }
      ],
      "name": "DestinationChainNotAllowed",
      "type": "error"
    },
    {
      "inputs": [],
      "name": "ErrorCase",
      "type": "error"
    },
    {
      "inputs": [
        {
          "internalType": "bytes",
          "name": "result",
          "type": "bytes"
        }
      ],
      "name": "ErrorInCall",
      "type": "error"
    },
    {
      "inputs": [
        {
          "internalType": "address",
          "name": "owner",
          "type": "address"
        },
        {
          "internalType": "address",
          "name": "target",
          "type": "address"
        },
        {
          "internalType": "uint256",
          "name": "value",
          "type": "uint256"
        }
      ],
      "name": "FailedToWithdrawEth",
      "type": "error"
    },
    {
      "inputs": [
        {
          "internalType": "address",
          "name": "router",
          "type": "address"
        }
      ],
      "name": "InvalidRouter",
      "type": "error"
    },
    {
      "inputs": [],
      "name": "InvalidShortString",
      "type": "error"
    },
    {
      "inputs": [
        {
          "internalType": "bytes32",
          "name": "messageId",
          "type": "bytes32"
        }
      ],
      "name": "MessageNotFailed",
      "type": "error"
    },
    {
      "inputs": [
        {
          "internalType": "uint256",
          "name": "currentBalance",
          "type": "uint256"
        },
        {
          "internalType": "uint256",
          "name": "calculatedFees",
          "type": "uint256"
        }
      ],
      "name": "NotEnoughBalance",
      "type": "error"
    },
    {
      "inputs": [],
      "name": "NothingToWithdraw",
      "type": "error"
    },
    {
      "inputs": [],
      "name": "OnlySelf",
      "type": "error"
    },
    {
      "inputs": [
        {
          "internalType": "address",
          "name": "sender",
          "type": "address"
        }
      ],
      "name": "SenderNotAllowed",
      "type": "error"
    },
    {
      "inputs": [
        {
          "internalType": "uint64",
          "name": "sourceChainSelector",
          "type": "uint64"
        }
      ],
      "name": "SourceChainNotAllowed",
      "type": "error"
    },
    {
      "inputs": [
        {
          "internalType": "string",
          "name": "str",
          "type": "string"
        }
      ],
      "name": "StringTooLong",
      "type": "error"
    },
    {
      "anonymous": false,
      "inputs": [
        {
          "indexed": false,
          "internalType": "address",
          "name": "userAddress",
          "type": "address"
        },
        {
          "indexed": false,
          "internalType": "address",
          "name": "accountAddress",
          "type": "address"
        },
        {
          "indexed": false,
          "internalType": "string",
          "name": "name",
          "type": "string"
        },
        {
          "indexed": false,
          "internalType": "uint8",
          "name": "accountType",
          "type": "uint8"
        }
      ],
      "name": "AccountCreated",
      "type": "event"
    },
    {
      "anonymous": false,
      "inputs": [],
      "name": "EIP712DomainChanged",
      "type": "event"
    },
    {
      "anonymous": false,
      "inputs": [
        {
          "components": [
            {
              "internalType": "address",
              "name": "target",
              "type": "address"
            },
            {
              "internalType": "uint256",
              "name": "value",
              "type": "uint256"
            },
            {
              "internalType": "bytes",
              "name": "data",
              "type": "bytes"
            }
          ],
          "indexed": false,
          "internalType": "struct ITransshipmentStructures.CallData",
          "name": "calldataStruct",
          "type": "tuple"
        }
      ],
      "name": "Executed",
      "type": "event"
    },
    {
      "anonymous": false,
      "inputs": [
        {
          "indexed": true,
          "internalType": "bytes32",
          "name": "messageId",
          "type": "bytes32"
        },
        {
          "indexed": false,
          "internalType": "bytes",
          "name": "reason",
          "type": "bytes"
        }
      ],
      "name": "MessageFailed",
      "type": "event"
    },
    {
      "anonymous": false,
      "inputs": [
        {
          "indexed": true,
          "internalType": "bytes32",
          "name": "messageId",
          "type": "bytes32"
        },
        {
          "indexed": true,
          "internalType": "uint64",
          "name": "sourceChainSelector",
          "type": "uint64"
        },
        {
          "indexed": false,
          "internalType": "address",
          "name": "sender",
          "type": "address"
        },
        {
          "indexed": false,
          "internalType": "bytes",
          "name": "text",
          "type": "bytes"
        },
        {
          "components": [
            {
              "internalType": "address",
              "name": "token",
              "type": "address"
            },
            {
              "internalType": "uint256",
              "name": "amount",
              "type": "uint256"
            }
          ],
          "indexed": false,
          "internalType": "struct Client.EVMTokenAmount[]",
          "name": "tokenAmounts",
          "type": "tuple[]"
        }
      ],
      "name": "MessageReceived",
      "type": "event"
    },
    {
      "anonymous": false,
      "inputs": [
        {
          "indexed": true,
          "internalType": "bytes32",
          "name": "messageId",
          "type": "bytes32"
        }
      ],
      "name": "MessageRecovered",
      "type": "event"
    },
    {
      "anonymous": false,
      "inputs": [
        {
          "indexed": true,
          "internalType": "bytes32",
          "name": "messageId",
          "type": "bytes32"
        },
        {
          "components": [
            {
              "internalType": "uint64",
              "name": "destinationChainSelector",
              "type": "uint64"
            },
            {
              "internalType": "address",
              "name": "receiver",
              "type": "address"
            },
            {
              "internalType": "bytes",
              "name": "dataToSend",
              "type": "bytes"
            },
            {
              "internalType": "address",
              "name": "addressToExecute",
              "type": "address"
            },
            {
              "internalType": "uint256",
              "name": "valueToExecute",
              "type": "uint256"
            },
            {
              "internalType": "bytes",
              "name": "dataToExecute",
              "type": "bytes"
            },
            {
              "internalType": "address",
              "name": "token",
              "type": "address"
            },
            {
              "internalType": "uint256",
              "name": "amount",
              "type": "uint256"
            },
            {
              "internalType": "address",
              "name": "feeToken",
              "type": "address"
            },
            {
              "internalType": "uint256",
              "name": "gasLimit",
              "type": "uint256"
            }
          ],
          "indexed": false,
          "internalType": "struct ITransshipmentStructures.MassageParam",
          "name": "massageParam",
          "type": "tuple"
        },
        {
          "indexed": false,
          "internalType": "uint256",
          "name": "fees",
          "type": "uint256"
        }
      ],
      "name": "MessageSent",
      "type": "event"
    },
    {
      "anonymous": false,
      "inputs": [
        {
          "indexed": false,
          "internalType": "bytes32",
          "name": "messageId",
          "type": "bytes32"
        }
      ],
      "name": "MessageSucceeds",
      "type": "event"
    },
    {
      "anonymous": false,
      "inputs": [
        {
          "indexed": true,
          "internalType": "address",
          "name": "from",
          "type": "address"
        },
        {
          "indexed": true,
          "internalType": "address",
          "name": "to",
          "type": "address"
        }
      ],
      "name": "OwnershipTransferRequested",
      "type": "event"
    },
    {
      "anonymous": false,
      "inputs": [
        {
          "indexed": true,
          "internalType": "address",
          "name": "from",
          "type": "address"
        },
        {
          "indexed": true,
          "internalType": "address",
          "name": "to",
          "type": "address"
        }
      ],
      "name": "OwnershipTransferred",
      "type": "event"
    },
    {
      "inputs": [],
      "name": "NAME",
      "outputs": [
        {
          "internalType": "string",
          "name": "",
          "type": "string"
        }
      ],
      "stateMutability": "view",
      "type": "function"
    },
    {
      "inputs": [],
      "name": "VERSION",
      "outputs": [
        {
          "internalType": "string",
          "name": "",
          "type": "string"
        }
      ],
      "stateMutability": "view",
      "type": "function"
    },
    {
      "inputs": [],
      "name": "acceptOwnership",
      "outputs": [],
      "stateMutability": "nonpayable",
      "type": "function"
    },
    {
      "inputs": [],
      "name": "accountImplementation",
      "outputs": [
        {
          "internalType": "address",
          "name": "",
          "type": "address"
        }
      ],
      "stateMutability": "view",
      "type": "function"
    },
    {
      "inputs": [
        {
          "internalType": "address",
          "name": "",
          "type": "address"
        }
      ],
      "name": "accounts",
      "outputs": [
        {
          "internalType": "bool",
          "name": "",
          "type": "bool"
        }
      ],
      "stateMutability": "view",
      "type": "function"
    },
    {
      "inputs": [
        {
          "internalType": "uint64",
          "name": "_destinationChainSelector",
          "type": "uint64"
        },
        {
          "internalType": "bool",
          "name": "allowed",
          "type": "bool"
        }
      ],
      "name": "allowlistDestinationChain",
      "outputs": [],
      "stateMutability": "nonpayable",
      "type": "function"
    },
    {
      "inputs": [
        {
          "internalType": "address",
          "name": "_sender",
          "type": "address"
        },
        {
          "internalType": "bool",
          "name": "allowed",
          "type": "bool"
        }
      ],
      "name": "allowlistSender",
      "outputs": [],
      "stateMutability": "nonpayable",
      "type": "function"
    },
    {
      "inputs": [
        {
          "internalType": "uint64",
          "name": "_sourceChainSelector",
          "type": "uint64"
        },
        {
          "internalType": "bool",
          "name": "allowed",
          "type": "bool"
        }
      ],
      "name": "allowlistSourceChain",
      "outputs": [],
      "stateMutability": "nonpayable",
      "type": "function"
    },
    {
      "inputs": [
        {
          "internalType": "uint64",
          "name": "",
          "type": "uint64"
        }
      ],
      "name": "allowlistedDestinationChains",
      "outputs": [
        {
          "internalType": "bool",
          "name": "",
          "type": "bool"
        }
      ],
      "stateMutability": "view",
      "type": "function"
    },
    {
      "inputs": [
        {
          "internalType": "address",
          "name": "",
          "type": "address"
        }
      ],
      "name": "allowlistedSenders",
      "outputs": [
        {
          "internalType": "bool",
          "name": "",
          "type": "bool"
        }
      ],
      "stateMutability": "view",
      "type": "function"
    },
    {
      "inputs": [
        {
          "internalType": "uint64",
          "name": "",
          "type": "uint64"
        }
      ],
      "name": "allowlistedSourceChains",
      "outputs": [
        {
          "internalType": "bool",
          "name": "",
          "type": "bool"
        }
      ],
      "stateMutability": "view",
      "type": "function"
    },
    {
      "inputs": [
        {
          "internalType": "bytes",
          "name": "managerProof",
          "type": "bytes"
        },
        {
          "internalType": "address",
          "name": "feeToken",
          "type": "address"
        },
        {
          "internalType": "uint256",
          "name": "gasLimit",
          "type": "uint256"
        },
        {
          "internalType": "uint256",
          "name": "feeAmount",
          "type": "uint256"
        },
        {
          "components": [
            {
              "internalType": "address",
              "name": "userAddress",
              "type": "address"
            },
            {
              "internalType": "uint256",
              "name": "userNonce",
              "type": "uint256"
            },
            {
              "internalType": "address",
              "name": "srcTokenAddress",
              "type": "address"
            },
            {
              "internalType": "uint256",
              "name": "srcTokenAmount",
              "type": "uint256"
            },
            {
              "internalType": "uint64",
              "name": "dstChainSelector",
              "type": "uint64"
            },
            {
              "internalType": "address",
              "name": "dstExecutor",
              "type": "address"
            },
            {
              "internalType": "address",
              "name": "dstTokenAddress",
              "type": "address"
            },
            {
              "internalType": "uint256",
              "name": "dstTokenAmount",
              "type": "uint256"
            },
            {
              "internalType": "address",
              "name": "dstReceiver",
              "type": "address"
            }
          ],
          "internalType": "struct ITransshipmentStructures.BridgeParams",
          "name": "params",
          "type": "tuple"
        }
      ],
      "name": "bridgeTokens",
      "outputs": [],
      "stateMutability": "payable",
      "type": "function"
    },
    {
      "inputs": [
        {
          "components": [
            {
              "internalType": "bytes32",
              "name": "messageId",
              "type": "bytes32"
            },
            {
              "internalType": "uint64",
              "name": "sourceChainSelector",
              "type": "uint64"
            },
            {
              "internalType": "bytes",
              "name": "sender",
              "type": "bytes"
            },
            {
              "internalType": "bytes",
              "name": "data",
              "type": "bytes"
            },
            {
              "components": [
                {
                  "internalType": "address",
                  "name": "token",
                  "type": "address"
                },
                {
                  "internalType": "uint256",
                  "name": "amount",
                  "type": "uint256"
                }
              ],
              "internalType": "struct Client.EVMTokenAmount[]",
              "name": "destTokenAmounts",
              "type": "tuple[]"
            }
          ],
          "internalType": "struct Client.Any2EVMMessage",
          "name": "any2EvmMessage",
          "type": "tuple"
        }
      ],
      "name": "ccipReceive",
      "outputs": [],
      "stateMutability": "nonpayable",
      "type": "function"
    },
    {
      "inputs": [
        {
          "internalType": "string",
          "name": "name",
          "type": "string"
        },
        {
          "internalType": "uint8",
          "name": "accountType",
          "type": "uint8"
        }
      ],
      "name": "createAccount",
      "outputs": [
        {
          "internalType": "address",
          "name": "accountAddress",
          "type": "address"
        }
      ],
      "stateMutability": "nonpayable",
      "type": "function"
    },
    {
      "inputs": [],
      "name": "eip712Domain",
      "outputs": [
        {
          "internalType": "bytes1",
          "name": "fields",
          "type": "bytes1"
        },
        {
          "internalType": "string",
          "name": "name",
          "type": "string"
        },
        {
          "internalType": "string",
          "name": "version",
          "type": "string"
        },
        {
          "internalType": "uint256",
          "name": "chainId",
          "type": "uint256"
        },
        {
          "internalType": "address",
          "name": "verifyingContract",
          "type": "address"
        },
        {
          "internalType": "bytes32",
          "name": "salt",
          "type": "bytes32"
        },
        {
          "internalType": "uint256[]",
          "name": "extensions",
          "type": "uint256[]"
        }
      ],
      "stateMutability": "view",
      "type": "function"
    },
    {
      "inputs": [
        {
          "internalType": "address",
          "name": "userAddress",
          "type": "address"
        }
      ],
      "name": "getAccountAddress",
      "outputs": [
        {
          "internalType": "address",
          "name": "",
          "type": "address"
        }
      ],
      "stateMutability": "view",
      "type": "function"
    },
    {
      "inputs": [
        {
          "internalType": "address",
          "name": "userAddress",
          "type": "address"
        }
      ],
      "name": "getCreatedAccountAddress",
      "outputs": [
        {
          "internalType": "address",
          "name": "",
          "type": "address"
        }
      ],
      "stateMutability": "view",
      "type": "function"
    },
    {
      "inputs": [],
      "name": "getFailedMessagesIds",
      "outputs": [
        {
          "internalType": "bytes32[]",
          "name": "ids",
          "type": "bytes32[]"
        }
      ],
      "stateMutability": "view",
      "type": "function"
    },
    {
      "inputs": [],
      "name": "getRouter",
      "outputs": [
        {
          "internalType": "address",
          "name": "",
          "type": "address"
        }
      ],
      "stateMutability": "view",
      "type": "function"
    },
    {
      "inputs": [],
      "name": "manager",
      "outputs": [
        {
          "internalType": "address",
          "name": "",
          "type": "address"
        }
      ],
      "stateMutability": "view",
      "type": "function"
    },
    {
      "inputs": [],
      "name": "owner",
      "outputs": [
        {
          "internalType": "address",
          "name": "",
          "type": "address"
        }
      ],
      "stateMutability": "view",
      "type": "function"
    },
    {
      "inputs": [
        {
          "components": [
            {
              "internalType": "bytes32",
              "name": "messageId",
              "type": "bytes32"
            },
            {
              "internalType": "uint64",
              "name": "sourceChainSelector",
              "type": "uint64"
            },
            {
              "internalType": "bytes",
              "name": "sender",
              "type": "bytes"
            },
            {
              "internalType": "bytes",
              "name": "data",
              "type": "bytes"
            },
            {
              "components": [
                {
                  "internalType": "address",
                  "name": "token",
                  "type": "address"
                },
                {
                  "internalType": "uint256",
                  "name": "amount",
                  "type": "uint256"
                }
              ],
              "internalType": "struct Client.EVMTokenAmount[]",
              "name": "destTokenAmounts",
              "type": "tuple[]"
            }
          ],
          "internalType": "struct Client.Any2EVMMessage",
          "name": "any2EvmMessage",
          "type": "tuple"
        }
      ],
      "name": "processMessage",
      "outputs": [],
      "stateMutability": "nonpayable",
      "type": "function"
    },
    {
      "inputs": [
        {
          "internalType": "bytes32",
          "name": "messageId",
          "type": "bytes32"
        },
        {
          "internalType": "address",
          "name": "tokenReceiver",
          "type": "address"
        }
      ],
      "name": "retryFailedMessage",
      "outputs": [],
      "stateMutability": "nonpayable",
      "type": "function"
    },
    {
      "inputs": [
        {
          "internalType": "bytes32",
          "name": "messageId",
          "type": "bytes32"
        }
      ],
      "name": "s_messageContents",
      "outputs": [
        {
          "internalType": "bytes32",
          "name": "messageId",
          "type": "bytes32"
        },
        {
          "internalType": "uint64",
          "name": "sourceChainSelector",
          "type": "uint64"
        },
        {
          "internalType": "bytes",
          "name": "sender",
          "type": "bytes"
        },
        {
          "internalType": "bytes",
          "name": "data",
          "type": "bytes"
        }
      ],
      "stateMutability": "view",
      "type": "function"
    },
    {
      "inputs": [
        {
          "components": [
            {
              "internalType": "uint64",
              "name": "destinationChainSelector",
              "type": "uint64"
            },
            {
              "internalType": "address",
              "name": "receiver",
              "type": "address"
            },
            {
              "internalType": "bytes",
              "name": "dataToSend",
              "type": "bytes"
            },
            {
              "internalType": "address",
              "name": "addressToExecute",
              "type": "address"
            },
            {
              "internalType": "uint256",
              "name": "valueToExecute",
              "type": "uint256"
            },
            {
              "internalType": "bytes",
              "name": "dataToExecute",
              "type": "bytes"
            },
            {
              "internalType": "address",
              "name": "token",
              "type": "address"
            },
            {
              "internalType": "uint256",
              "name": "amount",
              "type": "uint256"
            },
            {
              "internalType": "address",
              "name": "feeToken",
              "type": "address"
            },
            {
              "internalType": "uint256",
              "name": "gasLimit",
              "type": "uint256"
            }
          ],
          "internalType": "struct ITransshipmentStructures.MassageParam",
          "name": "massageParam",
          "type": "tuple"
        }
      ],
      "name": "sendMassage",
      "outputs": [],
      "stateMutability": "payable",
      "type": "function"
    },
    {
      "inputs": [
        {
          "components": [
            {
              "internalType": "uint64",
              "name": "destinationChainSelector",
              "type": "uint64"
            },
            {
              "internalType": "address",
              "name": "receiver",
              "type": "address"
            },
            {
              "internalType": "bytes",
              "name": "dataToSend",
              "type": "bytes"
            },
            {
              "internalType": "address",
              "name": "addressToExecute",
              "type": "address"
            },
            {
              "internalType": "uint256",
              "name": "valueToExecute",
              "type": "uint256"
            },
            {
              "internalType": "bytes",
              "name": "dataToExecute",
              "type": "bytes"
            },
            {
              "internalType": "address",
              "name": "token",
              "type": "address"
            },
            {
              "internalType": "uint256",
              "name": "amount",
              "type": "uint256"
            },
            {
              "internalType": "address",
              "name": "feeToken",
              "type": "address"
            },
            {
              "internalType": "uint256",
              "name": "gasLimit",
              "type": "uint256"
            }
          ],
          "internalType": "struct ITransshipmentStructures.MassageParam[]",
          "name": "massageParams",
          "type": "tuple[]"
        }
      ],
      "name": "sendUniversalMassage",
      "outputs": [],
      "stateMutability": "nonpayable",
      "type": "function"
    },
    {
      "inputs": [
        {
          "internalType": "bytes4",
          "name": "interfaceId",
          "type": "bytes4"
        }
      ],
      "name": "supportsInterface",
      "outputs": [
        {
          "internalType": "bool",
          "name": "",
          "type": "bool"
        }
      ],
      "stateMutability": "pure",
      "type": "function"
    },
    {
      "inputs": [
        {
          "components": [
            {
              "internalType": "uint64",
              "name": "destinationChainSelector",
              "type": "uint64"
            },
            {
              "internalType": "address",
              "name": "receiver",
              "type": "address"
            },
            {
              "internalType": "bytes",
              "name": "dataToSend",
              "type": "bytes"
            },
            {
              "internalType": "address",
              "name": "addressToExecute",
              "type": "address"
            },
            {
              "internalType": "uint256",
              "name": "valueToExecute",
              "type": "uint256"
            },
            {
              "internalType": "bytes",
              "name": "dataToExecute",
              "type": "bytes"
            },
            {
              "internalType": "address",
              "name": "token",
              "type": "address"
            },
            {
              "internalType": "uint256",
              "name": "amount",
              "type": "uint256"
            },
            {
              "internalType": "address",
              "name": "feeToken",
              "type": "address"
            },
            {
              "internalType": "uint256",
              "name": "gasLimit",
              "type": "uint256"
            }
          ],
          "internalType": "struct ITransshipmentStructures.MassageParam",
          "name": "massageParam",
          "type": "tuple"
        },
        {
          "internalType": "address",
          "name": "senderAddress",
          "type": "address"
        }
      ],
      "name": "systemSendMassage",
      "outputs": [],
      "stateMutability": "payable",
      "type": "function"
    },
    {
      "inputs": [
        {
          "internalType": "address",
          "name": "to",
          "type": "address"
        }
      ],
      "name": "transferOwnership",
      "outputs": [],
      "stateMutability": "nonpayable",
      "type": "function"
    },
    {
      "inputs": [
        {
          "internalType": "address",
          "name": "",
          "type": "address"
        }
      ],
      "name": "userNonce",
      "outputs": [
        {
          "internalType": "uint256",
          "name": "",
          "type": "uint256"
        }
      ],
      "stateMutability": "view",
      "type": "function"
    },
    {
      "inputs": [
        {
          "internalType": "address",
          "name": "_beneficiary",
          "type": "address"
        }
      ],
      "name": "withdraw",
      "outputs": [],
      "stateMutability": "nonpayable",
      "type": "function"
    },
    {
      "inputs": [
        {
          "internalType": "address",
          "name": "_beneficiary",
          "type": "address"
        },
        {
          "internalType": "address",
          "name": "_token",
          "type": "address"
        }
      ],
      "name": "withdrawToken",
      "outputs": [],
      "stateMutability": "nonpayable",
      "type": "function"
    },
    {
      "stateMutability": "payable",
      "type": "receive"
    }
  ],
  "transactionHash": "0x58a07620bf77d27e78dde350a3fa8f099c32812a73f2be9ea483d6794164f9bc",
  "args": [
    "0x9527E2d01A3064ef6b50c1Da1C0cC523803BCFF2",
    "0x84b9B910527Ad5C03A9Ca831909E21e236EA7b06",
    "0x0DB9c8F1A446F4F2a81c5De53d8ae867b4E45029",
    "0x6D2d5C9bd367721899B9c6E2bcAA35eBc738e905"
  ],
  "numDeployments": 7,
  "solcInputHash": "ac30ea5775df02d44ba36ea6bc403fcb",
  "bytecode": "0x6101806040523480156200001257600080fd5b50604051620048b3380380620048b38339810160408190526200003591620003ad565b604080518082018252600d81526c151c985b9cdcda1a5c1b595b9d609a1b60208083019190915282518084019093526005835264302e302e3160d81b9083015290858533806000846001600160a01b038116620000ad576040516335fdcccd60e21b8152600060048201526024015b60405180910390fd5b6001600160a01b0390811660805282166200010b5760405162461bcd60e51b815260206004820152601860248201527f43616e6e6f7420736574206f776e657220746f207a65726f00000000000000006044820152606401620000a4565b600080546001600160a01b0319166001600160a01b03848116919091179091558116156200013e576200013e8162000269565b5050600980546001600160a01b0319166001600160a01b0393909316929092179091555050306000908152600460205260409020805460ff191660011790556200018a82600a62000314565b610140526200019b81600b62000314565b61016052815160208084019190912061010052815190820120610120524660c0526200022b6101005161012051604080517f8b73c3c69bb8fe3d512ecc4cf759cc79239f7b179b0ffacaa9a75d522b39400f60208201529081019290925260608201524660808201523060a082015260009060c00160405160208183030381529060405280519060200120905090565b60a05250503060e052600c80546001600160a01b039384166001600160a01b031991821617909155600d805492909316911617905550620005f09050565b336001600160a01b03821603620002c35760405162461bcd60e51b815260206004820152601760248201527f43616e6e6f74207472616e7366657220746f2073656c660000000000000000006044820152606401620000a4565b600180546001600160a01b0319166001600160a01b0383811691821790925560008054604051929316917fed8889f560326eb138920d842192f0eb3dd22b4f139c87a2c57538e05bae12789190a350565b600060208351101562000334576200032c836200034d565b905062000347565b81620003418482620004af565b5060ff90505b92915050565b600080829050601f815111156200037b578260405163305a27a960e01b8152600401620000a491906200057b565b80516200038882620005cb565b179392505050565b80516001600160a01b0381168114620003a857600080fd5b919050565b60008060008060808587031215620003c457600080fd5b620003cf8562000390565b9350620003df6020860162000390565b9250620003ef6040860162000390565b9150620003ff6060860162000390565b905092959194509250565b634e487b7160e01b600052604160045260246000fd5b600181811c908216806200043557607f821691505b6020821081036200045657634e487b7160e01b600052602260045260246000fd5b50919050565b601f821115620004aa57600081815260208120601f850160051c81016020861015620004855750805b601f850160051c820191505b81811015620004a65782815560010162000491565b5050505b505050565b81516001600160401b03811115620004cb57620004cb6200040a565b620004e381620004dc845462000420565b846200045c565b602080601f8311600181146200051b5760008415620005025750858301515b600019600386901b1c1916600185901b178555620004a6565b600085815260208120601f198616915b828110156200054c578886015182559484019460019091019084016200052b565b50858210156200056b5787850151600019600388901b60f8161c191681555b5050505050600190811b01905550565b600060208083528351808285015260005b81811015620005aa578581018301518582016040015282016200058c565b506000604082860101526040601f19601f8301168501019250505092915050565b80516020808301519190811015620004565760001960209190910360031b1b16919050565b60805160a05160c05160e051610100516101205161014051610160516142566200065d6000396000610e2601526000610dfb0152600061283e01526000612816015260006127710152600061279b015260006127c50152600081816105750152610e8101526142566000f3fe6080604052600436106101e75760003560e01c80637e63335611610102578063cf6730f811610095578063eab5b02c11610064578063eab5b02c1461061c578063eb9cf3221461063c578063f2fde38b1461065c578063ffa1ad741461067c57600080fd5b8063cf6730f814610599578063d0d1fc3d146105b9578063db04fa49146105e9578063e51f2fe41461060957600080fd5b80638da5cb5b116100d15780638da5cb5b146104e257806396d3b83d14610500578063a3f4df7e14610520578063b0f479a11461056657600080fd5b80637e6333561461046757806384b0196e1461048757806385572ffb146104af578063879aeaeb146104cf57600080fd5b8063481c6a751161017a5780636159ada1116101495780636159ada1146103d057806368f9a9cc1461040057806375c67c661461042257806379ba50971461045257600080fd5b8063481c6a751461034057806351cff8d9146103605780635872fe45146103805780635e5c06e2146103a057600080fd5b80633a564501116101b65780633a564501146102bd5780633aeac4e1146102dd5780633e1c97ae146102fd5780634030d5211461031057600080fd5b806301ffc9a7146101f357806311464fbe146102285780632e04b8e714610260578063369f7f661461029b57600080fd5b366101ee57005b600080fd5b3480156101ff57600080fd5b5061021361020e366004612f3f565b6106ad565b60405190151581526020015b60405180910390f35b34801561023457600080fd5b50600c54610248906001600160a01b031681565b6040516001600160a01b03909116815260200161021f565b34801561026c57600080fd5b5061028d61027b366004612f8e565b600f6020526000908152604090205481565b60405190815260200161021f565b3480156102a757600080fd5b506102bb6102b6366004612fab565b6106e4565b005b3480156102c957600080fd5b506102486102d8366004612f8e565b610993565b3480156102e957600080fd5b506102bb6102f8366004612fdb565b6109d2565b6102bb61030b366004613022565b610a81565b34801561031c57600080fd5b5061021361032b366004613076565b60036020526000908152604090205460ff1681565b34801561034c57600080fd5b50600d54610248906001600160a01b031681565b34801561036c57600080fd5b506102bb61037b366004612f8e565b610a8f565b34801561038c57600080fd5b5061024861039b366004612f8e565b610b46565b3480156103ac57600080fd5b506102136103bb366004612f8e565b600e6020526000908152604090205460ff1681565b3480156103dc57600080fd5b506102136103eb366004612f8e565b60046020526000908152604090205460ff1681565b34801561040c57600080fd5b50610415610b90565b60405161021f9190613093565b34801561042e57600080fd5b5061021361043d366004613076565b60026020526000908152604090205460ff1681565b34801561045e57600080fd5b506102bb610c39565b34801561047357600080fd5b506102486104823660046131ef565b610ce3565b34801561049357600080fd5b5061049c610ded565b60405161021f979695949392919061329f565b3480156104bb57600080fd5b506102bb6104ca366004613335565b610e76565b6102bb6104dd36600461336f565b611056565b3480156104ee57600080fd5b506000546001600160a01b0316610248565b34801561050c57600080fd5b506102bb61051b36600461342e565b6114d0565b34801561052c57600080fd5b506105596040518060400160405280600d81526020016c151c985b9cdcda1a5c1b595b9d609a1b81525081565b60405161021f919061345c565b34801561057257600080fd5b507f0000000000000000000000000000000000000000000000000000000000000000610248565b3480156105a557600080fd5b506102bb6105b4366004613335565b611503565b3480156105c557600080fd5b506105d96105d436600461346f565b6115a2565b60405161021f9493929190613488565b3480156105f557600080fd5b506102bb61060436600461342e565b6116e5565b6102bb6106173660046134c2565b611718565b34801561062857600080fd5b506102bb610637366004613508565b611765565b34801561064857600080fd5b506102bb610657366004613526565b611798565b34801561066857600080fd5b506102bb610677366004612f8e565b6117e3565b34801561068857600080fd5b5061055960405180604001604052806005815260200164302e302e3160d81b81525081565b60006001600160e01b031982166385572ffb60e01b14806106de57506001600160e01b031982166301ffc9a760e01b145b92915050565b6106ec6117f7565b60016106f960068461184c565b1461071f576040516305b73c1360e51b8152600481018390526024015b60405180910390fd5b61072f8260005b60069190611858565b506000828152600560209081526040808320815160a0810183528154815260018201546001600160401b0316938101939093526002810180549192840191610776906135b0565b80601f01602080910402602001604051908101604052809291908181526020018280546107a2906135b0565b80156107ef5780601f106107c4576101008083540402835291602001916107ef565b820191906000526020600020905b8154815290600101906020018083116107d257829003601f168201915b50505050508152602001600382018054610808906135b0565b80601f0160208091040260200160405190810160405280929190818152602001828054610834906135b0565b80156108815780601f1061085657610100808354040283529160200191610881565b820191906000526020600020905b81548152906001019060200180831161086457829003601f168201915b5050505050815260200160048201805480602002602001604051908101604052809291908181526020016000905b828210156108f7576000848152602090819020604080518082019091526002850290910180546001600160a01b031682526001908101548284015290835290920191016108af565b5050505081525050905061096382826080015160008151811061091c5761091c6135e4565b602002602001015160200151836080015160008151811061093f5761093f6135e4565b6020026020010151600001516001600160a01b031661186d9092919063ffffffff16565b60405183907fef3bf8c64bc480286c4f3503b870ceb23e648d2d902e31fb7bb46680da6de8ad90600090a2505050565b60008061099f83610b46565b6001600160a01b0381166000908152600e602052604090205490915060ff166109c95760006109cb565b805b9392505050565b6109da6117f7565b6040516370a0823160e01b81523060048201526000906001600160a01b038316906370a0823190602401602060405180830381865afa158015610a21573d6000803e3d6000fd5b505050506040513d601f19601f82011682018060405250810190610a4591906135fa565b905080600003610a6857604051630686827b60e51b815260040160405180910390fd5b610a7c6001600160a01b038316848361186d565b505050565b610a8b81336118d0565b5050565b610a976117f7565b476000819003610aba57604051630686827b60e51b815260040160405180910390fd5b6000826001600160a01b03168260405160006040518083038185875af1925050503d8060008114610b07576040519150601f19603f3d011682016040523d82523d6000602084013e610b0c565b606091505b5050905080610a7c57604051639d11f56360e01b81523360048201526001600160a01b038416602482015260448101839052606401610716565b604080516001600160a01b038316602082015260009182910160408051601f198184030181529190528051602090910120600c549091506109cb906001600160a01b031682611cdf565b60606000610b9e6006611d3f565b90506000816001600160401b03811115610bba57610bba6130d7565b604051908082528060200260200182016040528015610be3578160200160208202803683370190505b50905060005b82811015610c32576000610bfe600683611d4a565b50905080838381518110610c1457610c146135e4565b60209081029190910101525080610c2a81613629565b915050610be9565b5092915050565b6001546001600160a01b03163314610c8c5760405162461bcd60e51b815260206004820152601660248201527526bab9ba10313290383937b837b9b2b21037bbb732b960511b6044820152606401610716565b60008054336001600160a01b0319808316821784556001805490911690556040516001600160a01b0390921692909183917f8be0079c531659141344cd1fd0a4f28419497f9722a3daafe3b4186f6b6457e091a350565b600c5460408051336020820152600092610d1f926001600160a01b03909116910160405160208183030381529060405280519060200120611d68565b60405163125a023760e01b81529091506001600160a01b0382169063125a023790610d54903390309088908890600401613642565b600060405180830381600087803b158015610d6e57600080fd5b505af1158015610d82573d6000803e3d6000fd5b5050506001600160a01b0382166000908152600e602052604090819020805460ff19166001179055517f188a1419c1523b420621b3b155163853a133ad8e7faeb40de22a5cb51bc0905d9150610ddf903390849087908790613642565b60405180910390a192915050565b600060608082808083610e217f0000000000000000000000000000000000000000000000000000000000000000600a611e05565b610e4c7f0000000000000000000000000000000000000000000000000000000000000000600b611e05565b60408051600080825260208201909252600f60f81b9b939a50919850469750309650945092509050565b336001600160a01b037f00000000000000000000000000000000000000000000000000000000000000001614610ec1576040516335fdcccd60e21b8152336004820152602401610716565b610ed16040820160208301613076565b610ede6040830183613682565b810190610eeb9190612f8e565b6001600160a01b03811660009081526004602052604090205460ff16610f2f576040516368692cbb60e11b81526001600160a01b0382166004820152602401610716565b6040516319ece61f60e31b8152309063cf6730f890610f52908690600401613789565b600060405180830381600087803b158015610f6c57600080fd5b505af1925050508015610f7d575060015b61101d573d808015610fab576040519150601f19603f3d011682016040523d82523d6000602084013e610fb0565b606091505b50610fbd84356001610726565b50833560009081526005602052604090208490610fda8282613a5a565b50506040518435907f55bc02a9ef6f146737edeeb425738006f67f077e7138de3bf84a15bde1a5b56f9061100f90849061345c565b60405180910390a250505050565b604051833581527f6add1b000a149cdd623d1b917b929cfb8df3cf6d89c851bf9a03c76f32453c229060200160405180910390a1505050565b600e600061106a60c0840160a08501612f8e565b6001600160a01b0316815260208101919091526040016000205460ff166110c45760405162461bcd60e51b815260206004820152600e60248201526d2bb937b7339032bc32b1baba37b960911b6044820152606401610716565b336000818152600f60205260408082205491926111d7927f74781246fac501e435337fe95d75dd62ce9862f9abf4844b9250cd71460700be9261110d9060608801908801612f8e565b606087013561112260a0890160808a01613076565b61113260c08a0160a08b01612f8e565b61114260e08b0160c08c01612f8e565b60e08b01356111596101208d016101008e01612f8e565b60408051602081019b909b526001600160a01b03998a16908b015260608a0197909752948716608089015260a08801939093526001600160401b0390911660c0870152841660e08601528316610100850152610120840152166101408201526101600160405160208183030381529060405280519060200120611eb0565b90506112278188888080601f01602080910402602001604051908101604052809392919081815260200183838082843760009201919091525050600d546001600160a01b03169392915050611edd565b6112735760405162461bcd60e51b815260206004820152601860248201527f4d616e616765722076616c69646174696f6e204552524f5200000000000000006044820152606401610716565b8160e00135826060013510156112cb5760405162461bcd60e51b815260206004820152601960248201527f57726f6e6720616d6f756e7420666f72207472616e73666572000000000000006044820152606401610716565b60006001600160a01b038616810361130e573484111561130757604051634787a10360e11b815234600482015260248101859052604401610716565b5082611326565b600954611326906001600160a01b0316333087611f3e565b6000806113396060860160408701612f8e565b6001600160a01b031603611399575060608301356113578282613b1d565b34146113945760405162461bcd60e51b815260206004820152600c60248201526b15dc9bdb99c8185b5bdd5b9d60a21b6044820152606401610716565b6113d2565b6113d2336113ad60c0870160a08801612f8e565b606087018035906113c19060408a01612f8e565b6001600160a01b0316929190611f3e565b6113e260c0850160a08601612f8e565b6001600160a01b0316634271676c826114016060880160408901612f8e565b61141160e0890160c08a01612f8e565b60e08901356114286101208b016101008c01612f8e565b61143860a08c0160808d01613076565b6040516001600160e01b031960e089901b1681526001600160a01b03958616600482015293851660248501526044840192909252831660648301526001600160401b03166084820152908b1660a482015260c481018a905260e4016000604051808303818588803b1580156114ac57600080fd5b505af11580156114c0573d6000803e3d6000fd5b5050505050505050505050505050565b6114d86117f7565b6001600160401b03919091166000908152600260205260409020805460ff1916911515919091179055565b3330146115235760405163029a949d60e31b815260040160405180910390fd5b6115336040820160208301613076565b6115406040830183613682565b81019061154d9190612f8e565b6001600160a01b03811660009081526004602052604090205460ff16611591576040516368692cbb60e11b81526001600160a01b0382166004820152602401610716565b610a7c61159d84613bfc565b611f7c565b60056020526000908152604090208054600182015460028301805492936001600160401b03909216926115d4906135b0565b80601f0160208091040260200160405190810160405280929190818152602001828054611600906135b0565b801561164d5780601f106116225761010080835404028352916020019161164d565b820191906000526020600020905b81548152906001019060200180831161163057829003601f168201915b505050505090806003018054611662906135b0565b80601f016020809104026020016040519081016040528092919081815260200182805461168e906135b0565b80156116db5780601f106116b0576101008083540402835291602001916116db565b820191906000526020600020905b8154815290600101906020018083116116be57829003601f168201915b5050505050905084565b6116ed6117f7565b6001600160401b03919091166000908152600360205260409020805460ff1916911515919091179055565b33301461175b5760405162461bcd60e51b81526020600482015260116024820152704f6e6c792073797374656d2063616c6c7360781b6044820152606401610716565b610a7c82826118d0565b61176d6117f7565b6001600160a01b03919091166000908152600460205260409020805460ff1916911515919091179055565b60005b81811015610a7c576117d08383838181106117b8576117b86135e4565b90506020028101906117ca9190613ca8565b336118d0565b50806117db81613629565b91505061179b565b6117eb6117f7565b6117f4816121da565b50565b6000546001600160a01b0316331461184a5760405162461bcd60e51b815260206004820152601660248201527527b7363c9031b0b63630b1363290313c9037bbb732b960511b6044820152606401610716565b565b60006109cb8383612283565b60006118658484846122f3565b949350505050565b6040516001600160a01b038316602482015260448101829052610a7c90849063a9059cbb60e01b906064015b60408051601f198184030181529190526020810180516001600160e01b03166001600160e01b031990931692909217909152612310565b60006118df6020840184613076565b60006118f361012086016101008701612f8e565b6001600160a01b0316148061192c57506009546001600160a01b031661192161012086016101008701612f8e565b6001600160a01b0316145b6119785760405162461bcd60e51b815260206004820152601760248201527f57726f6e672066656520746f6b656e20616464726573730000000000000000006044820152606401610716565b60006119908461198b6040880188613682565b6123e2565b905060006119da6119a76040880160208901612f8e565b836119b860e08a0160c08b01612f8e565b60e08a01356119cf6101208c016101008d01612f8e565b8b6101200135612414565b90506000306001600160a01b031663b0f479a16040518163ffffffff1660e01b8152600401602060405180830381865afa158015611a1c573d6000803e3d6000fd5b505050506040513d601f19601f82011682018060405250810190611a409190613cd4565b905060006001600160a01b0382166320487ded611a6060208b018b613076565b856040518363ffffffff1660e01b8152600401611a7e929190613d35565b602060405180830381865afa158015611a9b573d6000803e3d6000fd5b505050506040513d601f19601f82011682018060405250810190611abf91906135fa565b90506000611ad56101208a016101008b01612f8e565b6001600160a01b0316600003611b165747821115611b0f57604051634787a10360e11b815247600482015260248101839052604401610716565b5080611bb8565b6009546040516370a0823160e01b81523060048201526001600160a01b03909116906370a0823190602401602060405180830381865afa158015611b5e573d6000803e3d6000fd5b505050506040513d601f19601f82011682018060405250810190611b8291906135fa565b821115611ba157600954611ba1906001600160a01b0316333085611f3e565b600954611bb8906001600160a01b031684846125da565b6000611bca60e08b0160c08c01612f8e565b6001600160a01b031614611c1957611bf1333060e08c018035906113c19060c08f01612f8e565b611c198360e08b01803590611c099060c08e01612f8e565b6001600160a01b031691906125da565b6001600160a01b0383166396f4e9f982611c3660208d018d613076565b876040518463ffffffff1660e01b8152600401611c54929190613d35565b60206040518083038185885af1158015611c72573d6000803e3d6000fd5b50505050506040513d601f19601f82011682018060405250810190611c9791906135fa565b9650867fed4e05800ee76a1cf5c649a0ec4133b0a0623d66d032e46129fb268501a631748a84604051611ccb929190613dcc565b60405180910390a250505050505092915050565b6040513060388201526f5af43d82803e903d91602b57fd5bf3ff602482015260148101839052733d602d80600a3d3981f3363d3d373d3d3d363d738152605881018290526037600c820120607882015260556043909101206000906109cb565b60006106de826126ef565b6000808080611d5986866126fa565b909450925050505b9250929050565b6000763d602d80600a3d3981f3363d3d373d3d3d363d730000008360601b60e81c176000526e5af43d82803e903d91602b57fd5bf38360781b1760205281603760096000f590506001600160a01b0381166106de5760405162461bcd60e51b815260206004820152601760248201527f455243313136373a2063726561746532206661696c65640000000000000000006044820152606401610716565b606060ff8314611e1f57611e1883612725565b90506106de565b818054611e2b906135b0565b80601f0160208091040260200160405190810160405280929190818152602001828054611e57906135b0565b8015611ea45780601f10611e7957610100808354040283529160200191611ea4565b820191906000526020600020905b815481529060010190602001808311611e8757829003601f168201915b505050505090506106de565b60006106de611ebd612764565b8360405161190160f01b8152600281019290925260228201526042902090565b6000806000611eec8585612894565b90925090506000816004811115611f0557611f0561359a565b148015611f235750856001600160a01b0316826001600160a01b0316145b80611f345750611f348686866128d6565b9695505050505050565b6040516001600160a01b0380851660248301528316604482015260648101829052611f769085906323b872dd60e01b90608401611899565b50505050565b80602001518160400151806020019051810190611f999190613cd4565b6001600160a01b03811660009081526004602052604090205460ff16611fdd576040516368692cbb60e11b81526001600160a01b0382166004820152602401610716565b600080611fed85606001516129c2565b915091506000818060200190518101906120079190613f32565b90506120168160a00151612ae8565b6120e15760608101516001600160a01b03166000908152600e602052604090205460ff16156120a457826001600160a01b031681606001516001600160a01b0316146120a45760405162461bcd60e51b815260206004820152601b60248201527f57726f6e67207265717565737420666f7220657865637574696f6e00000000006044820152606401610716565b60006120de604051806060016040528084606001516001600160a01b03168152602001846080015181526020018460a00151815250612b3f565b50505b6120ee8160400151612ae8565b61216557806040015180602001905181019061210a9190613f32565b604051633947cbf960e21b8152909150309063e51f2fe490612132908490879060040161403e565b600060405180830381600087803b15801561214c57600080fd5b505af1158015612160573d6000803e3d6000fd5b505050505b85602001516001600160401b031686600001517f2b2e90750cb6711d89e87ed30fec54a035b7f38b54b0d7caeb62757d6f78bbb888604001518060200190518101906121b19190613cd4565b89606001518a608001516040516121ca9392919061412f565b60405180910390a3505050505050565b336001600160a01b038216036122325760405162461bcd60e51b815260206004820152601760248201527f43616e6e6f74207472616e7366657220746f2073656c660000000000000000006044820152606401610716565b600180546001600160a01b0319166001600160a01b0383811691821790925560008054604051929316917fed8889f560326eb138920d842192f0eb3dd22b4f139c87a2c57538e05bae12789190a350565b6000818152600283016020526040812054801515806122a757506122a78484612c0c565b6109cb5760405162461bcd60e51b815260206004820152601e60248201527f456e756d657261626c654d61703a206e6f6e6578697374656e74206b657900006044820152606401610716565b600082815260028401602052604081208290556118658484612c18565b6000612365826040518060400160405280602081526020017f5361666545524332303a206c6f772d6c6576656c2063616c6c206661696c6564815250856001600160a01b0316612c249092919063ffffffff16565b805190915015610a7c57808060200190518101906123839190614165565b610a7c5760405162461bcd60e51b815260206004820152602a60248201527f5361666545524332303a204552433230206f7065726174696f6e20646964206e6044820152691bdd081cdd58d8d9595960b21b6064820152608401610716565b60608360601b83836040516020016123fc93929190614182565b60405160208183030381529060405290509392505050565b61244f6040518060a0016040528060608152602001606081526020016060815260200160006001600160a01b03168152602001606081525090565b60608460000361249e576040805160008082526020820190925290612496565b604080518082019091526000808252602082015281526020019060019003908161246f5790505b509050612519565b60408051600180825281830190925290816020015b60408051808201909152600080825260208201528152602001906001900390816124b35790505090506040518060400160405280876001600160a01b03168152602001868152508160008151811061250d5761250d6135e4565b60200260200101819052505b6040805160a081019091526001600160a01b03891660c08201528060e081016040516020818303038152906040528152602001888152602001828152602001856001600160a01b031681526020016125cc6040518060400160405280878152602001600015158152506040805182516024820152602092830151151560448083019190915282518083039091018152606490910190915290810180516001600160e01b03166397a657c960e01b17905290565b905298975050505050505050565b8015806126545750604051636eb1769f60e11b81523060048201526001600160a01b03838116602483015284169063dd62ed3e90604401602060405180830381865afa15801561262e573d6000803e3d6000fd5b505050506040513d601f19601f8201168201806040525081019061265291906135fa565b155b6126bf5760405162461bcd60e51b815260206004820152603660248201527f5361666545524332303a20617070726f76652066726f6d206e6f6e2d7a65726f60448201527520746f206e6f6e2d7a65726f20616c6c6f77616e636560501b6064820152608401610716565b6040516001600160a01b038316602482015260448101829052610a7c90849063095ea7b360e01b90606401611899565b60006106de82612c33565b600080806127088585612c3d565b600081815260029690960160205260409095205494959350505050565b6060600061273283612c49565b604080516020808252818301909252919250600091906020820181803683375050509182525060208101929092525090565b6000306001600160a01b037f0000000000000000000000000000000000000000000000000000000000000000161480156127bd57507f000000000000000000000000000000000000000000000000000000000000000046145b156127e757507f000000000000000000000000000000000000000000000000000000000000000090565b61288f604080517f8b73c3c69bb8fe3d512ecc4cf759cc79239f7b179b0ffacaa9a75d522b39400f60208201527f0000000000000000000000000000000000000000000000000000000000000000918101919091527f000000000000000000000000000000000000000000000000000000000000000060608201524660808201523060a082015260009060c00160405160208183030381529060405280519060200120905090565b905090565b60008082516041036128ca5760208301516040840151606085015160001a6128be87828585612c71565b94509450505050611d61565b50600090506002611d61565b6000806000856001600160a01b0316631626ba7e60e01b86866040516024016129009291906141ab565b60408051601f198184030181529181526020820180516001600160e01b03166001600160e01b031990941693909317909252905161293e91906141c4565b600060405180830381855afa9150503d8060008114612979576040519150601f19603f3d011682016040523d82523d6000602084013e61297e565b606091505b509150915081801561299257506020815110155b8015611f3457508051630b135d3f60e11b906129b790830160209081019084016135fa565b149695505050505050565b60006060601483511015612a0e5760405162461bcd60e51b8152602060048201526013602482015272092dce6eaccccd2c6d2cadce840d8cadccee8d606b1b6044820152606401610716565b600060148401519050600060148551612a2791906141d6565b6001600160401b03811115612a3e57612a3e6130d7565b6040519080825280601f01601f191660200182016040528015612a68576020820181803683370190505b50905060145b8551811015612add57858181518110612a8957612a896135e4565b01602001516001600160f81b03191682612aa46014846141d6565b81518110612ab457612ab46135e4565b60200101906001600160f81b031916908160001a90535080612ad581613629565b915050612a6e565b509094909350915050565b6000805b8251811015612b3657828181518110612b0757612b076135e4565b01602001516001600160f81b03191615612b245750600092915050565b80612b2e81613629565b915050612aec565b50600192915050565b6060600082600001516001600160a01b031683602001518460400151604051612b6891906141c4565b60006040518083038185875af1925050503d8060008114612ba5576040519150601f19603f3d011682016040523d82523d6000602084013e612baa565b606091505b509250905080612bcf5781604051630c3691ed60e41b8152600401610716919061345c565b7f08851e519ab403ee5bf7610f548834afaceaa6c8148bd48590d6e4a04fba283083604051612bfe91906141e9565b60405180910390a150919050565b60006109cb8383612d35565b60006109cb8383612d4d565b60606118658484600085612d9c565b60006106de825490565b60006109cb8383612e77565b600060ff8216601f8111156109c957604051632cd44ac360e21b815260040160405180910390fd5b6000807f7fffffffffffffffffffffffffffffff5d576e7357a4501ddfe92f46681b20a0831115612ca85750600090506003612d2c565b6040805160008082526020820180845289905260ff881692820192909252606081018690526080810185905260019060a0016020604051602081039080840390855afa158015612cfc573d6000803e3d6000fd5b5050604051601f1901519150506001600160a01b038116612d2557600060019250925050612d2c565b9150600090505b94509492505050565b600081815260018301602052604081205415156109cb565b6000818152600183016020526040812054612d94575081546001818101845560008481526020808220909301849055845484825282860190935260409020919091556106de565b5060006106de565b606082471015612dfd5760405162461bcd60e51b815260206004820152602660248201527f416464726573733a20696e73756666696369656e742062616c616e636520666f6044820152651c8818d85b1b60d21b6064820152608401610716565b600080866001600160a01b03168587604051612e1991906141c4565b60006040518083038185875af1925050503d8060008114612e56576040519150601f19603f3d011682016040523d82523d6000602084013e612e5b565b606091505b5091509150612e6c87838387612ea1565b979650505050505050565b6000826000018281548110612e8e57612e8e6135e4565b9060005260206000200154905092915050565b60608315612f10578251600003612f09576001600160a01b0385163b612f095760405162461bcd60e51b815260206004820152601d60248201527f416464726573733a2063616c6c20746f206e6f6e2d636f6e74726163740000006044820152606401610716565b5081611865565b6118658383815115612f255781518083602001fd5b8060405162461bcd60e51b8152600401610716919061345c565b600060208284031215612f5157600080fd5b81356001600160e01b0319811681146109cb57600080fd5b6001600160a01b03811681146117f457600080fd5b8035612f8981612f69565b919050565b600060208284031215612fa057600080fd5b81356109cb81612f69565b60008060408385031215612fbe57600080fd5b823591506020830135612fd081612f69565b809150509250929050565b60008060408385031215612fee57600080fd5b8235612ff981612f69565b91506020830135612fd081612f69565b6000610140828403121561301c57600080fd5b50919050565b60006020828403121561303457600080fd5b81356001600160401b0381111561304a57600080fd5b61186584828501613009565b6001600160401b03811681146117f457600080fd5b8035612f8981613056565b60006020828403121561308857600080fd5b81356109cb81613056565b6020808252825182820181905260009190848201906040850190845b818110156130cb578351835292840192918401916001016130af565b50909695505050505050565b634e487b7160e01b600052604160045260246000fd5b604080519081016001600160401b038111828210171561310f5761310f6130d7565b60405290565b60405160a081016001600160401b038111828210171561310f5761310f6130d7565b60405161014081016001600160401b038111828210171561310f5761310f6130d7565b604051601f8201601f191681016001600160401b0381118282101715613182576131826130d7565b604052919050565b60006001600160401b038211156131a3576131a36130d7565b50601f01601f191660200190565b60006131c46131bf8461318a565b61315a565b90508281528383830111156131d857600080fd5b828260208301376000602084830101529392505050565b6000806040838503121561320257600080fd5b82356001600160401b0381111561321857600080fd5b8301601f8101851361322957600080fd5b613238858235602084016131b1565b925050602083013560ff81168114612fd057600080fd5b60005b8381101561326a578181015183820152602001613252565b50506000910152565b6000815180845261328b81602086016020860161324f565b601f01601f19169290920160200192915050565b60ff60f81b881681526000602060e0818401526132bf60e084018a613273565b83810360408501526132d1818a613273565b606085018990526001600160a01b038816608086015260a0850187905284810360c0860152855180825283870192509083019060005b8181101561332357835183529284019291840191600101613307565b50909c9b505050505050505050505050565b60006020828403121561334757600080fd5b81356001600160401b0381111561335d57600080fd5b820160a081850312156109cb57600080fd5b6000806000806000808688036101a081121561338a57600080fd5b87356001600160401b03808211156133a157600080fd5b818a0191508a601f8301126133b557600080fd5b8135818111156133c457600080fd5b8b60208285010111156133d657600080fd5b602092830199509750508801356133ec81612f69565b94506040880135935060608801359250610120607f198201121561340f57600080fd5b506080870190509295509295509295565b80151581146117f457600080fd5b6000806040838503121561344157600080fd5b823561344c81613056565b91506020830135612fd081613420565b6020815260006109cb6020830184613273565b60006020828403121561348157600080fd5b5035919050565b8481526001600160401b03841660208201526080604082015260006134b06080830185613273565b8281036060840152612e6c8185613273565b600080604083850312156134d557600080fd5b82356001600160401b038111156134eb57600080fd5b6134f785828601613009565b9250506020830135612fd081612f69565b6000806040838503121561351b57600080fd5b823561344c81612f69565b6000806020838503121561353957600080fd5b82356001600160401b038082111561355057600080fd5b818501915085601f83011261356457600080fd5b81358181111561357357600080fd5b8660208260051b850101111561358857600080fd5b60209290920196919550909350505050565b634e487b7160e01b600052602160045260246000fd5b600181811c908216806135c457607f821691505b60208210810361301c57634e487b7160e01b600052602260045260246000fd5b634e487b7160e01b600052603260045260246000fd5b60006020828403121561360c57600080fd5b5051919050565b634e487b7160e01b600052601160045260246000fd5b60006001820161363b5761363b613613565b5060010190565b6001600160a01b0385811682528416602082015260806040820181905260009061366e90830185613273565b905060ff8316606083015295945050505050565b6000808335601e1984360301811261369957600080fd5b8301803591506001600160401b038211156136b357600080fd5b602001915036819003821315611d6157600080fd5b6000808335601e198436030181126136df57600080fd5b83016020810192503590506001600160401b038111156136fe57600080fd5b803603821315611d6157600080fd5b81835281816020850137506000828201602090810191909152601f909101601f19169091010190565b8183526000602080850194508260005b8581101561377e57813561375981612f69565b6001600160a01b03168752818301358388015260409687019690910190600101613746565b509495945050505050565b6020815281356020820152600060208301356137a481613056565b6001600160401b0380821660408501526137c160408601866136c8565b925060a060608601526137d860c08601848361370d565b9250506137e860608601866136c8565b601f198087860301608088015261380085838561370d565b945060808801359250601e1988360301831261381b57600080fd5b6020928801928301923591508382111561383457600080fd5b8160061b360383131561384657600080fd5b8685030160a0870152612e6c848284613736565b601f821115610a7c57600081815260208120601f850160051c810160208610156138815750805b601f850160051c820191505b818110156138a05782815560010161388d565b505050505050565b6001600160401b038311156138bf576138bf6130d7565b6138d3836138cd83546135b0565b8361385a565b6000601f84116001811461390757600085156138ef5750838201355b600019600387901b1c1916600186901b178355613961565b600083815260209020601f19861690835b828110156139385786850135825560209485019460019092019101613918565b50868210156139555760001960f88860031b161c19848701351681555b505060018560011b0183555b5050505050565b813561397381612f69565b81546001600160a01b0319166001600160a01b03919091161781556020919091013560019190910155565b680100000000000000008311156139b7576139b76130d7565b805483825580841015613a255760016001600160ff1b0382811683146139df576139df613613565b80861686146139f0576139f0613613565b5060008381526020812086831b81019084841b015b80821015613a20578282558284830155600282019150613a05565b505050505b5060008181526020812083915b858110156138a057613a448383613968565b6040929092019160029190910190600101613a32565b81358155600181016020830135613a7081613056565b6001600160401b038082166001600160401b0319845416178355613a976040860186613682565b93509150613aa98383600287016138a8565b613ab66060860186613682565b93509150613ac88383600387016138a8565b60808501359250601e19853603018312613ae157600080fd5b918401918235915080821115613af657600080fd5b506020820191508060061b3603821315613b0f57600080fd5b611f7681836004860161399e565b808201808211156106de576106de613613565b600082601f830112613b4157600080fd5b6109cb838335602085016131b1565b600082601f830112613b6157600080fd5b813560206001600160401b03821115613b7c57613b7c6130d7565b613b8a818360051b0161315a565b82815260069290921b84018101918181019086841115613ba957600080fd5b8286015b84811015613bf15760408189031215613bc65760008081fd5b613bce6130ed565b8135613bd981612f69565b81528185013585820152835291830191604001613bad565b509695505050505050565b600060a08236031215613c0e57600080fd5b613c16613115565b82358152613c266020840161306b565b602082015260408301356001600160401b0380821115613c4557600080fd5b613c5136838701613b30565b60408401526060850135915080821115613c6a57600080fd5b613c7636838701613b30565b60608401526080850135915080821115613c8f57600080fd5b50613c9c36828601613b50565b60808301525092915050565b6000823561013e19833603018112613cbf57600080fd5b9190910192915050565b8051612f8981612f69565b600060208284031215613ce657600080fd5b81516109cb81612f69565b600081518084526020808501945080840160005b8381101561377e57815180516001600160a01b031688528301518388015260409096019590820190600101613d05565b6001600160401b0383168152604060208201526000825160a06040840152613d6060e0840182613273565b90506020840151603f1980858403016060860152613d7e8383613273565b92506040860151915080858403016080860152613d9b8383613cf1565b60608701516001600160a01b031660a0870152608087015186820390920160c087015292509050611f348282613273565b60408152613ded60408201613de08561306b565b6001600160401b03169052565b6000613dfb60208501612f7e565b6001600160a01b03166060830152613e1660408501856136c8565b610140806080860152613e2e6101808601838561370d565b9250613e3c60608801612f7e565b6001600160a01b03811660a08701529150608087013560c0860152613e6460a08801886136c8565b868503603f190160e08801529250613e7d84848361370d565b935050613e8c60c08801612f7e565b9150610100613ea5818701846001600160a01b03169052565b610120925060e088013583870152613ebe818901612f7e565b6001600160a01b031691860191909152509490940135610160830152506020015290565b8051612f8981613056565b600082601f830112613efe57600080fd5b8151613f0c6131bf8261318a565b818152846020838601011115613f2157600080fd5b61186582602083016020870161324f565b600060208284031215613f4457600080fd5b81516001600160401b0380821115613f5b57600080fd5b908301906101408286031215613f7057600080fd5b613f78613137565b613f8183613ee2565b8152613f8f60208401613cc9565b6020820152604083015182811115613fa657600080fd5b613fb287828601613eed565b604083015250613fc460608401613cc9565b60608201526080830151608082015260a083015182811115613fe557600080fd5b613ff187828601613eed565b60a08301525061400360c08401613cc9565b60c082015260e083015160e08201526101009150614022828401613cc9565b9181019190915261012091820151918101919091529392505050565b604081526140586040820184516001600160401b03169052565b6000602084015161407460608401826001600160a01b03169052565b506040840151610140806080850152614091610180850183613273565b915060608601516140ad60a08601826001600160a01b03169052565b50608086015160c085015260a0860151848303603f190160e08601526140d38382613273565b92505060c08601516101006140f2818701836001600160a01b03169052565b60e088015161012087810191909152908801516001600160a01b0390811693870193909352870151610160860152508416602084015290506109cb565b6001600160a01b038416815260606020820181905260009061415390830185613273565b8281036040840152611f348185613cf1565b60006020828403121561417757600080fd5b81516109cb81613420565b6bffffffffffffffffffffffff1984168152818360148301376000910160140190815292915050565b8281526040602082015260006118656040830184613273565b60008251613cbf81846020870161324f565b818103818111156106de576106de613613565b6020815260018060a01b0382511660208201526020820151604082015260006040830151606080840152611865608084018261327356fea264697066735822122029b5c6d0d5f770525a151b924593843f672da8555b2c8597065f2c3c4278c0fa64736f6c63430008130033",
  "devdoc": {
    "details": "The main contract for handling transshipment operations. Implements ITransshipment interface, includes TransshipmentWorker functionality, and uses EIP712 for structured signature verification.",
    "events": {
      "EIP712DomainChanged()": {
        "details": "MAY be emitted to signal that the domain could have changed."
      }
    },
    "kind": "dev",
    "methods": {
      "allowlistDestinationChain(uint64,bool)": {
        "details": "Updates the allowlist status of a destination chain for transactions.",
        "params": {
          "_destinationChainSelector": "The selector of the destination chain to be updated.",
          "allowed": "The allowlist status to be set for the destination chain."
        }
      },
      "allowlistSender(address,bool)": {
        "details": "Updates the allowlist status of a sender for transactions.",
        "params": {
          "_sender": "The address of the sender to be updated.",
          "allowed": "The allowlist status to be set for the sender."
        }
      },
      "allowlistSourceChain(uint64,bool)": {
        "details": "Updates the allowlist status of a source chain",
        "params": {
          "_sourceChainSelector": "The selector of the source chain to be updated.",
          "allowed": "The allowlist status to be set for the source chain."
        }
      },
      "bridgeTokens(bytes,address,uint256,uint256,(address,uint256,address,uint256,uint64,address,address,uint256,address))": {
        "details": "Initiates the bridging of tokens from the current chain to another chain using the Cross-Chain Interaction Protocol (CCIP).",
        "params": {
          "feeAmount": "The amount of the transaction fee.",
          "feeToken": "The address of the token used for the transaction fee, or the zero address for ETH.",
          "gasLimit": "The gas limit for the CCIP message execution on the destination chain.",
          "managerProof": "The cryptographic proof validating the manager's signature.",
          "params": "The parameters for the token bridge operation, including user address, nonce, source and destination token details, and receiver. Requirements: - The destination executor must be a valid account in the system. - The manager's signature must be valid based on the provided proof. - The source token amount must be greater than or equal to the destination token amount. - For ETH transactions, the provided ETH value must cover both the source token amount and the transaction fee. - For token transactions, the user must approve the contract to transfer the source token amount. Emits a {Bridge} event upon successful token bridging."
        }
      },
      "ccipReceive((bytes32,uint64,bytes,bytes,(address,uint256)[]))": {
        "details": "Extremely important to ensure only router calls this.",
        "params": {
          "any2EvmMessage": "The message to process."
        }
      },
      "createAccount(string,uint8)": {
        "details": "Creates a new account for the caller.",
        "params": {
          "accountType": "The type of the account.",
          "name": "The name associated with the account."
        },
        "returns": {
          "accountAddress": "The address of the created account. Emits an {AccountCreated} event upon successful account creation."
        }
      },
      "eip712Domain()": {
        "details": "See {EIP-5267}. _Available since v4.9._"
      },
      "getAccountAddress(address)": {
        "details": "Calculates the deterministic address for an account based on the user's address.",
        "params": {
          "userAddress": "The address of the user."
        },
        "returns": {
          "_0": "accountAddress The deterministic address for the account."
        }
      },
      "getCreatedAccountAddress(address)": {
        "details": "Retrieves the address of the created account for a given user.",
        "params": {
          "userAddress": "The address of the user."
        },
        "returns": {
          "_0": "accountAddress The address of the created account, or address(0) if no account exists."
        }
      },
      "getFailedMessagesIds()": {
        "details": "Iterates over the `s_failedMessages` map, collecting all keys.",
        "returns": {
          "ids": "An array of bytes32 containing the IDs of failed messages from the `s_failedMessages` map."
        }
      },
      "getRouter()": {
        "returns": {
          "_0": "i_router address"
        }
      },
      "processMessage((bytes32,uint64,bytes,bytes,(address,uint256)[]))": {
        "details": "Transfers specified token amounts to the owner of this contract. This function  must be external because of the  try/catch for error handling.  It uses the `onlySelf`: can only be called from the contract.",
        "params": {
          "any2EvmMessage": "Received CCIP message."
        }
      },
      "retryFailedMessage(bytes32,address)": {
        "details": "This function is only callable by the contract owner. It changes the status of the message from 'failed' to 'resolved' to prevent reentry and multiple retries of the same message.",
        "params": {
          "messageId": "The unique identifier of the failed message.",
          "tokenReceiver": "The address to which the tokens will be sent."
        }
      },
      "sendMassage((uint64,address,bytes,address,uint256,bytes,address,uint256,address,uint256))": {
        "details": "Sends a Cross-Chain Interaction Protocol (CCIP) message initiated by a regular user.",
        "params": {
          "massageParam": "The parameters of the message, including receiver, data to send, token, amount, fee token, and gas limit. Requirements: - The user must provide sufficient Ether for gas fees. - The fee token must be either the zero address or the LINK token. - If the fee token is LINK, the contract must have sufficient LINK tokens or the user must provide them. - If the token is not the zero address, the contract must have sufficient tokens and the user must approve the contract. Emits a {MessageSent} event indicating the successful sending of the CCIP message."
        }
      },
      "sendUniversalMassage((uint64,address,bytes,address,uint256,bytes,address,uint256,address,uint256)[])": {
        "details": "Sends multiple universal messages to the system.",
        "params": {
          "massageParams": "An array of MassageParam structures representing the messages to be sent. Emits a {MessageSent} event for each message upon successful execution."
        }
      },
      "supportsInterface(bytes4)": {
        "params": {
          "interfaceId": "The interfaceId to check"
        },
        "returns": {
          "_0": "true if the interfaceId is supported"
        }
      },
      "systemSendMassage((uint64,address,bytes,address,uint256,bytes,address,uint256,address,uint256),address)": {
        "details": "Sends a Cross-Chain Interaction Protocol (CCIP) message initiated by the system.",
        "params": {
          "massageParam": "The parameters of the message, including receiver, data to send, token, amount, fee token, and gas limit.",
          "senderAddress": "The address of the sender initiating the message. Requirements: - The function must be called by the contract itself (system calls only). Emits a {MessageSent} event indicating the successful sending of the CCIP message."
        }
      },
      "withdraw(address)": {
        "details": "This function reverts if there are no funds to withdraw or if the transfer fails.  It should only be callable by the owner of the contract.",
        "params": {
          "_beneficiary": "The address to which the Ether should be sent."
        }
      },
      "withdrawToken(address,address)": {
        "details": "This function reverts with a 'NothingToWithdraw' error if there are no tokens to withdraw.",
        "params": {
          "_beneficiary": "The address to which the tokens will be sent.",
          "_token": "The contract address of the ERC20 token to be withdrawn."
        }
      }
    },
    "title": "Transshipment",
    "version": 1
  },
  "userdoc": {
    "kind": "user",
    "methods": {
      "acceptOwnership()": {
        "notice": "Allows an ownership transfer to be completed by the recipient."
      },
      "allowlistDestinationChain(uint64,bool)": {
        "notice": "This function can only be called by the owner."
      },
      "allowlistSender(address,bool)": {
        "notice": "This function can only be called by the owner."
      },
      "allowlistSourceChain(uint64,bool)": {
        "notice": "This function can only be called by the owner."
      },
      "ccipReceive((bytes32,uint64,bytes,bytes,(address,uint256)[]))": {
        "notice": "The entrypoint for the CCIP router to call. This function should  never revert, all errors should be handled internally in this contract."
      },
      "getFailedMessagesIds()": {
        "notice": "Retrieves the IDs of failed messages from the `s_failedMessages` map."
      },
      "getRouter()": {
        "notice": "Return the current router"
      },
      "owner()": {
        "notice": "Get the current owner"
      },
      "processMessage((bytes32,uint64,bytes,bytes,(address,uint256)[]))": {
        "notice": "Serves as the entry point for this contract to process incoming messages."
      },
      "retryFailedMessage(bytes32,address)": {
        "notice": "Allows the owner to retry a failed message in order to unblock the associated tokens."
      },
      "supportsInterface(bytes4)": {
        "notice": "IERC165 supports an interfaceId"
      },
      "transferOwnership(address)": {
        "notice": "Allows an owner to begin transferring ownership to a new address, pending."
      },
      "withdraw(address)": {
        "notice": "Allows the contract owner to withdraw the entire balance of Ether from the contract."
      },
      "withdrawToken(address,address)": {
        "notice": "Allows the owner of the contract to withdraw all tokens of a specific ERC20 token."
      }
    },
    "version": 1
  },
  "storageLayout": {
    "storage": [
      {
        "astId": 27,
        "contract": "contracts/Transshipment.sol:Transshipment",
        "label": "s_owner",
        "offset": 0,
        "slot": "0",
        "type": "t_address"
      },
      {
        "astId": 29,
        "contract": "contracts/Transshipment.sol:Transshipment",
        "label": "s_pendingOwner",
        "offset": 0,
        "slot": "1",
        "type": "t_address"
      },
      {
        "astId": 6097,
        "contract": "contracts/Transshipment.sol:Transshipment",
        "label": "allowlistedDestinationChains",
        "offset": 0,
        "slot": "2",
        "type": "t_mapping(t_uint64,t_bool)"
      },
      {
        "astId": 6101,
        "contract": "contracts/Transshipment.sol:Transshipment",
        "label": "allowlistedSourceChains",
        "offset": 0,
        "slot": "3",
        "type": "t_mapping(t_uint64,t_bool)"
      },
      {
        "astId": 6105,
        "contract": "contracts/Transshipment.sol:Transshipment",
        "label": "allowlistedSenders",
        "offset": 0,
        "slot": "4",
        "type": "t_mapping(t_address,t_bool)"
      },
      {
        "astId": 6110,
        "contract": "contracts/Transshipment.sol:Transshipment",
        "label": "s_messageContents",
        "offset": 0,
        "slot": "5",
        "type": "t_mapping(t_bytes32,t_struct(Any2EVMMessage)386_storage)"
      },
      {
        "astId": 6113,
        "contract": "contracts/Transshipment.sol:Transshipment",
        "label": "s_failedMessages",
        "offset": 0,
        "slot": "6",
        "type": "t_struct(Bytes32ToUintMap)2131_storage"
      },
      {
        "astId": 6116,
        "contract": "contracts/Transshipment.sol:Transshipment",
        "label": "s_linkToken",
        "offset": 0,
        "slot": "9",
        "type": "t_contract(IERC20)533"
      },
      {
        "astId": 4065,
        "contract": "contracts/Transshipment.sol:Transshipment",
        "label": "_nameFallback",
        "offset": 0,
        "slot": "10",
        "type": "t_string_storage"
      },
      {
        "astId": 4067,
        "contract": "contracts/Transshipment.sol:Transshipment",
        "label": "_versionFallback",
        "offset": 0,
        "slot": "11",
        "type": "t_string_storage"
      },
      {
        "astId": 5351,
        "contract": "contracts/Transshipment.sol:Transshipment",
        "label": "accountImplementation",
        "offset": 0,
        "slot": "12",
        "type": "t_address"
      },
      {
        "astId": 5353,
        "contract": "contracts/Transshipment.sol:Transshipment",
        "label": "manager",
        "offset": 0,
        "slot": "13",
        "type": "t_address"
      },
      {
        "astId": 5357,
        "contract": "contracts/Transshipment.sol:Transshipment",
        "label": "accounts",
        "offset": 0,
        "slot": "14",
        "type": "t_mapping(t_address,t_bool)"
      },
      {
        "astId": 5361,
        "contract": "contracts/Transshipment.sol:Transshipment",
        "label": "userNonce",
        "offset": 0,
        "slot": "15",
        "type": "t_mapping(t_address,t_uint256)"
      }
    ],
    "types": {
      "t_address": {
        "encoding": "inplace",
        "label": "address",
        "numberOfBytes": "20"
      },
      "t_array(t_bytes32)dyn_storage": {
        "base": "t_bytes32",
        "encoding": "dynamic_array",
        "label": "bytes32[]",
        "numberOfBytes": "32"
      },
      "t_array(t_struct(EVMTokenAmount)373_storage)dyn_storage": {
        "base": "t_struct(EVMTokenAmount)373_storage",
        "encoding": "dynamic_array",
        "label": "struct Client.EVMTokenAmount[]",
        "numberOfBytes": "32"
      },
      "t_bool": {
        "encoding": "inplace",
        "label": "bool",
        "numberOfBytes": "1"
      },
      "t_bytes32": {
        "encoding": "inplace",
        "label": "bytes32",
        "numberOfBytes": "32"
      },
      "t_bytes_storage": {
        "encoding": "bytes",
        "label": "bytes",
        "numberOfBytes": "32"
      },
      "t_contract(IERC20)533": {
        "encoding": "inplace",
        "label": "contract IERC20",
        "numberOfBytes": "20"
      },
      "t_mapping(t_address,t_bool)": {
        "encoding": "mapping",
        "key": "t_address",
        "label": "mapping(address => bool)",
        "numberOfBytes": "32",
        "value": "t_bool"
      },
      "t_mapping(t_address,t_uint256)": {
        "encoding": "mapping",
        "key": "t_address",
        "label": "mapping(address => uint256)",
        "numberOfBytes": "32",
        "value": "t_uint256"
      },
      "t_mapping(t_bytes32,t_bytes32)": {
        "encoding": "mapping",
        "key": "t_bytes32",
        "label": "mapping(bytes32 => bytes32)",
        "numberOfBytes": "32",
        "value": "t_bytes32"
      },
      "t_mapping(t_bytes32,t_struct(Any2EVMMessage)386_storage)": {
        "encoding": "mapping",
        "key": "t_bytes32",
        "label": "mapping(bytes32 => struct Client.Any2EVMMessage)",
        "numberOfBytes": "32",
        "value": "t_struct(Any2EVMMessage)386_storage"
      },
      "t_mapping(t_bytes32,t_uint256)": {
        "encoding": "mapping",
        "key": "t_bytes32",
        "label": "mapping(bytes32 => uint256)",
        "numberOfBytes": "32",
        "value": "t_uint256"
      },
      "t_mapping(t_uint64,t_bool)": {
        "encoding": "mapping",
        "key": "t_uint64",
        "label": "mapping(uint64 => bool)",
        "numberOfBytes": "32",
        "value": "t_bool"
      },
      "t_string_storage": {
        "encoding": "bytes",
        "label": "string",
        "numberOfBytes": "32"
      },
      "t_struct(Any2EVMMessage)386_storage": {
        "encoding": "inplace",
        "label": "struct Client.Any2EVMMessage",
        "members": [
          {
            "astId": 375,
            "contract": "contracts/Transshipment.sol:Transshipment",
            "label": "messageId",
            "offset": 0,
            "slot": "0",
            "type": "t_bytes32"
          },
          {
            "astId": 377,
            "contract": "contracts/Transshipment.sol:Transshipment",
            "label": "sourceChainSelector",
            "offset": 0,
            "slot": "1",
            "type": "t_uint64"
          },
          {
            "astId": 379,
            "contract": "contracts/Transshipment.sol:Transshipment",
            "label": "sender",
            "offset": 0,
            "slot": "2",
            "type": "t_bytes_storage"
          },
          {
            "astId": 381,
            "contract": "contracts/Transshipment.sol:Transshipment",
            "label": "data",
            "offset": 0,
            "slot": "3",
            "type": "t_bytes_storage"
          },
          {
            "astId": 385,
            "contract": "contracts/Transshipment.sol:Transshipment",
            "label": "destTokenAmounts",
            "offset": 0,
            "slot": "4",
            "type": "t_array(t_struct(EVMTokenAmount)373_storage)dyn_storage"
          }
        ],
        "numberOfBytes": "160"
      },
      "t_struct(Bytes32Set)2519_storage": {
        "encoding": "inplace",
        "label": "struct EnumerableSet.Bytes32Set",
        "members": [
          {
            "astId": 2518,
            "contract": "contracts/Transshipment.sol:Transshipment",
            "label": "_inner",
            "offset": 0,
            "slot": "0",
            "type": "t_struct(Set)2325_storage"
          }
        ],
        "numberOfBytes": "64"
      },
      "t_struct(Bytes32ToBytes32Map)1208_storage": {
        "encoding": "inplace",
        "label": "struct EnumerableMap.Bytes32ToBytes32Map",
        "members": [
          {
            "astId": 1203,
            "contract": "contracts/Transshipment.sol:Transshipment",
            "label": "_keys",
            "offset": 0,
            "slot": "0",
            "type": "t_struct(Bytes32Set)2519_storage"
          },
          {
            "astId": 1207,
            "contract": "contracts/Transshipment.sol:Transshipment",
            "label": "_values",
            "offset": 0,
            "slot": "2",
            "type": "t_mapping(t_bytes32,t_bytes32)"
          }
        ],
        "numberOfBytes": "96"
      },
      "t_struct(Bytes32ToUintMap)2131_storage": {
        "encoding": "inplace",
        "label": "struct EnumerableMap.Bytes32ToUintMap",
        "members": [
          {
            "astId": 2130,
            "contract": "contracts/Transshipment.sol:Transshipment",
            "label": "_inner",
            "offset": 0,
            "slot": "0",
            "type": "t_struct(Bytes32ToBytes32Map)1208_storage"
          }
        ],
        "numberOfBytes": "96"
      },
      "t_struct(EVMTokenAmount)373_storage": {
        "encoding": "inplace",
        "label": "struct Client.EVMTokenAmount",
        "members": [
          {
            "astId": 370,
            "contract": "contracts/Transshipment.sol:Transshipment",
            "label": "token",
            "offset": 0,
            "slot": "0",
            "type": "t_address"
          },
          {
            "astId": 372,
            "contract": "contracts/Transshipment.sol:Transshipment",
            "label": "amount",
            "offset": 0,
            "slot": "1",
            "type": "t_uint256"
          }
        ],
        "numberOfBytes": "64"
      },
      "t_struct(Set)2325_storage": {
        "encoding": "inplace",
        "label": "struct EnumerableSet.Set",
        "members": [
          {
            "astId": 2320,
            "contract": "contracts/Transshipment.sol:Transshipment",
            "label": "_values",
            "offset": 0,
            "slot": "0",
            "type": "t_array(t_bytes32)dyn_storage"
          },
          {
            "astId": 2324,
            "contract": "contracts/Transshipment.sol:Transshipment",
            "label": "_indexes",
            "offset": 0,
            "slot": "1",
            "type": "t_mapping(t_bytes32,t_uint256)"
          }
        ],
        "numberOfBytes": "64"
      },
      "t_uint256": {
        "encoding": "inplace",
        "label": "uint256",
        "numberOfBytes": "32"
      },
      "t_uint64": {
        "encoding": "inplace",
        "label": "uint64",
        "numberOfBytes": "8"
      }
    }
  }
}